{"count":74,"next":null,"previous":null,"results":[{"safe":"0x1Db92e2EeBC8E0c075a02BeA49a2935BcD2dFCF4","to":"0x96221423681A6d52E184D440a8eFCEbB105C7242","value":"0","data":"0xa9059cbb000000000000000000000000bdd077f651ebe7f7b3ce16fe5f2b025be29695160000000000000000000000000000000000000000000000000000000000000000","operation":1,"gasToken":"0x0000000000000000000000000000000000000000","safeTxGas":45746,"baseGas":0,"gasPrice":"0","refundReceiver":"0x0000000000000000000000000000000000000000","nonce":71,"executionDate":"2025-02-21T14:13:35Z","submissionDate":"2025-02-21T14:13:35Z","modified":"2025-02-21T14:13:35Z","blockNumber":21895238,"transactionHash":"0x46deef0f52e3a983b67abf4714448a41dd7ffd6d32d32da69d62081c68ad7882","safeTxHash":"0xb3476d061aeb8fc1d605a873c483a2402d88a68a9cdd1a8b47655dd55ba004f8","proposer":null,"proposedByDelegate":null,"executor":"0x0fa09C3A328792253f8dee7116848723b72a6d2e","isExecuted":true,"isSuccessful":true,"ethGasPrice":"10000000000","maxFeePerGas":null,"maxPriorityFeePerGas":null,"gasUsed":70224,"fee":"702240000000000","origin":"{}","dataDecoded":null,"confirmationsRequired":3,"confirmations":[{"owner":"0xe3dF2cCEAc61B1aFA311372ecC5B40A3A6585a9E","submissionDate":"2025-02-21T14:13:35Z","transactionHash":null,"signature":"0xdf9e4b878877a8dbeee951a4a31ddbf1d3b71e127d5eda44b4730030114baba52e06dd23da37cd2a07a6e84f9950db867374a0f77558f42adf4409bfd569673c1f","signatureType":"ETH_SIGN"},{"owner":"0x3Cc3A225769900e003E264dd4CB43E90896BC21A","submissionDate":"2025-02-21T14:13:35Z","transactionHash":null,"signature":"0x0f62ad358d6b319d3c1221d44456080068fe02ae5b1a39b4afb1e6721ca7f9903ac523a801533f265231cd35fc2dfddc3bd9a9563b51315cf9d5ff23dc6d2c221f","signatureType":"ETH_SIGN"},{"owner":"0x1F4EB0a903619ac168b19A82F1a6e2e426522211","submissionDate":"2025-02-21T14:13:35Z","transactionHash":null,"signature":"0xd0afef78a52fd504479dc2af3dc401334762cbd05609c7ac18db9ec5abf4a07a5cc09fc86efd3489707b89b0c729faed616459189cb50084f208d03b201b001f1f","signatureType":"ETH_SIGN"}],"trusted":true,"signatures":"0xd0afef78a52fd504479dc2af3dc401334762cbd05609c7ac18db9ec5abf4a07a5cc09fc86efd3489707b89b0c729faed616459189cb50084f208d03b201b001f1f0f62ad358d6b319d3c1221d44456080068fe02ae5b1a39b4afb1e6721ca7f9903ac523a801533f265231cd35fc2dfddc3bd9a9563b51315cf9d5ff23dc6d2c221fdf9e4b878877a8dbeee951a4a31ddbf1d3b71e127d5eda44b4730030114baba52e06dd23da37cd2a07a6e84f9950db867374a0f77558f42adf4409bfd569673c1f"},{"safe":"0x1Db92e2EeBC8E0c075a02BeA49a2935BcD2dFCF4","to":"0xf89d7b9c864f589bbF53a82105107622B35EaA40","value":"60000000000000000000000","data":null,"operation":0,"gasToken":"0x0000000000000000000000000000000000000000","safeTxGas":45745,"baseGas":0,"gasPrice":"0","refundReceiver":"0x0000000000000000000000000000000000000000","nonce":70,"executionDate":"2025-02-03T16:40:59Z","submissionDate":"2025-02-03T16:27:14.182097Z","modified":"2025-02-03T16:41:04.413947Z","blockNumber":21767237,"transactionHash":"0x5bd338eb788898addcbd079cac3e661ae139f0b3b5fb354f83012a438da88b71","safeTxHash":"0x2802c80b37293b9b57eb02deb85196103b6b74f0220b0928bb1c1c96f59e04f8","proposer":"0x1F4EB0a903619ac168b19A82F1a6e2e426522211","proposedByDelegate":null,"executor":"0x1F4EB0a903619ac168b19A82F1a6e2e426522211","isExecuted":true,"isSuccessful":true,"ethGasPrice":"19019648744","maxFeePerGas":"39410500458","maxPriorityFeePerGas":"1500000000","gasUsed":73059,"fee":"1389556517587896","origin":"{}","dataDecoded":null,"confirmationsRequired":3,"confirmations":[{"owner":"0x1F4EB0a903619ac168b19A82F1a6e2e426522211","submissionDate":"2025-02-03T16:27:50.900520Z","transactionHash":null,"signature":"0xdab89a9ebb6671a906f438f93e0723f58219e880b62958607ebf41baa29a3b1d005ba29d19c6056b3f2bd3f4842068bf9ac075d547997e7bd50913304dd45ac720","signatureType":"ETH_SIGN"},{"owner":"0x2cDD560058D5ac32dc416AAa09Eaf93230c0B7B3","submissionDate":"2025-02-03T16:34:13.336482Z","transactionHash":null,"signature":"0xd7e6a682e85fdaca10e1eb0889f62ea4334f1ef5dc6da8a17f8f1a9f330bd905049d0105469b6d2eee0ed79a46ae541d0d79764218bc0a9394cc6533b0b842881f","signatureType":"ETH_SIGN"},{"owner":"0xe3dF2cCEAc61B1aFA311372ecC5B40A3A6585a9E","submissionDate":"2025-02-03T16:38:17.019467Z","transactionHash":null,"signature":"0xd56e5f0a8b56b9294e3983433f9df2bf737ad00a1ed0104bdf9b108322b57b446c80c86e7632e3ce724a7d68695a88cffd2277c3b7be7b0386cbf0f30b3dc4c520","signatureType":"ETH_SIGN"}],"trusted":true,"signatures":"0xdab89a9ebb6671a906f438f93e0723f58219e880b62958607ebf41baa29a3b1d005ba29d19c6056b3f2bd3f4842068bf9ac075d547997e7bd50913304dd45ac720d7e6a682e85fdaca10e1eb0889f62ea4334f1ef5dc6da8a17f8f1a9f330bd905049d0105469b6d2eee0ed79a46ae541d0d79764218bc0a9394cc6533b0b842881fd56e5f0a8b56b9294e3983433f9df2bf737ad00a1ed0104bdf9b108322b57b446c80c86e7632e3ce724a7d68695a88cffd2277c3b7be7b0386cbf0f30b3dc4c520"},{"safe":"0x1Db92e2EeBC8E0c075a02BeA49a2935BcD2dFCF4","to":"0xf89d7b9c864f589bbF53a82105107622B35EaA40","value":"30000000000000000000000","data":null,"operation":0,"gasToken":"0x0000000000000000000000000000000000000000","safeTxGas":45745,"baseGas":0,"gasPrice":"0","refundReceiver":"0x0000000000000000000000000000000000000000","nonce":69,"executionDate":"2025-02-03T08:00:35Z","submissionDate":"2025-02-03T07:10:44.522039Z","modified":"2025-02-03T08:00:35Z","blockNumber":21764653,"transactionHash":"0x3e10310c05bb87269bfd60f67e13fd9dff4da80b4e47a541af1835f15fd96071","safeTxHash":"0xe8c45062336eaa284c5f1102f4ad58d29b5c9fa5df1f9a3f4c1b76c826a8f89c","proposer":"0x1F4EB0a903619ac168b19A82F1a6e2e426522211","proposedByDelegate":null,"executor":"0x828424517F9F04015db02169f4026D57B2B07229","isExecuted":true,"isSuccessful":true,"ethGasPrice":"19000000000","maxFeePerGas":"19000000000","maxPriorityFeePerGas":"3344151510","gasUsed":69149,"fee":"1313831000000000","origin":"{}","dataDecoded":null,"confirmationsRequired":3,"confirmations":[{"owner":"0x1F4EB0a903619ac168b19A82F1a6e2e426522211","submissionDate":"2025-02-03T07:11:14.915528Z","transactionHash":null,"signature":"0xde1c4a6603cbf5665809f5c87230d698fe65c9ae34c27364a8011f8181ed63e434889ccfda94ef6b039e922a2bd0b95d82c31775d4e335d8bd0c1960e0f1fa5f20","signatureType":"ETH_SIGN"},{"owner":"0x3Cc3A225769900e003E264dd4CB43E90896BC21A","submissionDate":"2025-02-03T07:41:34.868287Z","transactionHash":null,"signature":"0x7f68b7fdd774c3cde52de32aedd3f635c53514ec60ed49830c896c8a7f5a0ea3717b3b87f9fe45a5dfc28cb1584e37a939bd523ca69a4dca503df5f7f8a7b9e820","signatureType":"ETH_SIGN"},{"owner":"0x828424517F9F04015db02169f4026D57B2B07229","submissionDate":"2025-02-03T08:00:35Z","transactionHash":null,"signature":"0x000000000000000000000000828424517f9f04015db02169f4026d57b2b07229000000000000000000000000000000000000000000000000000000000000000001","signatureType":"APPROVED_HASH"}],"trusted":true,"signatures":"0xde1c4a6603cbf5665809f5c87230d698fe65c9ae34c27364a8011f8181ed63e434889ccfda94ef6b039e922a2bd0b95d82c31775d4e335d8bd0c1960e0f1fa5f207f68b7fdd774c3cde52de32aedd3f635c53514ec60ed49830c896c8a7f5a0ea3717b3b87f9fe45a5dfc28cb1584e37a939bd523ca69a4dca503df5f7f8a7b9e820000000000000000000000000828424517f9f04015db02169f4026d57b2b07229000000000000000000000000000000000000000000000000000000000000000001"},{"safe":"0x1Db92e2EeBC8E0c075a02BeA49a2935BcD2dFCF4","to":"0xf89d7b9c864f589bbF53a82105107622B35EaA40","value":"30000000000000000000000","data":null,"operation":0,"gasToken":"0x0000000000000000000000000000000000000000","safeTxGas":45745,"baseGas":0,"gasPrice":"0","refundReceiver":"0x0000000000000000000000000000000000000000","nonce":68,"executionDate":"2025-01-29T15:26:35Z","submissionDate":"2025-01-29T04:20:16.192092Z","modified":"2025-01-29T15:26:35Z","blockNumber":21731071,"transactionHash":"0x631bb8e5bd386722d8e3f8dd54ca887db0eb5a4bb8b30ce1be6fb6c12714193d","safeTxHash":"0x2f0cb1dee09b61ef88520a2b766c32594689ecc1002e13bafe54918310746bf4","proposer":"0x1F4EB0a903619ac168b19A82F1a6e2e426522211","proposedByDelegate":null,"executor":"0x828424517F9F04015db02169f4026D57B2B07229","isExecuted":true,"isSuccessful":true,"ethGasPrice":"6386754719","maxFeePerGas":"7100000000","maxPriorityFeePerGas":"2000000000","gasUsed":69149,"fee":"441637702064131","origin":"{}","dataDecoded":null,"confirmationsRequired":3,"confirmations":[{"owner":"0x1F4EB0a903619ac168b19A82F1a6e2e426522211","submissionDate":"2025-01-29T04:20:58.290878Z","transactionHash":null,"signature":"0x619b5fb93ae057d68c38f51b9d9968120ffa1821391b101161acfcbe0a9b5e07221bea528feefedcf664b5d89c49532a297101d0eed154f633dbf1ba5b64ab4f20","signatureType":"ETH_SIGN"},{"owner":"0x3Cc3A225769900e003E264dd4CB43E90896BC21A","submissionDate":"2025-01-29T15:05:19.339043Z","transactionHash":null,"signature":"0x91cfba9ccd8d29944a7750e7e8c32a98eb624632301c847d51d4b9b7c186476a1fcdfce64372fce829dc55af0407f958854cdb3de6f764ddbc85c7ec9759545920","signatureType":"ETH_SIGN"},{"owner":"0x828424517F9F04015db02169f4026D57B2B07229","submissionDate":"2025-01-29T15:26:35Z","transactionHash":null,"signature":"0x000000000000000000000000828424517f9f04015db02169f4026d57b2b07229000000000000000000000000000000000000000000000000000000000000000001","signatureType":"APPROVED_HASH"}],"trusted":true,"signatures":"0x619b5fb93ae057d68c38f51b9d9968120ffa1821391b101161acfcbe0a9b5e07221bea528feefedcf664b5d89c49532a297101d0eed154f633dbf1ba5b64ab4f2091cfba9ccd8d29944a7750e7e8c32a98eb624632301c847d51d4b9b7c186476a1fcdfce64372fce829dc55af0407f958854cdb3de6f764ddbc85c7ec9759545920000000000000000000000000828424517f9f04015db02169f4026d57b2b07229000000000000000000000000000000000000000000000000000000000000000001"},{"safe":"0x1Db92e2EeBC8E0c075a02BeA49a2935BcD2dFCF4","to":"0xd5F7838F5C461fefF7FE49ea5ebaF7728bB0ADfa","value":"0","data":"0xa9059cbb000000000000000000000000f89d7b9c864f589bbf53a82105107622b35eaa4000000000000000000000000000000000000000000000010f0cf064dd59200000","operation":0,"gasToken":"0x0000000000000000000000000000000000000000","safeTxGas":58814,"baseGas":0,"gasPrice":"0","refundReceiver":"0x0000000000000000000000000000000000000000","nonce":67,"executionDate":"2025-01-14T11:23:35Z","submissionDate":"2025-01-14T10:40:34.091091Z","modified":"2025-01-14T11:23:35Z","blockNumber":21622402,"transactionHash":"0xf356b8a8b3dcd1530ef7ee3d2a896e5f0035ea9833cdf6f0fbea6f7b4369c813","safeTxHash":"0xad245c7f3218995cb1e6a723dce14910d23a5105d997650704b82d8e005efcf7","proposer":"0x828424517F9F04015db02169f4026D57B2B07229","proposedByDelegate":null,"executor":"0x1F4EB0a903619ac168b19A82F1a6e2e426522211","isExecuted":true,"isSuccessful":true,"ethGasPrice":"4846605354","maxFeePerGas":"4846605354","maxPriorityFeePerGas":"440600486","gasUsed":77979,"fee":"377933438899566","origin":"{}","dataDecoded":{"method":"transfer","parameters":[{"name":"to","type":"address","value":"0xf89d7b9c864f589bbF53a82105107622B35EaA40"},{"name":"value","type":"uint256","value":"5000000000000000000000"}]},"confirmationsRequired":3,"confirmations":[{"owner":"0x828424517F9F04015db02169f4026D57B2B07229","submissionDate":"2025-01-14T10:41:41.166667Z","transactionHash":null,"signature":"0x6ed10b9ac82aa3b01a5f26f289c4d8a5cf12835e87ba5a3782a4419251f18ae47aaed50e06dd602dd895445510b55c1817b6d04e05d40e307a62643aeee83bb01b","signatureType":"EOA"},{"owner":"0xe3dF2cCEAc61B1aFA311372ecC5B40A3A6585a9E","submissionDate":"2025-01-14T11:20:00.458674Z","transactionHash":null,"signature":"0xd7d93a56b376f5e0ee049d477afe8b7c6f9cd195671554b2117f76a75b43147a5f3122e07308d5c789b97fe3fb3aa9705dbc4287c0cac1cdb56e78ab9bbbbc3b1f","signatureType":"ETH_SIGN"},{"owner":"0x1F4EB0a903619ac168b19A82F1a6e2e426522211","submissionDate":"2025-01-14T11:23:35Z","transactionHash":null,"signature":"0x0000000000000000000000001f4eb0a903619ac168b19a82f1a6e2e426522211000000000000000000000000000000000000000000000000000000000000000001","signatureType":"APPROVED_HASH"}],"trusted":true,"signatures":"0x0000000000000000000000001f4eb0a903619ac168b19a82f1a6e2e4265222110000000000000000000000000000000000000000000000000000000000000000016ed10b9ac82aa3b01a5f26f289c4d8a5cf12835e87ba5a3782a4419251f18ae47aaed50e06dd602dd895445510b55c1817b6d04e05d40e307a62643aeee83bb01bd7d93a56b376f5e0ee049d477afe8b7c6f9cd195671554b2117f76a75b43147a5f3122e07308d5c789b97fe3fb3aa9705dbc4287c0cac1cdb56e78ab9bbbbc3b1f"},{"safe":"0x1Db92e2EeBC8E0c075a02BeA49a2935BcD2dFCF4","to":"0x88a1493366D48225fc3cEFbdae9eBb23E323Ade3","value":"30000000000000000000000","data":null,"operation":0,"gasToken":"0x0000000000000000000000000000000000000000","safeTxGas":45745,"baseGas":0,"gasPrice":"0","refundReceiver":"0x0000000000000000000000000000000000000000","nonce":66,"executionDate":"2025-01-13T15:47:47Z","submissionDate":"2025-01-13T14:58:43.848399Z","modified":"2025-01-13T15:47:53.035446Z","blockNumber":21616554,"transactionHash":"0x197faa71ca0ed0c2aa5c35700c596efa32b4440c3c7bfc1bd23cd1dedbd5cddb","safeTxHash":"0x982314ed26067308d5795cefadc18b0b457b122fd2ed4d5b88b4d721a115a076","proposer":"0x1F4EB0a903619ac168b19A82F1a6e2e426522211","proposedByDelegate":null,"executor":"0x913b41A348dfB9300a00f01459Ac1B43Ea23d998","isExecuted":true,"isSuccessful":true,"ethGasPrice":"15786154527","maxFeePerGas":"16087709776","maxPriorityFeePerGas":"1500000000","gasUsed":72896,"fee":"1150747520400192","origin":"{}","dataDecoded":null,"confirmationsRequired":3,"confirmations":[{"owner":"0x1F4EB0a903619ac168b19A82F1a6e2e426522211","submissionDate":"2025-01-13T14:59:12.709010Z","transactionHash":null,"signature":"0x42833da30a417533ce95a71a24f33e133e82ef79b775557aa285b6b1b68f17985d309dc2afdd5bb54a5c6fc487dbba6415d2357e2471e248664dbcf9aef9033f20","signatureType":"ETH_SIGN"},{"owner":"0x828424517F9F04015db02169f4026D57B2B07229","submissionDate":"2025-01-13T15:18:39.668269Z","transactionHash":null,"signature":"0x43e47ac11c7214a68c2cdedcf2a7d6e6466ba29dce31250b54658f892bbdaaf90e6c11f1a283f772158ebb2177c5e6854648e5bfab1317b4d3e424679b18e10a1c","signatureType":"EOA"},{"owner":"0x2cDD560058D5ac32dc416AAa09Eaf93230c0B7B3","submissionDate":"2025-01-13T15:40:32.964067Z","transactionHash":null,"signature":"0x3f1bde34c1106693b43f248a1a193dfc90982150f3c2c504d471b8ded250e52d7bea54cb302ea7ab989fd6c52d787a7981f648520d90b99f3a5e35321a86bfe21f","signatureType":"ETH_SIGN"}],"trusted":true,"signatures":"0x42833da30a417533ce95a71a24f33e133e82ef79b775557aa285b6b1b68f17985d309dc2afdd5bb54a5c6fc487dbba6415d2357e2471e248664dbcf9aef9033f203f1bde34c1106693b43f248a1a193dfc90982150f3c2c504d471b8ded250e52d7bea54cb302ea7ab989fd6c52d787a7981f648520d90b99f3a5e35321a86bfe21f43e47ac11c7214a68c2cdedcf2a7d6e6466ba29dce31250b54658f892bbdaaf90e6c11f1a283f772158ebb2177c5e6854648e5bfab1317b4d3e424679b18e10a1c"},{"safe":"0x1Db92e2EeBC8E0c075a02BeA49a2935BcD2dFCF4","to":"0x88a1493366D48225fc3cEFbdae9eBb23E323Ade3","value":"30000000000000000000000","data":null,"operation":0,"gasToken":"0x0000000000000000000000000000000000000000","safeTxGas":45745,"baseGas":0,"gasPrice":"0","refundReceiver":"0x0000000000000000000000000000000000000000","nonce":65,"executionDate":"2024-12-29T03:49:59Z","submissionDate":"2024-12-28T08:53:57.787232Z","modified":"2024-12-29T03:50:06.627150Z","blockNumber":21505549,"transactionHash":"0xd5d746c967b9720a2e2329ec3ccd8a24774b4a7588292d745abec325eba0b8b6","safeTxHash":"0x232e9c50965997d04d38c002ca162b3b27f99129791d321265e51dc1cc0844e2","proposer":"0x1F4EB0a903619ac168b19A82F1a6e2e426522211","proposedByDelegate":null,"executor":"0x1F4EB0a903619ac168b19A82F1a6e2e426522211","isExecuted":true,"isSuccessful":true,"ethGasPrice":"3678166174","maxFeePerGas":"5265762984","maxPriorityFeePerGas":"652836274","gasUsed":73059,"fee":"268723142506266","origin":"{}","dataDecoded":null,"confirmationsRequired":3,"confirmations":[{"owner":"0x1F4EB0a903619ac168b19A82F1a6e2e426522211","submissionDate":"2024-12-28T08:55:35.451611Z","transactionHash":null,"signature":"0x5351275b2c7e398d1d09fee7bc71e1b95fdf42f565b5f43c40f9de40a3f3d3b57b5e4935dfc473fc8747db450b699508f00fad088c673c35f691baf0c654e15c1f","signatureType":"ETH_SIGN"},{"owner":"0x3Cc3A225769900e003E264dd4CB43E90896BC21A","submissionDate":"2024-12-28T11:59:15.624284Z","transactionHash":null,"signature":"0x303fb3e3cbfab271e3ae4311533be0c4796e35579c899e7807826af2c05532bf17c7d13ee008b9c36204fe7f6acab07f1396bd0bb4444494e0ffcd4b34b027eb20","signatureType":"ETH_SIGN"},{"owner":"0xD367f8322b64F29faF71dDB5c1877dC9ED6EC644","submissionDate":"2024-12-28T23:34:40.187337Z","transactionHash":null,"signature":"0x5e4d5f759a66df10999fceca7b72b284c19e4eae2cff00764f3569a78e0123d67914fdd137eadbda041310d19711b254974d52d2c8ceb9af87d26d9a23af6cfb1f","signatureType":"ETH_SIGN"}],"trusted":true,"signatures":"0x5351275b2c7e398d1d09fee7bc71e1b95fdf42f565b5f43c40f9de40a3f3d3b57b5e4935dfc473fc8747db450b699508f00fad088c673c35f691baf0c654e15c1f303fb3e3cbfab271e3ae4311533be0c4796e35579c899e7807826af2c05532bf17c7d13ee008b9c36204fe7f6acab07f1396bd0bb4444494e0ffcd4b34b027eb205e4d5f759a66df10999fceca7b72b284c19e4eae2cff00764f3569a78e0123d67914fdd137eadbda041310d19711b254974d52d2c8ceb9af87d26d9a23af6cfb1f"},{"safe":"0x1Db92e2EeBC8E0c075a02BeA49a2935BcD2dFCF4","to":"0x88a1493366D48225fc3cEFbdae9eBb23E323Ade3","value":"30000000000000000000000","data":null,"operation":0,"gasToken":"0x0000000000000000000000000000000000000000","safeTxGas":45745,"baseGas":0,"gasPrice":"0","refundReceiver":"0x0000000000000000000000000000000000000000","nonce":64,"executionDate":"2024-12-20T05:14:59Z","submissionDate":"2024-12-19T06:59:56.264874Z","modified":"2024-12-20T05:15:03.543432Z","blockNumber":21441578,"transactionHash":"0xa78efc010410fc345844796b032c28bdf44bea79bf325f00f49c83ed6f2297e0","safeTxHash":"0x3a1a6e9453ef993d69746dec0f454dffd4a557cfdb7963c28d778afb01662e35","proposer":"0x1F4EB0a903619ac168b19A82F1a6e2e426522211","proposedByDelegate":null,"executor":"0x1F4EB0a903619ac168b19A82F1a6e2e426522211","isExecuted":true,"isSuccessful":true,"ethGasPrice":"8992608481","maxFeePerGas":"13032167014","maxPriorityFeePerGas":"940900000","gasUsed":72720,"fee":"653942488738320","origin":"{}","dataDecoded":null,"confirmationsRequired":3,"confirmations":[{"owner":"0x1F4EB0a903619ac168b19A82F1a6e2e426522211","submissionDate":"2024-12-19T07:02:26.649318Z","transactionHash":null,"signature":"0x03928b387118dd8a8a526fdbc1edec080f775c6adc801512f4804ecaf1e0734d6798f7dbd55df0fff8ed8f7a5c334b9919484a7fe872fe11ba2be62c20e4a9df1b","signatureType":"EOA"},{"owner":"0xe3dF2cCEAc61B1aFA311372ecC5B40A3A6585a9E","submissionDate":"2024-12-20T04:13:08.971453Z","transactionHash":null,"signature":"0xb3b7edb3e5c97e1ccd944d3585285274ca4475387e4a6dad769b357f59a2773e77c6b363be27c543c6a2f8d763b30dde1cf6a9bcefab9f0ea716f67ec03805bb20","signatureType":"ETH_SIGN"},{"owner":"0x3Cc3A225769900e003E264dd4CB43E90896BC21A","submissionDate":"2024-12-20T04:23:04.532681Z","transactionHash":null,"signature":"0x31883c9d3dbe9b53da6cea7f46695eb11e535a93977d1b12e332f2eeab373e4f58af62ec0f7424bcaac89e75863fd93605e3d03c6d24baf508ad5a7cb09913c61b","signatureType":"EOA"}],"trusted":true,"signatures":"0x03928b387118dd8a8a526fdbc1edec080f775c6adc801512f4804ecaf1e0734d6798f7dbd55df0fff8ed8f7a5c334b9919484a7fe872fe11ba2be62c20e4a9df1b31883c9d3dbe9b53da6cea7f46695eb11e535a93977d1b12e332f2eeab373e4f58af62ec0f7424bcaac89e75863fd93605e3d03c6d24baf508ad5a7cb09913c61bb3b7edb3e5c97e1ccd944d3585285274ca4475387e4a6dad769b357f59a2773e77c6b363be27c543c6a2f8d763b30dde1cf6a9bcefab9f0ea716f67ec03805bb20"},{"safe":"0x1Db92e2EeBC8E0c075a02BeA49a2935BcD2dFCF4","to":"0x88a1493366D48225fc3cEFbdae9eBb23E323Ade3","value":"30000000000000000000000","data":null,"operation":0,"gasToken":"0x0000000000000000000000000000000000000000","safeTxGas":45745,"baseGas":0,"gasPrice":"0","refundReceiver":"0x0000000000000000000000000000000000000000","nonce":63,"executionDate":"2024-12-03T14:53:23Z","submissionDate":"2024-12-03T09:16:36.260867Z","modified":"2024-12-03T14:53:29.004424Z","blockNumber":21322699,"transactionHash":"0x765f59ff894eec9c69ebc93c8c2b828d9556d287af14d444142db58b08d2a6c2","safeTxHash":"0x9ffa6bcc269807471d0bd100168d92d877d807c6656287a6c8dab132e8853d8b","proposer":"0x1F4EB0a903619ac168b19A82F1a6e2e426522211","proposedByDelegate":null,"executor":"0x828424517F9F04015db02169f4026D57B2B07229","isExecuted":true,"isSuccessful":true,"ethGasPrice":"45119721015","maxFeePerGas":"60600000000","maxPriorityFeePerGas":"3816159793","gasUsed":73071,"fee":"3296943134287065","origin":"{}","dataDecoded":null,"confirmationsRequired":3,"confirmations":[{"owner":"0x1F4EB0a903619ac168b19A82F1a6e2e426522211","submissionDate":"2024-12-03T09:19:24.880989Z","transactionHash":null,"signature":"0x76030a4c5ba3e50405041263cbb04260b36bcfd6cfd3d4c658982127e87eee166fe01a0b0110db4b4fcdb675b435c8b2de4c292a3a033d57c0e1baf89cd51e1f20","signatureType":"ETH_SIGN"},{"owner":"0xe3dF2cCEAc61B1aFA311372ecC5B40A3A6585a9E","submissionDate":"2024-12-03T13:32:40.924813Z","transactionHash":null,"signature":"0xd9327c53fec3444372405c3fd969d515f13297f123d3bb8009e84eed416b16b116586a16cd962cf2afd89b1a9e2af21fe53b5e96753a077e5523066722f0ebad1f","signatureType":"ETH_SIGN"},{"owner":"0x2cDD560058D5ac32dc416AAa09Eaf93230c0B7B3","submissionDate":"2024-12-03T14:47:20.937319Z","transactionHash":null,"signature":"0x33c44e5aefe7710290baea6ac079354a2cf2ee11168f872c64b64e54989442ee6c54ff4e9ad78f9014ef4d46042253aec5ecbb824948022286ca0953837a969d1f","signatureType":"ETH_SIGN"}],"trusted":true,"signatures":"0x76030a4c5ba3e50405041263cbb04260b36bcfd6cfd3d4c658982127e87eee166fe01a0b0110db4b4fcdb675b435c8b2de4c292a3a033d57c0e1baf89cd51e1f2033c44e5aefe7710290baea6ac079354a2cf2ee11168f872c64b64e54989442ee6c54ff4e9ad78f9014ef4d46042253aec5ecbb824948022286ca0953837a969d1fd9327c53fec3444372405c3fd969d515f13297f123d3bb8009e84eed416b16b116586a16cd962cf2afd89b1a9e2af21fe53b5e96753a077e5523066722f0ebad1f"},{"safe":"0x1Db92e2EeBC8E0c075a02BeA49a2935BcD2dFCF4","to":"0x88a1493366D48225fc3cEFbdae9eBb23E323Ade3","value":"30000000000000000000000","data":null,"operation":0,"gasToken":"0x0000000000000000000000000000000000000000","safeTxGas":45745,"baseGas":0,"gasPrice":"0","refundReceiver":"0x0000000000000000000000000000000000000000","nonce":62,"executionDate":"2024-11-30T13:33:59Z","submissionDate":"2024-11-30T04:12:58.127724Z","modified":"2024-11-30T13:33:59Z","blockNumber":21300819,"transactionHash":"0xe14b288b31fa2fe2d33220616505d20580cf2d368457d918314ca05d035694b5","safeTxHash":"0xe215bfbdc9375ce0c57b4bbfd8bdf90dc863bfd9a96900791795323a7a549e65","proposer":"0x1F4EB0a903619ac168b19A82F1a6e2e426522211","proposedByDelegate":null,"executor":"0x828424517F9F04015db02169f4026D57B2B07229","isExecuted":true,"isSuccessful":true,"ethGasPrice":"9700000000","maxFeePerGas":"9700000000","maxPriorityFeePerGas":"1800976019","gasUsed":69137,"fee":"670628900000000","origin":"{}","dataDecoded":null,"confirmationsRequired":3,"confirmations":[{"owner":"0x1F4EB0a903619ac168b19A82F1a6e2e426522211","submissionDate":"2024-11-30T04:13:42.375059Z","transactionHash":null,"signature":"0xdd2bb5c4bb92d3efe87a61628779486c28687901b188d06d22e566521d80eb7a6c26d3f7954dea1d2d196fd6a6b10131d5f098a253e5a91015d9aa48002bc6b61f","signatureType":"ETH_SIGN"},{"owner":"0xe3dF2cCEAc61B1aFA311372ecC5B40A3A6585a9E","submissionDate":"2024-11-30T13:15:09.689286Z","transactionHash":null,"signature":"0xd850f54f290d4792961a6c01c624e4add27cdd2538d2c70be6ae3378068bdfbd42ec83bd9d9e86d08c57d801285470a53102d8c3df4e57ac91263ec6318f835720","signatureType":"ETH_SIGN"},{"owner":"0x828424517F9F04015db02169f4026D57B2B07229","submissionDate":"2024-11-30T13:33:59Z","transactionHash":null,"signature":"0x000000000000000000000000828424517f9f04015db02169f4026d57b2b07229000000000000000000000000000000000000000000000000000000000000000001","signatureType":"APPROVED_HASH"}],"trusted":true,"signatures":"0xdd2bb5c4bb92d3efe87a61628779486c28687901b188d06d22e566521d80eb7a6c26d3f7954dea1d2d196fd6a6b10131d5f098a253e5a91015d9aa48002bc6b61f000000000000000000000000828424517f9f04015db02169f4026d57b2b07229000000000000000000000000000000000000000000000000000000000000000001d850f54f290d4792961a6c01c624e4add27cdd2538d2c70be6ae3378068bdfbd42ec83bd9d9e86d08c57d801285470a53102d8c3df4e57ac91263ec6318f835720"},{"safe":"0x1Db92e2EeBC8E0c075a02BeA49a2935BcD2dFCF4","to":"0xECa33dc9E896072d4EdC4A02183910376D4B5E76","value":"14000000000000000000000","data":null,"operation":0,"gasToken":"0x0000000000000000000000000000000000000000","safeTxGas":45745,"baseGas":0,"gasPrice":"0","refundReceiver":"0x0000000000000000000000000000000000000000","nonce":61,"executionDate":"2024-10-21T05:21:35Z","submissionDate":"2024-10-20T09:57:58.870596Z","modified":"2024-10-21T05:21:35Z","blockNumber":21011829,"transactionHash":"0x5ee5baab0a133296a3698884645c6c9c79cedb5e01c61706a9cfd3fe7e1d9a74","safeTxHash":"0x1146aba297e1690d16652ebe64a2f5d1b50995f98719a5f41548ef07b9fec481","proposer":"0x1F4EB0a903619ac168b19A82F1a6e2e426522211","proposedByDelegate":null,"executor":"0x828424517F9F04015db02169f4026D57B2B07229","isExecuted":true,"isSuccessful":true,"ethGasPrice":"6069624226","maxFeePerGas":"6069624226","maxPriorityFeePerGas":"220950262","gasUsed":69149,"fee":"419708445603674","origin":"{}","dataDecoded":null,"confirmationsRequired":3,"confirmations":[{"owner":"0x1F4EB0a903619ac168b19A82F1a6e2e426522211","submissionDate":"2024-10-20T09:57:58.947364Z","transactionHash":null,"signature":"0x83a5f3f8384273cd77e198e94cdb793cacc32689a4ffa955401f9492155f52526311e6c7a74cae0f71ef119ce7a4b510441933f53abaf3234d074a4d789d6a1320","signatureType":"ETH_SIGN"},{"owner":"0x3Cc3A225769900e003E264dd4CB43E90896BC21A","submissionDate":"2024-10-21T02:44:44.217018Z","transactionHash":null,"signature":"0xb6dfafcb7e5417bc8b95a299fcfa7f85be1f161040f0ba46e19474f52d0f0dce262d110a221bd062ea4565d22076b63eb2da19ac24dfebf5d92373c597702c2b1f","signatureType":"ETH_SIGN"},{"owner":"0x828424517F9F04015db02169f4026D57B2B07229","submissionDate":"2024-10-21T05:21:35Z","transactionHash":null,"signature":"0x000000000000000000000000828424517f9f04015db02169f4026d57b2b07229000000000000000000000000000000000000000000000000000000000000000001","signatureType":"APPROVED_HASH"}],"trusted":true,"signatures":"0x83a5f3f8384273cd77e198e94cdb793cacc32689a4ffa955401f9492155f52526311e6c7a74cae0f71ef119ce7a4b510441933f53abaf3234d074a4d789d6a1320b6dfafcb7e5417bc8b95a299fcfa7f85be1f161040f0ba46e19474f52d0f0dce262d110a221bd062ea4565d22076b63eb2da19ac24dfebf5d92373c597702c2b1f000000000000000000000000828424517f9f04015db02169f4026d57b2b07229000000000000000000000000000000000000000000000000000000000000000001"},{"safe":"0x1Db92e2EeBC8E0c075a02BeA49a2935BcD2dFCF4","to":"0x1Db92e2EeBC8E0c075a02BeA49a2935BcD2dFCF4","value":"0","data":"0xf8dc5dd90000000000000000000000001f4eb0a903619ac168b19a82f1a6e2e4265222110000000000000000000000003dd4b4dbe6aee6f49a65f0c1ac508deff761c1950000000000000000000000000000000000000000000000000000000000000003","operation":0,"gasToken":"0x0000000000000000000000000000000000000000","safeTxGas":56587,"baseGas":0,"gasPrice":"0","refundReceiver":"0x0000000000000000000000000000000000000000","nonce":60,"executionDate":"2024-07-05T02:08:23Z","submissionDate":"2024-07-04T03:37:35.455546Z","modified":"2024-07-05T02:08:23Z","blockNumber":20237222,"transactionHash":"0x62e69929856083fb847caa54f647ebc7095a0f0dbdbfaea0530b55f47ba4fc37","safeTxHash":"0xdb96abf97c7f8187f57c9da5ffc2e2cd437b6040989239a694c742cfdb0ec247","proposer":"0x3dd4B4dbe6aEe6F49A65F0C1Ac508DeFF761C195","proposedByDelegate":null,"executor":"0x828424517F9F04015db02169f4026D57B2B07229","isExecuted":true,"isSuccessful":true,"ethGasPrice":"6633977378","maxFeePerGas":"7000000000","maxPriorityFeePerGas":"2667404749","gasUsed":70230,"fee":"465904231256940","origin":"{}","dataDecoded":{"method":"removeOwner","parameters":[{"name":"prevOwner","type":"address","value":"0x1F4EB0a903619ac168b19A82F1a6e2e426522211"},{"name":"owner","type":"address","value":"0x3dd4B4dbe6aEe6F49A65F0C1Ac508DeFF761C195"},{"name":"_threshold","type":"uint256","value":"3"}]},"confirmationsRequired":3,"confirmations":[{"owner":"0x3dd4B4dbe6aEe6F49A65F0C1Ac508DeFF761C195","submissionDate":"2024-07-04T03:37:35.489901Z","transactionHash":null,"signature":"0xa76f928e38cf63694c0ec850a32597ece1eec38055015dec6ac9cef146b7be4965e6b921df716d53e542d1592733d52caa17adc732dd574092d1b752314f6ace20","signatureType":"ETH_SIGN"},{"owner":"0x1F4EB0a903619ac168b19A82F1a6e2e426522211","submissionDate":"2024-07-04T10:53:45.796358Z","transactionHash":null,"signature":"0x90bfcb6c7a89fafe9a37d871bae8d92c7d75e9035d8dd75329a03057f2bc08340469a46d02b1148b06c8cce096389981871da9a1588f74b73753aa839b328a511f","signatureType":"ETH_SIGN"},{"owner":"0x828424517F9F04015db02169f4026D57B2B07229","submissionDate":"2024-07-05T02:08:23Z","transactionHash":null,"signature":"0x000000000000000000000000828424517f9f04015db02169f4026d57b2b07229000000000000000000000000000000000000000000000000000000000000000001","signatureType":"APPROVED_HASH"}],"trusted":true,"signatures":"0x90bfcb6c7a89fafe9a37d871bae8d92c7d75e9035d8dd75329a03057f2bc08340469a46d02b1148b06c8cce096389981871da9a1588f74b73753aa839b328a511fa76f928e38cf63694c0ec850a32597ece1eec38055015dec6ac9cef146b7be4965e6b921df716d53e542d1592733d52caa17adc732dd574092d1b752314f6ace20000000000000000000000000828424517f9f04015db02169f4026d57b2b07229000000000000000000000000000000000000000000000000000000000000000001"},{"safe":"0x1Db92e2EeBC8E0c075a02BeA49a2935BcD2dFCF4","to":"0x1Db92e2EeBC8E0c075a02BeA49a2935BcD2dFCF4","value":"0","data":"0x0d582f130000000000000000000000001f4eb0a903619ac168b19a82f1a6e2e4265222110000000000000000000000000000000000000000000000000000000000000003","operation":0,"gasToken":"0x0000000000000000000000000000000000000000","safeTxGas":73486,"baseGas":0,"gasPrice":"0","refundReceiver":"0x0000000000000000000000000000000000000000","nonce":59,"executionDate":"2024-07-04T03:31:59Z","submissionDate":"2024-06-28T11:47:16.768032Z","modified":"2024-07-04T03:32:23.059775Z","blockNumber":20230483,"transactionHash":"0x1425b4dad07b6812d356a00919f6fca35c7f67dda1476581fabe06820101c888","safeTxHash":"0x0402a292bbf8d96d4624479b807018a872b6ce6796f286b31843bbedf305cce1","proposer":"0x3dd4B4dbe6aEe6F49A65F0C1Ac508DeFF761C195","proposedByDelegate":null,"executor":"0x3dd4B4dbe6aEe6F49A65F0C1Ac508DeFF761C195","isExecuted":true,"isSuccessful":true,"ethGasPrice":"6936596559","maxFeePerGas":"7000000000","maxPriorityFeePerGas":"3477678784","gasUsed":99126,"fee":"687597070507434","origin":"{}","dataDecoded":{"method":"addOwnerWithThreshold","parameters":[{"name":"owner","type":"address","value":"0x1F4EB0a903619ac168b19A82F1a6e2e426522211"},{"name":"_threshold","type":"uint256","value":"3"}]},"confirmationsRequired":3,"confirmations":[{"owner":"0x3dd4B4dbe6aEe6F49A65F0C1Ac508DeFF761C195","submissionDate":"2024-06-28T11:47:16.822270Z","transactionHash":null,"signature":"0x92ad715c770da0f12ffb060e374cd7e4f22355758de40940148337cb065d9be217caa8c4f46aac0f84c1a1cdf7b4ed5d5cc755e84e9cc0e1fb60265ef22d76d21c","signatureType":"EOA"},{"owner":"0x828424517F9F04015db02169f4026D57B2B07229","submissionDate":"2024-06-29T11:49:13.298330Z","transactionHash":null,"signature":"0x64c385aa0a5781d3ee81e54af25226a0556e84c7523f01214c84a8804072dddc53db7028a9d7eb163c0675603f8e7d6d1a50c4ffda7d0fc79e7fe1291c7e49241b","signatureType":"EOA"},{"owner":"0xe3dF2cCEAc61B1aFA311372ecC5B40A3A6585a9E","submissionDate":"2024-07-03T08:54:52.849995Z","transactionHash":null,"signature":"0xf1912c16142314bf14c81b2f329a468ad7f17681578fe0c11b1d7e7099528407570c249159684f7691783cc39a3101b806b991a1e7e6bb2ee0edae6eaef5ea7920","signatureType":"ETH_SIGN"}],"trusted":true,"signatures":"0x92ad715c770da0f12ffb060e374cd7e4f22355758de40940148337cb065d9be217caa8c4f46aac0f84c1a1cdf7b4ed5d5cc755e84e9cc0e1fb60265ef22d76d21c64c385aa0a5781d3ee81e54af25226a0556e84c7523f01214c84a8804072dddc53db7028a9d7eb163c0675603f8e7d6d1a50c4ffda7d0fc79e7fe1291c7e49241bf1912c16142314bf14c81b2f329a468ad7f17681578fe0c11b1d7e7099528407570c249159684f7691783cc39a3101b806b991a1e7e6bb2ee0edae6eaef5ea7920"},{"safe":"0x1Db92e2EeBC8E0c075a02BeA49a2935BcD2dFCF4","to":"0x1Db92e2EeBC8E0c075a02BeA49a2935BcD2dFCF4","value":"542000000000000","data":null,"operation":0,"gasToken":"0x0000000000000000000000000000000000000000","safeTxGas":43663,"baseGas":0,"gasPrice":"0","refundReceiver":"0x0000000000000000000000000000000000000000","nonce":58,"executionDate":"2024-05-29T03:42:35Z","submissionDate":"2024-05-28T11:05:52.536362Z","modified":"2024-05-29T03:42:50.280648Z","blockNumber":19972906,"transactionHash":"0x8a7d5a4d574a8da24b5f68e11cb1fca2166dffa805d71df305b2ee4a12b4af07","safeTxHash":"0x3983f5a3be35cba2a02f4ce5dae350d242ea0e699ecf802be44068272c016c1b","proposer":"0x3dd4B4dbe6aEe6F49A65F0C1Ac508DeFF761C195","proposedByDelegate":null,"executor":"0x3dd4B4dbe6aEe6F49A65F0C1Ac508DeFF761C195","isExecuted":true,"isSuccessful":true,"ethGasPrice":"13000000000","maxFeePerGas":"13000000000","maxPriorityFeePerGas":"3156204627","gasUsed":70790,"fee":"920270000000000","origin":"{}","dataDecoded":null,"confirmationsRequired":3,"confirmations":[{"owner":"0x3dd4B4dbe6aEe6F49A65F0C1Ac508DeFF761C195","submissionDate":"2024-05-28T11:05:52.611632Z","transactionHash":null,"signature":"0xc44b3cb00f50ed8b6cef5905448aded09154d5b568d09ca489ae231bca73e3c7110956f7ddba0a2cb1a978557e12eeafb5618aa9ab372bbe36ca6d5598c8f09b20","signatureType":"ETH_SIGN"},{"owner":"0x828424517F9F04015db02169f4026D57B2B07229","submissionDate":"2024-05-29T02:17:06.057540Z","transactionHash":null,"signature":"0x888aad58fcc85a8fc5e21aef56f7e161964da62ccae474012515d782e209f2c0594611b9e41cc35e0dac0e948ea68f3cc1baa5a8061543027f99dad7db404d841c","signatureType":"EOA"},{"owner":"0xe3dF2cCEAc61B1aFA311372ecC5B40A3A6585a9E","submissionDate":"2024-05-29T03:23:57.258923Z","transactionHash":null,"signature":"0xb5f6acd941e716cd69d01e47e82470e0e4ebd76bc761a281bb12e4a4555d7a862dd4d8668488f0afc431cf95fe4cca615bbb477f716c5a0c643c5e26e545c5ae20","signatureType":"ETH_SIGN"}],"trusted":true,"signatures":"0xc44b3cb00f50ed8b6cef5905448aded09154d5b568d09ca489ae231bca73e3c7110956f7ddba0a2cb1a978557e12eeafb5618aa9ab372bbe36ca6d5598c8f09b20888aad58fcc85a8fc5e21aef56f7e161964da62ccae474012515d782e209f2c0594611b9e41cc35e0dac0e948ea68f3cc1baa5a8061543027f99dad7db404d841cb5f6acd941e716cd69d01e47e82470e0e4ebd76bc761a281bb12e4a4555d7a862dd4d8668488f0afc431cf95fe4cca615bbb477f716c5a0c643c5e26e545c5ae20"},{"safe":"0x1Db92e2EeBC8E0c075a02BeA49a2935BcD2dFCF4","to":"0xee5B5B923fFcE93A870B3104b7CA09c3db80047A","value":"30000000000000000000000","data":null,"operation":0,"gasToken":"0x0000000000000000000000000000000000000000","safeTxGas":45745,"baseGas":0,"gasPrice":"0","refundReceiver":"0x0000000000000000000000000000000000000000","nonce":57,"executionDate":"2024-02-22T14:32:59Z","submissionDate":"2024-02-22T12:55:45.579987Z","modified":"2024-02-22T14:33:07.158371Z","blockNumber":19283765,"transactionHash":"0xa72a14a10ad5e00cabd8aa62d8bf088adfc0d6c8f46e1a5fdeebafab9df9b55d","safeTxHash":"0x1e22cb800f9b817135ecd6de4572bc78da48c07494ee4e309c4e80b69f1dec14","proposer":"0x3dd4B4dbe6aEe6F49A65F0C1Ac508DeFF761C195","proposedByDelegate":null,"executor":"0x3dd4B4dbe6aEe6F49A65F0C1Ac508DeFF761C195","isExecuted":true,"isSuccessful":true,"ethGasPrice":"60871857648","maxFeePerGas":null,"maxPriorityFeePerGas":null,"gasUsed":72896,"fee":"4437314935108608","origin":"{}","dataDecoded":null,"confirmationsRequired":3,"confirmations":[{"owner":"0x3dd4B4dbe6aEe6F49A65F0C1Ac508DeFF761C195","submissionDate":"2024-02-22T12:55:45.674944Z","transactionHash":null,"signature":"0xda0f2dc952a810d7a54dd8b75624cb4fd2ed4fad3cee05ec5282159f0af00c0e01df9f3f89fda7e9947cbe96c6f4ae67fbe1b4911231dcc205464b03bf66d5b71f","signatureType":"ETH_SIGN"},{"owner":"0x828424517F9F04015db02169f4026D57B2B07229","submissionDate":"2024-02-22T13:11:22.885640Z","transactionHash":null,"signature":"0x37d5a080031b29c4cb93f76a61c3a356fe5d91bb6e1f26aa78b7e82435a10a99719def6fcd15aca454eb33e0e9e29472caf4ec81987c6688d827f1ac6f8ac8071c","signatureType":"EOA"},{"owner":"0x3Cc3A225769900e003E264dd4CB43E90896BC21A","submissionDate":"2024-02-22T13:17:28.886672Z","transactionHash":null,"signature":"0x6dfb870af6fabde6fcf5e08aa42a48ee63d431b9a0d6b480a86ef68ffb61f3563aac8cf96665f8d0f74e508b4bec43f26f171a814e18ac1063234fa496d49cf520","signatureType":"ETH_SIGN"}],"trusted":true,"signatures":"0x6dfb870af6fabde6fcf5e08aa42a48ee63d431b9a0d6b480a86ef68ffb61f3563aac8cf96665f8d0f74e508b4bec43f26f171a814e18ac1063234fa496d49cf520da0f2dc952a810d7a54dd8b75624cb4fd2ed4fad3cee05ec5282159f0af00c0e01df9f3f89fda7e9947cbe96c6f4ae67fbe1b4911231dcc205464b03bf66d5b71f37d5a080031b29c4cb93f76a61c3a356fe5d91bb6e1f26aa78b7e82435a10a99719def6fcd15aca454eb33e0e9e29472caf4ec81987c6688d827f1ac6f8ac8071c"},{"safe":"0x1Db92e2EeBC8E0c075a02BeA49a2935BcD2dFCF4","to":"0xee5B5B923fFcE93A870B3104b7CA09c3db80047A","value":"60000000000000000000000","data":null,"operation":0,"gasToken":"0x0000000000000000000000000000000000000000","safeTxGas":45745,"baseGas":0,"gasPrice":"0","refundReceiver":"0x0000000000000000000000000000000000000000","nonce":56,"executionDate":"2024-02-13T14:34:59Z","submissionDate":"2024-02-13T10:56:32.144114Z","modified":"2024-02-13T14:35:08.813240Z","blockNumber":19219710,"transactionHash":"0xe16f08021f70fa4085273473525045685750e75576756a60336b10a0cf85221f","safeTxHash":"0x733a0616925880ef80eba1b5f703ec043470a815914579ae788c04b47894423f","proposer":"0x3dd4B4dbe6aEe6F49A65F0C1Ac508DeFF761C195","proposedByDelegate":null,"executor":"0x3dd4B4dbe6aEe6F49A65F0C1Ac508DeFF761C195","isExecuted":true,"isSuccessful":true,"ethGasPrice":"67041019298","maxFeePerGas":null,"maxPriorityFeePerGas":null,"gasUsed":72884,"fee":"4886217650515432","origin":"{}","dataDecoded":null,"confirmationsRequired":3,"confirmations":[{"owner":"0x3dd4B4dbe6aEe6F49A65F0C1Ac508DeFF761C195","submissionDate":"2024-02-13T10:56:32.269512Z","transactionHash":null,"signature":"0xde0cf0ec99b9fc476f2a8b4056ba6dfa8ac87884310c626a4f8fe846dc52fcb0098e8ca7d601604480ccfad005e9c811e43802aa61bf6eb789c799e3358f82c620","signatureType":"ETH_SIGN"},{"owner":"0x828424517F9F04015db02169f4026D57B2B07229","submissionDate":"2024-02-13T13:12:25.282493Z","transactionHash":null,"signature":"0x2a847205ceb535232e81f85697ff8812d855b8f7008304d589427c394f7658bf27bdcd0caaae6df93b66eb4cac034334b974a56ffb6f3764bd9a04e5ae0a97741c","signatureType":"EOA"},{"owner":"0xD367f8322b64F29faF71dDB5c1877dC9ED6EC644","submissionDate":"2024-02-13T14:26:59.650848Z","transactionHash":null,"signature":"0x4645bfbbe80f68a97d5f897ff21824c813a54e79b463bd273d5ab3ffa5b0e89b4351b72453dc4a5c8b5191163142620311b0600f46d5a25af4234ddaed634fca20","signatureType":"ETH_SIGN"}],"trusted":true,"signatures":"0xde0cf0ec99b9fc476f2a8b4056ba6dfa8ac87884310c626a4f8fe846dc52fcb0098e8ca7d601604480ccfad005e9c811e43802aa61bf6eb789c799e3358f82c6202a847205ceb535232e81f85697ff8812d855b8f7008304d589427c394f7658bf27bdcd0caaae6df93b66eb4cac034334b974a56ffb6f3764bd9a04e5ae0a97741c4645bfbbe80f68a97d5f897ff21824c813a54e79b463bd273d5ab3ffa5b0e89b4351b72453dc4a5c8b5191163142620311b0600f46d5a25af4234ddaed634fca20"},{"safe":"0x1Db92e2EeBC8E0c075a02BeA49a2935BcD2dFCF4","to":"0x1Db92e2EeBC8E0c075a02BeA49a2935BcD2dFCF4","value":"0","data":"0xe318b52b000000000000000000000000828424517f9f04015db02169f4026d57b2b07229000000000000000000000000be72691aca605050d1e693a2c2c6a9f3f41dc9390000000000000000000000003cc3a225769900e003e264dd4cb43e90896bc21a","operation":0,"gasToken":"0x0000000000000000000000000000000000000000","safeTxGas":72952,"baseGas":0,"gasPrice":"0","refundReceiver":"0x0000000000000000000000000000000000000000","nonce":55,"executionDate":"2023-08-21T07:26:23Z","submissionDate":"2023-08-19T08:37:13.757368Z","modified":"2023-08-21T07:26:35.754211Z","blockNumber":17961603,"transactionHash":"0xddd7bf90d134932bcb27eabc6d414a7190fe776336f9a608e19ad22693f4752b","safeTxHash":"0x3a325ac2855fc926625d04cd82b844d2cb5180e6875995c860426a87b133ae24","proposer":null,"proposedByDelegate":null,"executor":"0x913b41A348dfB9300a00f01459Ac1B43Ea23d998","isExecuted":true,"isSuccessful":true,"ethGasPrice":"12701219272","maxFeePerGas":"13073833145","maxPriorityFeePerGas":"1500000000","gasUsed":94570,"fee":"1201154306553040","origin":"{}","dataDecoded":{"method":"swapOwner","parameters":[{"name":"prevOwner","type":"address","value":"0x828424517F9F04015db02169f4026D57B2B07229"},{"name":"oldOwner","type":"address","value":"0xBE72691acA605050d1e693a2C2C6A9f3F41dC939"},{"name":"newOwner","type":"address","value":"0x3Cc3A225769900e003E264dd4CB43E90896BC21A"}]},"confirmationsRequired":3,"confirmations":[{"owner":"0x828424517F9F04015db02169f4026D57B2B07229","submissionDate":"2023-08-19T08:37:13.798899Z","transactionHash":null,"signature":"0x646fe59c754016684293d6a58e3c9905db597819fd3e3c811c0e6a1f99b766c70fc0066bc4f411b970a2116ff01dd2c51b86e4443a0eb01c748a881a3a6c932c1c","signatureType":"EOA"},{"owner":"0x3dd4B4dbe6aEe6F49A65F0C1Ac508DeFF761C195","submissionDate":"2023-08-20T03:47:15.074897Z","transactionHash":null,"signature":"0x63cd226a7c5aad34ef4c959315d3e2e5ee6c2e7c8fa52e18aaf45d34dc61be8538955a30fdc735c872f39847e03407fc5f66659abc5a0612bd600d42e9ef26fc1f","signatureType":"ETH_SIGN"},{"owner":"0xe3dF2cCEAc61B1aFA311372ecC5B40A3A6585a9E","submissionDate":"2023-08-21T04:11:01.621928Z","transactionHash":null,"signature":"0x3dd5baadf4e22355c06f1f0b215e79144ef8ce1c82e6d35e0ac1f182433b539b1dae04baa2d065c8661e458a536eba82d188f9043550997712eb0e2dc84ec4621f","signatureType":"ETH_SIGN"}],"trusted":true,"signatures":"0x63cd226a7c5aad34ef4c959315d3e2e5ee6c2e7c8fa52e18aaf45d34dc61be8538955a30fdc735c872f39847e03407fc5f66659abc5a0612bd600d42e9ef26fc1f646fe59c754016684293d6a58e3c9905db597819fd3e3c811c0e6a1f99b766c70fc0066bc4f411b970a2116ff01dd2c51b86e4443a0eb01c748a881a3a6c932c1c3dd5baadf4e22355c06f1f0b215e79144ef8ce1c82e6d35e0ac1f182433b539b1dae04baa2d065c8661e458a536eba82d188f9043550997712eb0e2dc84ec4621f"},{"safe":"0x1Db92e2EeBC8E0c075a02BeA49a2935BcD2dFCF4","to":"0x1Db92e2EeBC8E0c075a02BeA49a2935BcD2dFCF4","value":"0","data":"0x0d582f130000000000000000000000003dd4b4dbe6aee6f49a65f0c1ac508deff761c1950000000000000000000000000000000000000000000000000000000000000003","operation":0,"gasToken":"0x0000000000000000000000000000000000000000","safeTxGas":73486,"baseGas":0,"gasPrice":"0","refundReceiver":"0x0000000000000000000000000000000000000000","nonce":54,"executionDate":"2023-01-28T09:41:47Z","submissionDate":"2023-01-18T16:06:39.038073Z","modified":"2023-01-28T09:41:57.485556Z","blockNumber":16504487,"transactionHash":"0xb4e20008eff6a4ddb79521fabf7df9bfdb5b4018a60d88624fc1887b65a76433","safeTxHash":"0x0261e0492211b64eff379da8ef06472e72ed482b830c8193ca4fcf3e65f01b8b","proposer":null,"proposedByDelegate":null,"executor":"0x828424517F9F04015db02169f4026D57B2B07229","isExecuted":true,"isSuccessful":true,"ethGasPrice":"14134464104","maxFeePerGas":"17000000000","maxPriorityFeePerGas":"1000000000","gasUsed":99302,"fee":"1403580554455408","origin":"{}","dataDecoded":{"method":"addOwnerWithThreshold","parameters":[{"name":"owner","type":"address","value":"0x3dd4B4dbe6aEe6F49A65F0C1Ac508DeFF761C195"},{"name":"_threshold","type":"uint256","value":"3"}]},"confirmationsRequired":3,"confirmations":[{"owner":"0x828424517F9F04015db02169f4026D57B2B07229","submissionDate":"2023-01-18T16:06:39.084577Z","transactionHash":null,"signature":"0x4a14d6ed2366a07b55e4ea46e2dbbccf8f28d49a584bc77465840cd2f24c18ef6defc5c72468a506045df4905bb8e3eb6ef6657dcb3a594153c643b34bd190be1c","signatureType":"EOA"},{"owner":"0xe3dF2cCEAc61B1aFA311372ecC5B40A3A6585a9E","submissionDate":"2023-01-28T02:40:23.185727Z","transactionHash":null,"signature":"0xd5daa4cb0494a14d52e12dc3547817c5ded664d134880a700ea3b7f3843275075aa655d3ee8ea407a935356f8238ad573f7aca934aa998c51e7c46be2e10a7e61f","signatureType":"ETH_SIGN"},{"owner":"0x2cDD560058D5ac32dc416AAa09Eaf93230c0B7B3","submissionDate":"2023-01-28T06:05:50.153247Z","transactionHash":null,"signature":"0x444a4a9381a49b2071e27a5430a98910a56b13d43be0f505d01a05f12f3cfc362299c10bde75c369b008361c19fa16b8b1ac571c0daaefa9e4e7a43fec38ab321f","signatureType":"ETH_SIGN"}],"trusted":true,"signatures":"0x444a4a9381a49b2071e27a5430a98910a56b13d43be0f505d01a05f12f3cfc362299c10bde75c369b008361c19fa16b8b1ac571c0daaefa9e4e7a43fec38ab321f4a14d6ed2366a07b55e4ea46e2dbbccf8f28d49a584bc77465840cd2f24c18ef6defc5c72468a506045df4905bb8e3eb6ef6657dcb3a594153c643b34bd190be1cd5daa4cb0494a14d52e12dc3547817c5ded664d134880a700ea3b7f3843275075aa655d3ee8ea407a935356f8238ad573f7aca934aa998c51e7c46be2e10a7e61f"},{"safe":"0x1Db92e2EeBC8E0c075a02BeA49a2935BcD2dFCF4","to":"0xee5B5B923fFcE93A870B3104b7CA09c3db80047A","value":"20000000000000000000000","data":null,"operation":0,"gasToken":"0x0000000000000000000000000000000000000000","safeTxGas":45745,"baseGas":0,"gasPrice":"0","refundReceiver":"0x0000000000000000000000000000000000000000","nonce":53,"executionDate":"2022-12-18T06:51:59Z","submissionDate":"2022-12-18T06:14:49.593844Z","modified":"2022-12-18T06:52:11.337380Z","blockNumber":16209901,"transactionHash":"0x20ec30829d6315d3728cffb0939f1afa4bbd071bf802efc6c720d91c3f99254a","safeTxHash":"0xe506ed417d0af9d201da4d27b2d09c138e8631fb3911e05c84576567c534afd5","proposer":null,"proposedByDelegate":null,"executor":"0x828424517F9F04015db02169f4026D57B2B07229","isExecuted":true,"isSuccessful":true,"ethGasPrice":"13000000000","maxFeePerGas":"13000000000","maxPriorityFeePerGas":"1500000000","gasUsed":72872,"fee":"947336000000000","origin":"{}","dataDecoded":null,"confirmationsRequired":3,"confirmations":[{"owner":"0x828424517F9F04015db02169f4026D57B2B07229","submissionDate":"2022-12-18T06:14:49.668353Z","transactionHash":null,"signature":"0x78b8b56b9bdb2d3656d4aaceaa8c1def3abc1690a95263337b96fb580498dd7b0fa377c7d0410e5a8b0af1e435d840d9d0171918b4d4d55d87067ebd3a3e21591c","signatureType":"EOA"},{"owner":"0xBE72691acA605050d1e693a2C2C6A9f3F41dC939","submissionDate":"2022-12-18T06:18:02.255264Z","transactionHash":null,"signature":"0x65a2ed76c4d291daa2dcc5ddc00e6b367d6eb7ccd85a3d8c4f6c0ffb9960926f5b50fbdb8eb7b895461263636147dadf3fb7b54ae6e291fd6443d6cfa837d40820","signatureType":"ETH_SIGN"},{"owner":"0x2cDD560058D5ac32dc416AAa09Eaf93230c0B7B3","submissionDate":"2022-12-18T06:46:23.024091Z","transactionHash":null,"signature":"0x7eddbe8267befc4ce35f09f4667cc47d42b6be96344c318b5da9700018bdf0297b8671328da9f443874eb562008756dfdddb0ba51f39f8a9635326d52cd2a2061f","signatureType":"ETH_SIGN"}],"trusted":true,"signatures":"0x7eddbe8267befc4ce35f09f4667cc47d42b6be96344c318b5da9700018bdf0297b8671328da9f443874eb562008756dfdddb0ba51f39f8a9635326d52cd2a2061f78b8b56b9bdb2d3656d4aaceaa8c1def3abc1690a95263337b96fb580498dd7b0fa377c7d0410e5a8b0af1e435d840d9d0171918b4d4d55d87067ebd3a3e21591c65a2ed76c4d291daa2dcc5ddc00e6b367d6eb7ccd85a3d8c4f6c0ffb9960926f5b50fbdb8eb7b895461263636147dadf3fb7b54ae6e291fd6443d6cfa837d40820"},{"safe":"0x1Db92e2EeBC8E0c075a02BeA49a2935BcD2dFCF4","to":"0x1Db92e2EeBC8E0c075a02BeA49a2935BcD2dFCF4","value":"144000000000000","data":null,"operation":0,"gasToken":"0x0000000000000000000000000000000000000000","safeTxGas":43663,"baseGas":0,"gasPrice":"0","refundReceiver":"0x0000000000000000000000000000000000000000","nonce":52,"executionDate":"2022-12-11T12:45:47Z","submissionDate":"2022-12-11T12:37:17.436950Z","modified":"2022-12-13T13:39:49.471205Z","blockNumber":16161554,"transactionHash":"0x1b697de445ee306a87a124cb2ecaad8faed38da1cb08ecceca2a9368924781f8","safeTxHash":"0xbcc0cf27a6d3eab407b3b74f7fb479a0e873b47e9790511665ceb2a08ff90a5e","proposer":null,"proposedByDelegate":null,"executor":"0x828424517F9F04015db02169f4026D57B2B07229","isExecuted":true,"isSuccessful":true,"ethGasPrice":"14643491866","maxFeePerGas":"25714945000","maxPriorityFeePerGas":"2000000000","gasUsed":70754,"fee":"1036085623486964","origin":"{}","dataDecoded":null,"confirmationsRequired":3,"confirmations":[{"owner":"0x828424517F9F04015db02169f4026D57B2B07229","submissionDate":"2022-12-11T12:37:17.483528Z","transactionHash":null,"signature":"0xda923176fa9d4c08fc4dd47b85f96c3fd76b23f1c8908f7b2eb02f0d2da76edb6704533682d4e667ad52e48524a4bec1c41184e1a3873edacece4930cc57eef01b","signatureType":"EOA"},{"owner":"0xe3dF2cCEAc61B1aFA311372ecC5B40A3A6585a9E","submissionDate":"2022-12-11T12:39:18.620149Z","transactionHash":null,"signature":"0x791e7b61956388ce598ecf5287834b1e326d3d713fc597b8139ef2b585e37960535fbce5f2dd4512660d26c48283dea21100990a2cc8d909918fafbee981039a20","signatureType":"ETH_SIGN"},{"owner":"0xD367f8322b64F29faF71dDB5c1877dC9ED6EC644","submissionDate":"2022-12-11T12:40:02.817128Z","transactionHash":null,"signature":"0xd4e907b3e73b2e475bcd21eccc5118a7b2bbfbb7af506fecf634f37a36f3fb0c525a4698f1ca782fe4167fe4d11695d9dbb94e43f52701598e2aaa1138a9cd101f","signatureType":"ETH_SIGN"}],"trusted":true,"signatures":"0xda923176fa9d4c08fc4dd47b85f96c3fd76b23f1c8908f7b2eb02f0d2da76edb6704533682d4e667ad52e48524a4bec1c41184e1a3873edacece4930cc57eef01bd4e907b3e73b2e475bcd21eccc5118a7b2bbfbb7af506fecf634f37a36f3fb0c525a4698f1ca782fe4167fe4d11695d9dbb94e43f52701598e2aaa1138a9cd101f791e7b61956388ce598ecf5287834b1e326d3d713fc597b8139ef2b585e37960535fbce5f2dd4512660d26c48283dea21100990a2cc8d909918fafbee981039a20"},{"safe":"0x1Db92e2EeBC8E0c075a02BeA49a2935BcD2dFCF4","to":"0xee5B5B923fFcE93A870B3104b7CA09c3db80047A","value":"50000000000000000000000","data":null,"operation":0,"gasToken":"0x0000000000000000000000000000000000000000","safeTxGas":45745,"baseGas":0,"gasPrice":"0","refundReceiver":"0x0000000000000000000000000000000000000000","nonce":51,"executionDate":"2022-11-12T05:37:11Z","submissionDate":"2022-11-12T05:20:52.157690Z","modified":"2022-12-13T13:38:12.297790Z","blockNumber":15951887,"transactionHash":"0x46987f0d0b099c59e931187c4e5e4280113008b91d48620701c7cc9712107dfb","safeTxHash":"0x5b49c021470c45dff0abed7d74b3b150658770922e52b01db5245967df735004","proposer":null,"proposedByDelegate":null,"executor":"0x828424517F9F04015db02169f4026D57B2B07229","isExecuted":true,"isSuccessful":true,"ethGasPrice":"17250610680","maxFeePerGas":"21000000000","maxPriorityFeePerGas":"1500000000","gasUsed":72884,"fee":"1257293508801120","origin":"{}","dataDecoded":null,"confirmationsRequired":3,"confirmations":[{"owner":"0x828424517F9F04015db02169f4026D57B2B07229","submissionDate":"2022-11-12T05:20:52.196029Z","transactionHash":null,"signature":"0xfa21a247917697b8c4513ee9dd239fd67aa68a693d6bf1384810a0e51ad86c527d894579b6229f31dee111a2f8c658ffbcb604e876479b1d74704f384104b7b51b","signatureType":"EOA"},{"owner":"0xBE72691acA605050d1e693a2C2C6A9f3F41dC939","submissionDate":"2022-11-12T05:33:38.630032Z","transactionHash":null,"signature":"0x4ed4fbc9063bbe024417b8ec3c5aee21d9b367b63ca85dcbbd9bc149c118cfd509ee2a10c7d1c3a6a983c5654e83377239f91a7aad3eaa9aec641d6e9b3d409620","signatureType":"ETH_SIGN"},{"owner":"0x2cDD560058D5ac32dc416AAa09Eaf93230c0B7B3","submissionDate":"2022-11-12T05:36:01.606710Z","transactionHash":null,"signature":"0x5c0815531d63082d2c975c111ffedc2eac6093c53eab320b07b6193cdbac15ea6821183591f1e9a3909fccacf280098f52e431eb1bbd9887bc599000dede580f1f","signatureType":"ETH_SIGN"}],"trusted":true,"signatures":"0x5c0815531d63082d2c975c111ffedc2eac6093c53eab320b07b6193cdbac15ea6821183591f1e9a3909fccacf280098f52e431eb1bbd9887bc599000dede580f1ffa21a247917697b8c4513ee9dd239fd67aa68a693d6bf1384810a0e51ad86c527d894579b6229f31dee111a2f8c658ffbcb604e876479b1d74704f384104b7b51b4ed4fbc9063bbe024417b8ec3c5aee21d9b367b63ca85dcbbd9bc149c118cfd509ee2a10c7d1c3a6a983c5654e83377239f91a7aad3eaa9aec641d6e9b3d409620"},{"safe":"0x1Db92e2EeBC8E0c075a02BeA49a2935BcD2dFCF4","to":"0xA2af528689E9df84ea482fbB1Ab7685A9CF1e9f9","value":"1200000000000000000000","data":null,"operation":0,"gasToken":"0x0000000000000000000000000000000000000000","safeTxGas":45745,"baseGas":0,"gasPrice":"0","refundReceiver":"0x0000000000000000000000000000000000000000","nonce":50,"executionDate":"2022-10-20T01:48:59Z","submissionDate":"2022-10-17T02:25:34.511302Z","modified":"2022-12-13T13:39:22.393113Z","blockNumber":15786131,"transactionHash":"0x78088d70ea5af6f2474bd435e66da0bc29a5b8c26e3a00d29381b08bd8c870d4","safeTxHash":"0x0f0ca9209684b94773f2f6a430382552f955987bec31f57dd20341f9427bae06","proposer":null,"proposedByDelegate":null,"executor":"0x828424517F9F04015db02169f4026D57B2B07229","isExecuted":true,"isSuccessful":true,"ethGasPrice":"21253273969","maxFeePerGas":"23000000000","maxPriorityFeePerGas":"1500000000","gasUsed":72884,"fee":"1549023619956596","origin":"{}","dataDecoded":null,"confirmationsRequired":3,"confirmations":[{"owner":"0x828424517F9F04015db02169f4026D57B2B07229","submissionDate":"2022-10-17T02:25:34.535637Z","transactionHash":null,"signature":"0x619d45cca0504c6fe9ecb04ad275eaabc6c4f33f0b79782fffb1a7ebbd5c7cad3e6a1124f3692b28ad5eca600946ada343d54579960d541078cb20ceded6ba911c","signatureType":"EOA"},{"owner":"0xe3dF2cCEAc61B1aFA311372ecC5B40A3A6585a9E","submissionDate":"2022-10-17T04:38:10.173771Z","transactionHash":null,"signature":"0xc133dcce2d691ad0baa3dbef4ff6bb117228db06534c7d4970735089c169f3426d3d50d595b8afd3b4b11a3968645494c2da47a2b15284695689322b72e11a3b20","signatureType":"ETH_SIGN"},{"owner":"0xD367f8322b64F29faF71dDB5c1877dC9ED6EC644","submissionDate":"2022-10-19T01:15:28.140733Z","transactionHash":null,"signature":"0x69a732111a42105837bb9c2d12266eba19add1f03dbcccaae2f501316b0239ff765a0845e73b94ca4b0f8b0884edfd18152d974763ef22fda6339b7ddfd6e0f41f","signatureType":"ETH_SIGN"}],"trusted":true,"signatures":"0x619d45cca0504c6fe9ecb04ad275eaabc6c4f33f0b79782fffb1a7ebbd5c7cad3e6a1124f3692b28ad5eca600946ada343d54579960d541078cb20ceded6ba911c69a732111a42105837bb9c2d12266eba19add1f03dbcccaae2f501316b0239ff765a0845e73b94ca4b0f8b0884edfd18152d974763ef22fda6339b7ddfd6e0f41fc133dcce2d691ad0baa3dbef4ff6bb117228db06534c7d4970735089c169f3426d3d50d595b8afd3b4b11a3968645494c2da47a2b15284695689322b72e11a3b20"},{"safe":"0x1Db92e2EeBC8E0c075a02BeA49a2935BcD2dFCF4","to":"0xA2af528689E9df84ea482fbB1Ab7685A9CF1e9f9","value":"10000000000000000000000","data":null,"operation":0,"gasToken":"0x0000000000000000000000000000000000000000","safeTxGas":45745,"baseGas":0,"gasPrice":"0","refundReceiver":"0x0000000000000000000000000000000000000000","nonce":49,"executionDate":"2022-09-20T16:27:59Z","submissionDate":"2022-09-18T05:23:59.684859Z","modified":"2022-12-13T13:37:40.580779Z","blockNumber":15575876,"transactionHash":"0x66f9d7f33124c85bd15a35ccc20d62a4d83c722a6f969bef284ac4062f84d80f","safeTxHash":"0x4b5bc9e9f8c01e83bd3ab953c06bc7b93240c0f91127482b97858a9c3cde86fd","proposer":null,"proposedByDelegate":null,"executor":"0x828424517F9F04015db02169f4026D57B2B07229","isExecuted":true,"isSuccessful":true,"ethGasPrice":"11396666839","maxFeePerGas":"13000000000","maxPriorityFeePerGas":"1500000000","gasUsed":72884,"fee":"830634665893676","origin":"{}","dataDecoded":null,"confirmationsRequired":3,"confirmations":[{"owner":"0x828424517F9F04015db02169f4026D57B2B07229","submissionDate":"2022-09-18T05:23:59.705676Z","transactionHash":null,"signature":"0xf60ff4ed81acb69de1dd1aabf5a39b3639a696a4fa05fcaef1ee558a98f1aa7a3584d60cac4d639844ddd74dd5ae1037b8f55a624a348aedfeb86b54748b63041b","signatureType":"EOA"},{"owner":"0xe3dF2cCEAc61B1aFA311372ecC5B40A3A6585a9E","submissionDate":"2022-09-18T07:11:54.909928Z","transactionHash":null,"signature":"0x85cfaac6c9338174586a163183ab3b2a7fac4d109d89cd8bebf3c7c5b1778e1423520e48f7613f73791e7a8cd6af66bcfa1083a94a50337211b42e38adef1eb81f","signatureType":"ETH_SIGN"},{"owner":"0xBE72691acA605050d1e693a2C2C6A9f3F41dC939","submissionDate":"2022-09-19T01:33:29.320245Z","transactionHash":null,"signature":"0x2009962ce12ae6d3b1ed0ee1f1e613d14766c40076a9d5e55674381b50d23cb77831dc907cb4fc5b3f965fa4eb01c646bc8021c0b2c2c554d833ee52b618620c20","signatureType":"ETH_SIGN"}],"trusted":true,"signatures":"0xf60ff4ed81acb69de1dd1aabf5a39b3639a696a4fa05fcaef1ee558a98f1aa7a3584d60cac4d639844ddd74dd5ae1037b8f55a624a348aedfeb86b54748b63041b2009962ce12ae6d3b1ed0ee1f1e613d14766c40076a9d5e55674381b50d23cb77831dc907cb4fc5b3f965fa4eb01c646bc8021c0b2c2c554d833ee52b618620c2085cfaac6c9338174586a163183ab3b2a7fac4d109d89cd8bebf3c7c5b1778e1423520e48f7613f73791e7a8cd6af66bcfa1083a94a50337211b42e38adef1eb81f"},{"safe":"0x1Db92e2EeBC8E0c075a02BeA49a2935BcD2dFCF4","to":"0x1Db92e2EeBC8E0c075a02BeA49a2935BcD2dFCF4","value":"0","data":null,"operation":0,"gasToken":"0x0000000000000000000000000000000000000000","safeTxGas":0,"baseGas":0,"gasPrice":"0","refundReceiver":"0x0000000000000000000000000000000000000000","nonce":48,"executionDate":"2022-09-20T15:36:47Z","submissionDate":"2022-09-20T15:36:47Z","modified":"2022-12-13T13:38:03.262685Z","blockNumber":15575623,"transactionHash":"0xa9e8e2b93ecc26303771097b51064098e88d573e51496379db093b91a06f6f0a","safeTxHash":"0x0871ad2539bd3abcf35cf0b1e45d93b23c02f42531101c6e48908688ebadd41a","proposer":null,"proposedByDelegate":null,"executor":"0x828424517F9F04015db02169f4026D57B2B07229","isExecuted":true,"isSuccessful":true,"ethGasPrice":"9256604393","maxFeePerGas":"12000000000","maxPriorityFeePerGas":"1500000000","gasUsed":64000,"fee":"592422681152000","origin":"{}","dataDecoded":null,"confirmationsRequired":3,"confirmations":[{"owner":"0xe3dF2cCEAc61B1aFA311372ecC5B40A3A6585a9E","submissionDate":"2022-09-20T15:36:47Z","transactionHash":null,"signature":"0xd65c583d50d49626846d020aac293504dface609809d270842f7a55f1475e85c2b30d861633ab6060df90830000b86e91d97e6c7acff8f8152076379fb31ab8320","signatureType":"ETH_SIGN"},{"owner":"0x828424517F9F04015db02169f4026D57B2B07229","submissionDate":"2022-09-20T15:36:47Z","transactionHash":null,"signature":"0x6ab24792127bb3dd4f7b20937031ecff146d084f3c4eac754dd96cdffd3b4f7330b33a4e71b668980e2a67305fc0e2c6a8b3d4ff7d0ddb20cd9cbf821841ac941b","signatureType":"EOA"},{"owner":"0xBE72691acA605050d1e693a2C2C6A9f3F41dC939","submissionDate":"2022-09-20T15:36:47Z","transactionHash":null,"signature":"0xe8ef49c55c88cf907e51d035081df746fcb840026da6d3a6677176b769080add47537c548db013de53507f22299b77276349c08650ce33b7b1fb5e6e57aad99f20","signatureType":"ETH_SIGN"}],"trusted":true,"signatures":"0x6ab24792127bb3dd4f7b20937031ecff146d084f3c4eac754dd96cdffd3b4f7330b33a4e71b668980e2a67305fc0e2c6a8b3d4ff7d0ddb20cd9cbf821841ac941be8ef49c55c88cf907e51d035081df746fcb840026da6d3a6677176b769080add47537c548db013de53507f22299b77276349c08650ce33b7b1fb5e6e57aad99f20d65c583d50d49626846d020aac293504dface609809d270842f7a55f1475e85c2b30d861633ab6060df90830000b86e91d97e6c7acff8f8152076379fb31ab8320"},{"safe":"0x1Db92e2EeBC8E0c075a02BeA49a2935BcD2dFCF4","to":"0xF5F3436A05B5CEd2490DAE07B86EB5BbD02782aA","value":"20000000000000000000000","data":null,"operation":0,"gasToken":"0x0000000000000000000000000000000000000000","safeTxGas":45745,"baseGas":0,"gasPrice":"0","refundReceiver":"0x0000000000000000000000000000000000000000","nonce":48,"executionDate":null,"submissionDate":"2022-09-15T06:07:31.191999Z","modified":"2022-12-13T13:37:41.523458Z","blockNumber":null,"transactionHash":null,"safeTxHash":"0x3495e8567bad7c78228786a3404da1d322d96a42f52a87c34581aa29ed877749","proposer":null,"proposedByDelegate":null,"executor":null,"isExecuted":false,"isSuccessful":null,"ethGasPrice":null,"maxFeePerGas":null,"maxPriorityFeePerGas":null,"gasUsed":null,"fee":null,"origin":"{}","dataDecoded":null,"confirmationsRequired":3,"confirmations":[{"owner":"0x828424517F9F04015db02169f4026D57B2B07229","submissionDate":"2022-09-15T06:07:31.215378Z","transactionHash":null,"signature":"0xdeccf65f2390ecf956cba393469fa99765668f383070549d27cc2889c90cbc617c37a0f343b2b28e26b61154734f308e0bf458c368f57d19cac73025b4f7ff751b","signatureType":"EOA"},{"owner":"0xe3dF2cCEAc61B1aFA311372ecC5B40A3A6585a9E","submissionDate":"2022-09-15T06:37:07.788548Z","transactionHash":null,"signature":"0xce3139a83d6f64b55abf41ab1c570c7cd6936c0b19d8c03c1207268e448d505406f1161f73510cbd0d65647114dbd8688635ba3d6213b1a5c233b2aaceb478b820","signatureType":"ETH_SIGN"}],"trusted":true,"signatures":null},{"safe":"0x1Db92e2EeBC8E0c075a02BeA49a2935BcD2dFCF4","to":"0xA2af528689E9df84ea482fbB1Ab7685A9CF1e9f9","value":"26000000000000000000000","data":null,"operation":0,"gasToken":"0x0000000000000000000000000000000000000000","safeTxGas":45745,"baseGas":0,"gasPrice":"0","refundReceiver":"0x0000000000000000000000000000000000000000","nonce":47,"executionDate":"2022-07-20T11:38:37Z","submissionDate":"2022-07-20T11:38:37Z","modified":"2022-12-13T13:38:03.260914Z","blockNumber":15179262,"transactionHash":"0x72940b697b062f5d968bacfa0b08f4c2f7401324007fbc5b67d7a6e7b9461e21","safeTxHash":"0x02845ff2b5887e770ca3a8d52e4babad02f26ebe3754d9d71f490dd06f5a1c2a","proposer":null,"proposedByDelegate":null,"executor":"0x3Dc5FcB0Ad5835C6059112e51A75b57DBA668eB8","isExecuted":true,"isSuccessful":true,"ethGasPrice":"11979688852","maxFeePerGas":"21509367690","maxPriorityFeePerGas":"2000000000","gasUsed":72884,"fee":"873127642289168","origin":"{}","dataDecoded":null,"confirmationsRequired":3,"confirmations":[{"owner":"0x2cDD560058D5ac32dc416AAa09Eaf93230c0B7B3","submissionDate":"2022-07-20T11:38:37Z","transactionHash":null,"signature":"0xd670ed54c6f4b076c4d321a8fde15d951b664173bd11ee6908132aded8df1d25254ee00d16563833551e4dbec5fbf05eacf4f8d5d82ffa6ac353c16d7574903a20","signatureType":"ETH_SIGN"},{"owner":"0x828424517F9F04015db02169f4026D57B2B07229","submissionDate":"2022-07-20T11:38:37Z","transactionHash":null,"signature":"0x2129e85375876611e1769b8fb1361c470bae193d1de35edfa7b5f49a09f2799d02ce95edcab09607d37e2e1b3d1dc985b00600e33904cd0e466f8439b0fbe40c1b","signatureType":"EOA"},{"owner":"0xBE72691acA605050d1e693a2C2C6A9f3F41dC939","submissionDate":"2022-07-20T11:38:37Z","transactionHash":null,"signature":"0xc1d6ca463f519f773b4d41d3b8980a9e09b6ad64b44074ee4ac3dca0d89527e3568511b728f7f4ec5c1e063a81cf952f3bf6f164392c6b42ec1758525d897fb820","signatureType":"ETH_SIGN"}],"trusted":true,"signatures":"0xd670ed54c6f4b076c4d321a8fde15d951b664173bd11ee6908132aded8df1d25254ee00d16563833551e4dbec5fbf05eacf4f8d5d82ffa6ac353c16d7574903a202129e85375876611e1769b8fb1361c470bae193d1de35edfa7b5f49a09f2799d02ce95edcab09607d37e2e1b3d1dc985b00600e33904cd0e466f8439b0fbe40c1bc1d6ca463f519f773b4d41d3b8980a9e09b6ad64b44074ee4ac3dca0d89527e3568511b728f7f4ec5c1e063a81cf952f3bf6f164392c6b42ec1758525d897fb820"},{"safe":"0x1Db92e2EeBC8E0c075a02BeA49a2935BcD2dFCF4","to":"0xee5B5B923fFcE93A870B3104b7CA09c3db80047A","value":"40000000000000000000000","data":null,"operation":0,"gasToken":"0x0000000000000000000000000000000000000000","safeTxGas":45745,"baseGas":0,"gasPrice":"0","refundReceiver":"0x0000000000000000000000000000000000000000","nonce":46,"executionDate":"2022-06-28T08:54:02Z","submissionDate":"2022-06-28T08:54:02Z","modified":"2022-12-13T13:38:42.274247Z","blockNumber":15038884,"transactionHash":"0x26546ed155f1e7d7f89c5a973014523a6a42520cc8d4f875c655c91c4f1b1b6a","safeTxHash":"0xbb350a9ad407f8b76d561f1f4a01d8bcc99e185002c1a027abf2894c8d8c3bea","proposer":null,"proposedByDelegate":null,"executor":"0x828424517F9F04015db02169f4026D57B2B07229","isExecuted":true,"isSuccessful":true,"ethGasPrice":"31000000000","maxFeePerGas":"31000000000","maxPriorityFeePerGas":"1500000000","gasUsed":72884,"fee":"2259404000000000","origin":"{}","dataDecoded":null,"confirmationsRequired":3,"confirmations":[{"owner":"0xe3dF2cCEAc61B1aFA311372ecC5B40A3A6585a9E","submissionDate":"2022-06-28T08:54:02Z","transactionHash":null,"signature":"0x04c4febe887c7538fbe8cb2a9866ff3218f10c3279dcc50f85802b04dbd120cb6e8b835806dc8fcce71794c1a415665457b2318d1555980f98ea8250bf40fd8420","signatureType":"ETH_SIGN"},{"owner":"0x828424517F9F04015db02169f4026D57B2B07229","submissionDate":"2022-06-28T08:54:02Z","transactionHash":null,"signature":"0x7227c33a840607bd7f8806931b139e1fb2f772a7069032de064cff6690b807743af0e40a46f595b0fe53fa54ca1daa7df256689aae289f6bee824570de90de231c","signatureType":"EOA"},{"owner":"0xBE72691acA605050d1e693a2C2C6A9f3F41dC939","submissionDate":"2022-06-28T08:54:02Z","transactionHash":null,"signature":"0xa565fb4bbfb2b4b8344c821a21cc40dec242662ca47a0f4909b25ef3d1666a7f08a821ba97edb33b713bd45adc4b06d7674efc4f11b29308bf823b8484123d5520","signatureType":"ETH_SIGN"}],"trusted":true,"signatures":"0x7227c33a840607bd7f8806931b139e1fb2f772a7069032de064cff6690b807743af0e40a46f595b0fe53fa54ca1daa7df256689aae289f6bee824570de90de231ca565fb4bbfb2b4b8344c821a21cc40dec242662ca47a0f4909b25ef3d1666a7f08a821ba97edb33b713bd45adc4b06d7674efc4f11b29308bf823b8484123d552004c4febe887c7538fbe8cb2a9866ff3218f10c3279dcc50f85802b04dbd120cb6e8b835806dc8fcce71794c1a415665457b2318d1555980f98ea8250bf40fd8420"},{"safe":"0x1Db92e2EeBC8E0c075a02BeA49a2935BcD2dFCF4","to":"0xA2af528689E9df84ea482fbB1Ab7685A9CF1e9f9","value":"15000000000000000000000","data":null,"operation":0,"gasToken":"0x0000000000000000000000000000000000000000","safeTxGas":0,"baseGas":0,"gasPrice":"0","refundReceiver":"0x0000000000000000000000000000000000000000","nonce":45,"executionDate":"2022-06-20T01:12:07Z","submissionDate":"2022-06-20T01:12:07Z","modified":"2022-12-13T13:38:42.069103Z","blockNumber":14993825,"transactionHash":"0xe922a8c6472ee5beb0a58d47f6553ec48c46950394d936faee65b1beeb0e1ad9","safeTxHash":"0xecf98319d2d470812f956c6baa3636fdfa81b84a2ff990700bf937e070e5f700","proposer":null,"proposedByDelegate":null,"executor":"0x828424517F9F04015db02169f4026D57B2B07229","isExecuted":true,"isSuccessful":true,"ethGasPrice":"13700003739","maxFeePerGas":"17000000000","maxPriorityFeePerGas":"1500000000","gasUsed":72872,"fee":"998346672468408","origin":"{}","dataDecoded":null,"confirmationsRequired":3,"confirmations":[{"owner":"0xD367f8322b64F29faF71dDB5c1877dC9ED6EC644","submissionDate":"2022-06-20T01:12:07Z","transactionHash":null,"signature":"0xfaac87ca0722a40c372667a7802fc14971e2992a37e36141c133ed45d1f2ca1050e8cd1ce4f7170dcda79a4c4a87a090b6b8f5688830e916564a53ba416b18521f","signatureType":"ETH_SIGN"},{"owner":"0x828424517F9F04015db02169f4026D57B2B07229","submissionDate":"2022-06-20T01:12:07Z","transactionHash":null,"signature":"0x15f646073501e410dcacc220d1af336f14b56a8c6fe271ba900562dad81624903cec3371b553c9376b6b183b37ffd4f692c53dd7e66776282ef4df2d6a2aa8b91c","signatureType":"EOA"},{"owner":"0xBE72691acA605050d1e693a2C2C6A9f3F41dC939","submissionDate":"2022-06-20T01:12:07Z","transactionHash":null,"signature":"0xc3722eb9b404a25dc8fcd404077f0ce286f66a7b0bc02b6f7575db4e2360e146015652d004ef267319c2831ef7c15e61a1fed8f4678503fee69e768471ebe0411f","signatureType":"ETH_SIGN"}],"trusted":true,"signatures":"0x15f646073501e410dcacc220d1af336f14b56a8c6fe271ba900562dad81624903cec3371b553c9376b6b183b37ffd4f692c53dd7e66776282ef4df2d6a2aa8b91cc3722eb9b404a25dc8fcd404077f0ce286f66a7b0bc02b6f7575db4e2360e146015652d004ef267319c2831ef7c15e61a1fed8f4678503fee69e768471ebe0411ffaac87ca0722a40c372667a7802fc14971e2992a37e36141c133ed45d1f2ca1050e8cd1ce4f7170dcda79a4c4a87a090b6b8f5688830e916564a53ba416b18521f"},{"safe":"0x1Db92e2EeBC8E0c075a02BeA49a2935BcD2dFCF4","to":"0xee5B5B923fFcE93A870B3104b7CA09c3db80047A","value":"30000000000000000000000","data":null,"operation":0,"gasToken":"0x0000000000000000000000000000000000000000","safeTxGas":45745,"baseGas":0,"gasPrice":"0","refundReceiver":"0x0000000000000000000000000000000000000000","nonce":44,"executionDate":"2022-05-08T23:26:58Z","submissionDate":"2022-05-08T23:26:58Z","modified":"2022-12-13T13:38:42.065035Z","blockNumber":14738994,"transactionHash":"0x7d98aac9dfb246e822e3a5a3659cce0a383ba48dfc83d4f6d9bc4119b8b9433f","safeTxHash":"0x87b1af7b96e303be52fea3c150b998aa9898d747f07e8b73ebb3f549a22a251e","proposer":null,"proposedByDelegate":null,"executor":"0xA2af528689E9df84ea482fbB1Ab7685A9CF1e9f9","isExecuted":true,"isSuccessful":true,"ethGasPrice":"14564598209","maxFeePerGas":"18642545092","maxPriorityFeePerGas":"2000000000","gasUsed":72896,"fee":"1061700951043264","origin":"{}","dataDecoded":null,"confirmationsRequired":3,"confirmations":[{"owner":"0x2cDD560058D5ac32dc416AAa09Eaf93230c0B7B3","submissionDate":"2022-05-08T23:26:58Z","transactionHash":null,"signature":"0xe028cc06c22872e55ad244cc768e5dee3938760cdd94ca2e92220f1e72d303fe777f633c4959a6410e9ea2c19e677108a5ed9a0e9988f17a29b858b22c2c392c20","signatureType":"ETH_SIGN"},{"owner":"0x828424517F9F04015db02169f4026D57B2B07229","submissionDate":"2022-05-08T23:26:58Z","transactionHash":null,"signature":"0xb9333df257bd70cfaf1b329e2ce489db245c03311577935110a9d9ee52ff8ca37432663675c5bcffd5633f148027fbf4f9ef288a6a0d125b711df3bc544330441c","signatureType":"EOA"},{"owner":"0xe3dF2cCEAc61B1aFA311372ecC5B40A3A6585a9E","submissionDate":"2022-05-08T23:26:58Z","transactionHash":null,"signature":"0x91552a3b1099debb8a60a4b2a5ea1b3b0f45fd70199628b69227fda1e5f94e250953cb468f48d4dbcde5bba6a7c6a95d378e7e7e78cb9caf6075e901f0c3a05520","signatureType":"ETH_SIGN"}],"trusted":true,"signatures":"0xe028cc06c22872e55ad244cc768e5dee3938760cdd94ca2e92220f1e72d303fe777f633c4959a6410e9ea2c19e677108a5ed9a0e9988f17a29b858b22c2c392c20b9333df257bd70cfaf1b329e2ce489db245c03311577935110a9d9ee52ff8ca37432663675c5bcffd5633f148027fbf4f9ef288a6a0d125b711df3bc544330441c91552a3b1099debb8a60a4b2a5ea1b3b0f45fd70199628b69227fda1e5f94e250953cb468f48d4dbcde5bba6a7c6a95d378e7e7e78cb9caf6075e901f0c3a05520"},{"safe":"0x1Db92e2EeBC8E0c075a02BeA49a2935BcD2dFCF4","to":"0xee5B5B923fFcE93A870B3104b7CA09c3db80047A","value":"35000000000000000000000","data":null,"operation":0,"gasToken":"0x0000000000000000000000000000000000000000","safeTxGas":45745,"baseGas":0,"gasPrice":"0","refundReceiver":"0x0000000000000000000000000000000000000000","nonce":43,"executionDate":"2022-03-04T02:29:56Z","submissionDate":"2022-03-04T02:29:56Z","modified":"2022-12-13T13:38:41.727302Z","blockNumber":14317783,"transactionHash":"0x56a3e452badfad38b8af65d4944eb20860126036d4a8f08865474475d4806ca4","safeTxHash":"0x2a253d50ff9a22771f7c07b3fcba4b5a2e493a55efc0094e9f82f16ac67e8ae7","proposer":null,"proposedByDelegate":null,"executor":"0x828424517F9F04015db02169f4026D57B2B07229","isExecuted":true,"isSuccessful":true,"ethGasPrice":"40288526083","maxFeePerGas":null,"maxPriorityFeePerGas":null,"gasUsed":73059,"fee":"2943439427097897","origin":"{}","dataDecoded":null,"confirmationsRequired":3,"confirmations":[{"owner":"0x2cDD560058D5ac32dc416AAa09Eaf93230c0B7B3","submissionDate":"2022-03-04T02:29:56Z","transactionHash":null,"signature":"0xd04a67e143a279d461ce5aee0c4b68f404d50af6b1ddaa6daf80548afedc48d775e95b00a398fc06dd108ef55b187937ac4cdf219e930bc5cf328f53f07ab10920","signatureType":"ETH_SIGN"},{"owner":"0x828424517F9F04015db02169f4026D57B2B07229","submissionDate":"2022-03-04T02:29:56Z","transactionHash":null,"signature":"0xb4b068eeb5d6aec5592222e7bd8da6ae334a57c4b5321a4d42ee064eeba70fc97b8b22771b384dda4dcd59c26b0f4f47863cc678051d8911420d8e2851e7953b1f","signatureType":"ETH_SIGN"},{"owner":"0xBE72691acA605050d1e693a2C2C6A9f3F41dC939","submissionDate":"2022-03-04T02:29:56Z","transactionHash":null,"signature":"0x491672c8660e0411e21c39d368d4d69794a4e80e9eb8450b6c4ab0627095c9c715e5f33cc9777c479a9069325b621be0a19a318719ab336463f05131482342d020","signatureType":"ETH_SIGN"}],"trusted":true,"signatures":"0xd04a67e143a279d461ce5aee0c4b68f404d50af6b1ddaa6daf80548afedc48d775e95b00a398fc06dd108ef55b187937ac4cdf219e930bc5cf328f53f07ab10920b4b068eeb5d6aec5592222e7bd8da6ae334a57c4b5321a4d42ee064eeba70fc97b8b22771b384dda4dcd59c26b0f4f47863cc678051d8911420d8e2851e7953b1f491672c8660e0411e21c39d368d4d69794a4e80e9eb8450b6c4ab0627095c9c715e5f33cc9777c479a9069325b621be0a19a318719ab336463f05131482342d020"},{"safe":"0x1Db92e2EeBC8E0c075a02BeA49a2935BcD2dFCF4","to":"0xee5B5B923fFcE93A870B3104b7CA09c3db80047A","value":"35000000000000000000000","data":null,"operation":0,"gasToken":"0x0000000000000000000000000000000000000000","safeTxGas":45745,"baseGas":0,"gasPrice":"0","refundReceiver":"0x0000000000000000000000000000000000000000","nonce":42,"executionDate":"2022-01-20T16:12:14Z","submissionDate":"2022-01-20T16:12:14Z","modified":"2022-12-13T13:38:41.726351Z","blockNumber":14043455,"transactionHash":"0x230ab2f4d8477e82988e0cc6e0543cc85ddde12e8e22d82f5a89c9de6d1a1c05","safeTxHash":"0x054f45559bce08c62e346aa8eedd47f59b4e4facc642c0933c6dc1452a77c2e4","proposer":null,"proposedByDelegate":null,"executor":"0x828424517F9F04015db02169f4026D57B2B07229","isExecuted":true,"isSuccessful":true,"ethGasPrice":"108592767700","maxFeePerGas":null,"maxPriorityFeePerGas":null,"gasUsed":73071,"fee":"7934982128606700","origin":"{}","dataDecoded":null,"confirmationsRequired":3,"confirmations":[{"owner":"0x2cDD560058D5ac32dc416AAa09Eaf93230c0B7B3","submissionDate":"2022-01-20T16:12:14Z","transactionHash":null,"signature":"0xd5f6b044524bc2b19e5e061741c159abe34ed5d487ebaeaa259d264ede0363254151571b870ea1b74e08eb569b874fb98efc33f5d1646c4a02220e8d577964a520","signatureType":"ETH_SIGN"},{"owner":"0x828424517F9F04015db02169f4026D57B2B07229","submissionDate":"2022-01-20T16:12:14Z","transactionHash":null,"signature":"0x4dafde088d5f2fa02f2f95452a090716a3c54f10c85fde66493c4a06de42afc36db9f455ed59547cb82463f55ad51237db6850b0c472d4cb154d32136070c2da20","signatureType":"ETH_SIGN"},{"owner":"0xBE72691acA605050d1e693a2C2C6A9f3F41dC939","submissionDate":"2022-01-20T16:12:14Z","transactionHash":null,"signature":"0xf3ac43583ecd100cd915c02f20f4bba97016ac1f223805b455ddd3d6cafb386e7f79e96357197798c8df564ec9a82d85b0931ae4c546910b6f9c164a36a8e2b220","signatureType":"ETH_SIGN"}],"trusted":true,"signatures":"0xd5f6b044524bc2b19e5e061741c159abe34ed5d487ebaeaa259d264ede0363254151571b870ea1b74e08eb569b874fb98efc33f5d1646c4a02220e8d577964a5204dafde088d5f2fa02f2f95452a090716a3c54f10c85fde66493c4a06de42afc36db9f455ed59547cb82463f55ad51237db6850b0c472d4cb154d32136070c2da20f3ac43583ecd100cd915c02f20f4bba97016ac1f223805b455ddd3d6cafb386e7f79e96357197798c8df564ec9a82d85b0931ae4c546910b6f9c164a36a8e2b220"},{"safe":"0x1Db92e2EeBC8E0c075a02BeA49a2935BcD2dFCF4","to":"0xee5B5B923fFcE93A870B3104b7CA09c3db80047A","value":"15000000000000000000000","data":null,"operation":0,"gasToken":"0x0000000000000000000000000000000000000000","safeTxGas":45745,"baseGas":0,"gasPrice":"0","refundReceiver":"0x0000000000000000000000000000000000000000","nonce":41,"executionDate":"2021-12-15T10:59:23Z","submissionDate":"2021-12-15T10:59:23Z","modified":"2022-12-13T13:38:41.450660Z","blockNumber":13809318,"transactionHash":"0x706c4c77921fd737e7c24fecf7d18a0fa5e4122d2b94141f3cba906d2ea05a9e","safeTxHash":"0x5ab9e4d0634e5731a6cf3d4c3eb9faed098ddcaa42e2500d20089793eba24f03","proposer":null,"proposedByDelegate":null,"executor":"0x828424517F9F04015db02169f4026D57B2B07229","isExecuted":true,"isSuccessful":true,"ethGasPrice":"63017477086","maxFeePerGas":null,"maxPriorityFeePerGas":null,"gasUsed":73059,"fee":"4603993858426074","origin":"{}","dataDecoded":null,"confirmationsRequired":3,"confirmations":[{"owner":"0xBE72691acA605050d1e693a2C2C6A9f3F41dC939","submissionDate":"2021-12-15T10:59:23Z","transactionHash":null,"signature":"0xc820ec17adba3fe50b7ae438aac686166a296b4c738c914cccec1e22692f563a232e0bbb447acf01fc1bca217983d234851be82a31e527eb2fc40e7803a4c59b1f","signatureType":"ETH_SIGN"},{"owner":"0xD367f8322b64F29faF71dDB5c1877dC9ED6EC644","submissionDate":"2021-12-15T10:59:23Z","transactionHash":null,"signature":"0x067929be8b6bb8b5244f0444970813f4d40e7126d9a064eeabf837066b6a2dd26b6897ceaf49c4d00f6a9a14e2e02930606a7f12eadbde6c8fd606d240ae36c91f","signatureType":"ETH_SIGN"},{"owner":"0x828424517F9F04015db02169f4026D57B2B07229","submissionDate":"2021-12-15T10:59:23Z","transactionHash":null,"signature":"0x77bbd93c59d23ede121818b332cd7905d220e27adf1a4643346d458fc39bd76533d7419f737815007477d91068d7523769f161c0c87f0f272579f8f43f45b41620","signatureType":"ETH_SIGN"}],"trusted":true,"signatures":"0x77bbd93c59d23ede121818b332cd7905d220e27adf1a4643346d458fc39bd76533d7419f737815007477d91068d7523769f161c0c87f0f272579f8f43f45b41620c820ec17adba3fe50b7ae438aac686166a296b4c738c914cccec1e22692f563a232e0bbb447acf01fc1bca217983d234851be82a31e527eb2fc40e7803a4c59b1f067929be8b6bb8b5244f0444970813f4d40e7126d9a064eeabf837066b6a2dd26b6897ceaf49c4d00f6a9a14e2e02930606a7f12eadbde6c8fd606d240ae36c91f"},{"safe":"0x1Db92e2EeBC8E0c075a02BeA49a2935BcD2dFCF4","to":"0x828424517F9F04015db02169f4026D57B2B07229","value":"9000000000000000000000","data":null,"operation":0,"gasToken":"0x0000000000000000000000000000000000000000","safeTxGas":45745,"baseGas":0,"gasPrice":"0","refundReceiver":"0x0000000000000000000000000000000000000000","nonce":40,"executionDate":"2021-12-05T07:28:39Z","submissionDate":"2021-12-05T07:28:39Z","modified":"2022-12-13T13:38:40.986143Z","blockNumber":13744768,"transactionHash":"0x0ff447749f34aa2ffdd35998b37ff1ae8c2a05527b82eb80d241a151869d8012","safeTxHash":"0xf9477a3b79daa9d7c1d5569e99e8668f5f399723bed83c764c9085a87f78a516","proposer":null,"proposedByDelegate":null,"executor":"0x828424517F9F04015db02169f4026D57B2B07229","isExecuted":true,"isSuccessful":true,"ethGasPrice":"87017790335","maxFeePerGas":null,"maxPriorityFeePerGas":null,"gasUsed":70571,"fee":"6140932481731285","origin":"{}","dataDecoded":null,"confirmationsRequired":3,"confirmations":[{"owner":"0xBE72691acA605050d1e693a2C2C6A9f3F41dC939","submissionDate":"2021-12-05T07:28:39Z","transactionHash":null,"signature":"0x0d323f88df8e4dbacb7e40bcbcf4b50f1f95e4ae2f5baa2e4e09976cacc8ba5877082993edac45c9a15ed369826b13eef99e0b5561a1a2d39cdc63d57bcd210b1f","signatureType":"ETH_SIGN"},{"owner":"0x828424517F9F04015db02169f4026D57B2B07229","submissionDate":"2021-12-05T07:28:39Z","transactionHash":null,"signature":"0x9af26af5c6a77ed102e5d6dcb04e84d813dd076d1c36359926de9b643aa6bec920453c9f0ed3430eb76e09d2239080a7e442b7b7597bf9cd47c2e48b7b8377fc20","signatureType":"ETH_SIGN"},{"owner":"0xe3dF2cCEAc61B1aFA311372ecC5B40A3A6585a9E","submissionDate":"2021-12-05T07:28:39Z","transactionHash":null,"signature":"0xcbc99c10d584a47b755ecfbd05bbf916aec8971ac4637170f670992231c56e215234c7bddd6ec288966e649e1d8fe002f51318d606c7967a100d1ac3aa19ebe71f","signatureType":"ETH_SIGN"}],"trusted":true,"signatures":"0x9af26af5c6a77ed102e5d6dcb04e84d813dd076d1c36359926de9b643aa6bec920453c9f0ed3430eb76e09d2239080a7e442b7b7597bf9cd47c2e48b7b8377fc200d323f88df8e4dbacb7e40bcbcf4b50f1f95e4ae2f5baa2e4e09976cacc8ba5877082993edac45c9a15ed369826b13eef99e0b5561a1a2d39cdc63d57bcd210b1fcbc99c10d584a47b755ecfbd05bbf916aec8971ac4637170f670992231c56e215234c7bddd6ec288966e649e1d8fe002f51318d606c7967a100d1ac3aa19ebe71f"},{"safe":"0x1Db92e2EeBC8E0c075a02BeA49a2935BcD2dFCF4","to":"0xee5B5B923fFcE93A870B3104b7CA09c3db80047A","value":"25000000000000000000000","data":null,"operation":0,"gasToken":"0x0000000000000000000000000000000000000000","safeTxGas":45745,"baseGas":0,"gasPrice":"0","refundReceiver":"0x0000000000000000000000000000000000000000","nonce":39,"executionDate":"2021-12-05T07:26:07Z","submissionDate":"2021-12-05T07:26:07Z","modified":"2022-12-13T13:38:40.985166Z","blockNumber":13744756,"transactionHash":"0x15e9ef81d1c070113711e8f2425e55bae943ad11f60bf09e0782269a63170232","safeTxHash":"0xd99fabf9f4f8731c82f3d41d8cc3108f6ea6dbf3d6bbbfb275375c637d1961bb","proposer":null,"proposedByDelegate":null,"executor":"0x828424517F9F04015db02169f4026D57B2B07229","isExecuted":true,"isSuccessful":true,"ethGasPrice":"89545537001","maxFeePerGas":null,"maxPriorityFeePerGas":null,"gasUsed":73071,"fee":"6543181934200071","origin":"{}","dataDecoded":null,"confirmationsRequired":3,"confirmations":[{"owner":"0xe3dF2cCEAc61B1aFA311372ecC5B40A3A6585a9E","submissionDate":"2021-12-05T07:26:07Z","transactionHash":null,"signature":"0xc8d4b35247522aa552bd46588a190e0366bbac049743f83b5e922903a9d5a3084b2ba75a7978d4c9e253bfbc5a4e67d6ad96160b3e7375f83cc1d5de7f0c091820","signatureType":"ETH_SIGN"},{"owner":"0xBE72691acA605050d1e693a2C2C6A9f3F41dC939","submissionDate":"2021-12-05T07:26:07Z","transactionHash":null,"signature":"0xbc981373e5c98980b7dddde0d1a92ae8fa5913b33737294df561bc0fa5feeefa514d4058884eedc843cf6e68ad86b18769f6db7c7db70dcb965490547fc851f21f","signatureType":"ETH_SIGN"},{"owner":"0x828424517F9F04015db02169f4026D57B2B07229","submissionDate":"2021-12-05T07:26:07Z","transactionHash":null,"signature":"0x4ace5d11c6155a0ff0c31fccf116107952218cbbb1dbf114057196780b3199d47d3b7ee430974894e4180ca2423f7e8ea46ed1ca673905c68186fa920670cb451f","signatureType":"ETH_SIGN"}],"trusted":true,"signatures":"0x4ace5d11c6155a0ff0c31fccf116107952218cbbb1dbf114057196780b3199d47d3b7ee430974894e4180ca2423f7e8ea46ed1ca673905c68186fa920670cb451fbc981373e5c98980b7dddde0d1a92ae8fa5913b33737294df561bc0fa5feeefa514d4058884eedc843cf6e68ad86b18769f6db7c7db70dcb965490547fc851f21fc8d4b35247522aa552bd46588a190e0366bbac049743f83b5e922903a9d5a3084b2ba75a7978d4c9e253bfbc5a4e67d6ad96160b3e7375f83cc1d5de7f0c091820"},{"safe":"0x1Db92e2EeBC8E0c075a02BeA49a2935BcD2dFCF4","to":"0xee5B5B923fFcE93A870B3104b7CA09c3db80047A","value":"20000000000000000000000","data":null,"operation":0,"gasToken":"0x0000000000000000000000000000000000000000","safeTxGas":45745,"baseGas":0,"gasPrice":"0","refundReceiver":"0x0000000000000000000000000000000000000000","nonce":38,"executionDate":"2021-11-23T08:10:51Z","submissionDate":"2021-11-23T08:10:51Z","modified":"2022-12-13T13:38:40.984168Z","blockNumber":13669728,"transactionHash":"0x721feb80389a6d65a121c9e1a33ebff99ec93b789bb0501303c7c02f7d394b65","safeTxHash":"0xebcd28aaab28af0c33deff063f3cc78d6b492907bcd279ea85393c5496c8e9c3","proposer":null,"proposedByDelegate":null,"executor":"0x828424517F9F04015db02169f4026D57B2B07229","isExecuted":true,"isSuccessful":true,"ethGasPrice":"76541818106","maxFeePerGas":null,"maxPriorityFeePerGas":null,"gasUsed":73059,"fee":"5592068689006254","origin":"{}","dataDecoded":null,"confirmationsRequired":3,"confirmations":[{"owner":"0xD367f8322b64F29faF71dDB5c1877dC9ED6EC644","submissionDate":"2021-11-23T08:10:51Z","transactionHash":null,"signature":"0xf3f748e0cecacc7b833ce6b9d2cc0e1fb7bf1e701889bcfbc35d0a126d256ab73fb4e9ff7176e3f363b3caefd876b376de6669f91a5a9e1a04716ee6e599b4c620","signatureType":"ETH_SIGN"},{"owner":"0xBE72691acA605050d1e693a2C2C6A9f3F41dC939","submissionDate":"2021-11-23T08:10:51Z","transactionHash":null,"signature":"0xf564d3a28714f9524bf1504adbdf339d2e5d399fe1bb6d96779e33623703b05f006b725d3021f8d1bb95832d4e69f476eff30f6f8a26e5877a298309880b60dd20","signatureType":"ETH_SIGN"},{"owner":"0x828424517F9F04015db02169f4026D57B2B07229","submissionDate":"2021-11-23T08:10:51Z","transactionHash":null,"signature":"0x3b1254f49394df09d4cb5f3453592c5a435731798990f5e9460683f55e4248aa5865c50cdd8a36d6c8f858aae39510413d6d188d50c74ee52d612e35b151bf5d1f","signatureType":"ETH_SIGN"}],"trusted":true,"signatures":"0x3b1254f49394df09d4cb5f3453592c5a435731798990f5e9460683f55e4248aa5865c50cdd8a36d6c8f858aae39510413d6d188d50c74ee52d612e35b151bf5d1ff564d3a28714f9524bf1504adbdf339d2e5d399fe1bb6d96779e33623703b05f006b725d3021f8d1bb95832d4e69f476eff30f6f8a26e5877a298309880b60dd20f3f748e0cecacc7b833ce6b9d2cc0e1fb7bf1e701889bcfbc35d0a126d256ab73fb4e9ff7176e3f363b3caefd876b376de6669f91a5a9e1a04716ee6e599b4c620"},{"safe":"0x1Db92e2EeBC8E0c075a02BeA49a2935BcD2dFCF4","to":"0xee5B5B923fFcE93A870B3104b7CA09c3db80047A","value":"15000000000000000000000","data":null,"operation":0,"gasToken":"0x0000000000000000000000000000000000000000","safeTxGas":45745,"baseGas":0,"gasPrice":"0","refundReceiver":"0x0000000000000000000000000000000000000000","nonce":37,"executionDate":"2021-11-14T03:30:05Z","submissionDate":"2021-11-14T03:30:05Z","modified":"2022-12-13T13:38:40.815936Z","blockNumber":13611615,"transactionHash":"0x794310418c8d4f1b34d76d29bcc97639dc148d2185ca467bc35d7272ebea9674","safeTxHash":"0x7442a5d5bea220184956c56e84d175b855fcdc17c08c41b55ecc79dabe25881f","proposer":null,"proposedByDelegate":null,"executor":"0x828424517F9F04015db02169f4026D57B2B07229","isExecuted":true,"isSuccessful":true,"ethGasPrice":"102920092951","maxFeePerGas":null,"maxPriorityFeePerGas":null,"gasUsed":73047,"fee":"7518004029791697","origin":"{}","dataDecoded":null,"confirmationsRequired":3,"confirmations":[{"owner":"0xe3dF2cCEAc61B1aFA311372ecC5B40A3A6585a9E","submissionDate":"2021-11-14T03:30:05Z","transactionHash":null,"signature":"0x70b503a344c100c62ca20f32e3725130f7ac6c3cc6c72764909f5fb57306bcea03c23008870cd3d060e8f4cd4691a6437374db4d576e5d4adcdde8a1f2c25b121f","signatureType":"ETH_SIGN"},{"owner":"0x828424517F9F04015db02169f4026D57B2B07229","submissionDate":"2021-11-14T03:30:05Z","transactionHash":null,"signature":"0xbf4c159a8866e0b876be60694e3d463e4658956a3c6e022dba3d75d1497e54eb1ac320dbe9748a14da7da1cae12227f4199bf449534b8cf6642d1df6718f4fc71f","signatureType":"ETH_SIGN"},{"owner":"0xBE72691acA605050d1e693a2C2C6A9f3F41dC939","submissionDate":"2021-11-14T03:30:05Z","transactionHash":null,"signature":"0x560a803e6e2cd230833ef54a1388a0d9cce93114d8a100a72da631ac4ef37b1501f1e8bd51ee7a179a7b445fe9efe7632a7ea2e7b01d2fc4688b2870925a0f6320","signatureType":"ETH_SIGN"}],"trusted":true,"signatures":"0xbf4c159a8866e0b876be60694e3d463e4658956a3c6e022dba3d75d1497e54eb1ac320dbe9748a14da7da1cae12227f4199bf449534b8cf6642d1df6718f4fc71f560a803e6e2cd230833ef54a1388a0d9cce93114d8a100a72da631ac4ef37b1501f1e8bd51ee7a179a7b445fe9efe7632a7ea2e7b01d2fc4688b2870925a0f632070b503a344c100c62ca20f32e3725130f7ac6c3cc6c72764909f5fb57306bcea03c23008870cd3d060e8f4cd4691a6437374db4d576e5d4adcdde8a1f2c25b121f"},{"safe":"0x1Db92e2EeBC8E0c075a02BeA49a2935BcD2dFCF4","to":"0x828424517F9F04015db02169f4026D57B2B07229","value":"10000000000000000000000","data":null,"operation":0,"gasToken":"0x0000000000000000000000000000000000000000","safeTxGas":45745,"baseGas":0,"gasPrice":"0","refundReceiver":"0x0000000000000000000000000000000000000000","nonce":36,"executionDate":"2021-11-13T06:22:05Z","submissionDate":"2021-11-13T06:22:05Z","modified":"2022-12-13T13:38:40.814983Z","blockNumber":13606082,"transactionHash":"0x9fbe80f42159807c29c192a2fee18239c54fff039341a8b102ca3de4fd018701","safeTxHash":"0xab669375ef96626e980aef72eb56cb71fe0431b13ee1531c406341bcf6b53138","proposer":null,"proposedByDelegate":null,"executor":"0x2cDD560058D5ac32dc416AAa09Eaf93230c0B7B3","isExecuted":true,"isSuccessful":true,"ethGasPrice":"97800511974","maxFeePerGas":null,"maxPriorityFeePerGas":null,"gasUsed":69137,"fee":"6761633996346438","origin":"{}","dataDecoded":null,"confirmationsRequired":3,"confirmations":[{"owner":"0x828424517F9F04015db02169f4026D57B2B07229","submissionDate":"2021-11-13T06:22:05Z","transactionHash":null,"signature":"0x524c32c1bac49b6d367fd81a894e83f96c0a39b91953cc5a3bb558bc524659ac33fe869118e0bc8c2b3704c6449c1728820daa9149d2e795326f7fd230188e4e1f","signatureType":"ETH_SIGN"},{"owner":"0x2cDD560058D5ac32dc416AAa09Eaf93230c0B7B3","submissionDate":"2021-11-13T06:22:05Z","transactionHash":null,"signature":"0x0000000000000000000000002cdd560058d5ac32dc416aaa09eaf93230c0b7b3000000000000000000000000000000000000000000000000000000000000000001","signatureType":"APPROVED_HASH"},{"owner":"0xBE72691acA605050d1e693a2C2C6A9f3F41dC939","submissionDate":"2021-11-13T06:22:05Z","transactionHash":null,"signature":"0x782cdd4dd51a9fddde603d2ee126e130816c40feab0b15fb686530f9ae685013459593ca24406c116a32e5a7ff50a03d5b1f075e7a10374242e24b38e295c7f71f","signatureType":"ETH_SIGN"}],"trusted":true,"signatures":"0x0000000000000000000000002cdd560058d5ac32dc416aaa09eaf93230c0b7b3000000000000000000000000000000000000000000000000000000000000000001524c32c1bac49b6d367fd81a894e83f96c0a39b91953cc5a3bb558bc524659ac33fe869118e0bc8c2b3704c6449c1728820daa9149d2e795326f7fd230188e4e1f782cdd4dd51a9fddde603d2ee126e130816c40feab0b15fb686530f9ae685013459593ca24406c116a32e5a7ff50a03d5b1f075e7a10374242e24b38e295c7f71f"},{"safe":"0x1Db92e2EeBC8E0c075a02BeA49a2935BcD2dFCF4","to":"0xee5B5B923fFcE93A870B3104b7CA09c3db80047A","value":"20000000000000000000000","data":null,"operation":0,"gasToken":"0x0000000000000000000000000000000000000000","safeTxGas":45745,"baseGas":0,"gasPrice":"0","refundReceiver":"0x0000000000000000000000000000000000000000","nonce":35,"executionDate":"2021-11-07T05:24:22Z","submissionDate":"2021-11-07T05:24:22Z","modified":"2022-12-13T13:38:40.538926Z","blockNumber":13567533,"transactionHash":"0x27cb4b366ebfbd5c6f5f63160a5824d5346afac123022afbb5ac0ac159a6003d","safeTxHash":"0xfef7092ade8d6d3458fe65cbe980f6d411697a6fc6b21f30f05b32320459d0b0","proposer":null,"proposedByDelegate":null,"executor":"0x828424517F9F04015db02169f4026D57B2B07229","isExecuted":true,"isSuccessful":true,"ethGasPrice":"72984848810","maxFeePerGas":null,"maxPriorityFeePerGas":null,"gasUsed":73071,"fee":"5333075887395510","origin":"{}","dataDecoded":null,"confirmationsRequired":3,"confirmations":[{"owner":"0xD367f8322b64F29faF71dDB5c1877dC9ED6EC644","submissionDate":"2021-11-07T05:24:22Z","transactionHash":null,"signature":"0xff172e8bbb931fea02cab7606d63cdd7d4ae49dc0fad87efb98ba7d18361c072217ad3815f3867e74c23d8a9203ea82bb7a8d4968e9a364f845b6e2d2f6e14221f","signatureType":"ETH_SIGN"},{"owner":"0x828424517F9F04015db02169f4026D57B2B07229","submissionDate":"2021-11-07T05:24:22Z","transactionHash":null,"signature":"0x0b66458ed7145d5281f1bf82c0895ec71ef7e9423f328d25b24ed9bba25c41bd26cfac357a2c6c73caffcdbd7b2b66685ca47ba0ef669a3abd58f2d22bf10f691f","signatureType":"ETH_SIGN"},{"owner":"0xBE72691acA605050d1e693a2C2C6A9f3F41dC939","submissionDate":"2021-11-07T05:24:22Z","transactionHash":null,"signature":"0xb64380b461d49fcc0e939d91398a8cd2d9ac6390de2215f4d09a4a23c014dcc572458989bb9295f87981e871f61537a2c55eb61677d8a9c50c52849bc355c8f31f","signatureType":"ETH_SIGN"}],"trusted":true,"signatures":"0x0b66458ed7145d5281f1bf82c0895ec71ef7e9423f328d25b24ed9bba25c41bd26cfac357a2c6c73caffcdbd7b2b66685ca47ba0ef669a3abd58f2d22bf10f691fb64380b461d49fcc0e939d91398a8cd2d9ac6390de2215f4d09a4a23c014dcc572458989bb9295f87981e871f61537a2c55eb61677d8a9c50c52849bc355c8f31fff172e8bbb931fea02cab7606d63cdd7d4ae49dc0fad87efb98ba7d18361c072217ad3815f3867e74c23d8a9203ea82bb7a8d4968e9a364f845b6e2d2f6e14221f"},{"safe":"0x1Db92e2EeBC8E0c075a02BeA49a2935BcD2dFCF4","to":"0x1Db92e2EeBC8E0c075a02BeA49a2935BcD2dFCF4","value":"0","data":"0x0d582f13000000000000000000000000828424517f9f04015db02169f4026d57b2b072290000000000000000000000000000000000000000000000000000000000000003","operation":0,"gasToken":"0x0000000000000000000000000000000000000000","safeTxGas":73486,"baseGas":0,"gasPrice":"0","refundReceiver":"0x0000000000000000000000000000000000000000","nonce":34,"executionDate":"2021-10-29T14:55:20Z","submissionDate":"2021-10-29T14:55:20Z","modified":"2022-12-13T13:38:40.531348Z","blockNumber":13512704,"transactionHash":"0xcd45e217049cf9ce1a3fd87aae3e4fecf63c8f3c31396a9ddd3e641ceef159f0","safeTxHash":"0x1370eba423a2b68298ff31688030587a990894cd397dc316a6416aad6cd46300","proposer":null,"proposedByDelegate":null,"executor":"0x2cDD560058D5ac32dc416AAa09Eaf93230c0B7B3","isExecuted":true,"isSuccessful":true,"ethGasPrice":"198000000000","maxFeePerGas":null,"maxPriorityFeePerGas":null,"gasUsed":95530,"fee":"18914940000000000","origin":"{}","dataDecoded":{"method":"addOwnerWithThreshold","parameters":[{"name":"owner","type":"address","value":"0x828424517F9F04015db02169f4026D57B2B07229"},{"name":"_threshold","type":"uint256","value":"3"}]},"confirmationsRequired":3,"confirmations":[{"owner":"0x2cDD560058D5ac32dc416AAa09Eaf93230c0B7B3","submissionDate":"2021-10-29T14:55:20Z","transactionHash":null,"signature":"0x0000000000000000000000002cdd560058d5ac32dc416aaa09eaf93230c0b7b3000000000000000000000000000000000000000000000000000000000000000001","signatureType":"APPROVED_HASH"},{"owner":"0xBE72691acA605050d1e693a2C2C6A9f3F41dC939","submissionDate":"2021-10-29T14:55:20Z","transactionHash":null,"signature":"0xab444628b5ceecc8bdc83734a3c83e09bac793699f06208a4d13837dec302a5c57bdb5c7af293cf5bc40ad1a7b486b99e82e9d05afad5662e15f2eb1497d9ed91f","signatureType":"ETH_SIGN"},{"owner":"0xe3dF2cCEAc61B1aFA311372ecC5B40A3A6585a9E","submissionDate":"2021-10-29T14:55:20Z","transactionHash":null,"signature":"0x6bc538e83d03ba1daedccb58ee810cf59a7ffaa2cd12aa7aeb1074ae5086f45207072c01e2ca4213331e6103e8b0a41300643415b25357ce20d867a7e651313120","signatureType":"ETH_SIGN"}],"trusted":true,"signatures":"0x0000000000000000000000002cdd560058d5ac32dc416aaa09eaf93230c0b7b3000000000000000000000000000000000000000000000000000000000000000001ab444628b5ceecc8bdc83734a3c83e09bac793699f06208a4d13837dec302a5c57bdb5c7af293cf5bc40ad1a7b486b99e82e9d05afad5662e15f2eb1497d9ed91f6bc538e83d03ba1daedccb58ee810cf59a7ffaa2cd12aa7aeb1074ae5086f45207072c01e2ca4213331e6103e8b0a41300643415b25357ce20d867a7e651313120"},{"safe":"0x1Db92e2EeBC8E0c075a02BeA49a2935BcD2dFCF4","to":"0xee5B5B923fFcE93A870B3104b7CA09c3db80047A","value":"20000000000000000000000","data":null,"operation":0,"gasToken":"0x0000000000000000000000000000000000000000","safeTxGas":45745,"baseGas":0,"gasPrice":"0","refundReceiver":"0x0000000000000000000000000000000000000000","nonce":33,"executionDate":"2021-10-23T16:47:29Z","submissionDate":"2021-10-23T16:47:29Z","modified":"2022-12-13T13:38:40.537930Z","blockNumber":13474948,"transactionHash":"0xd412d5f01a77fa6f2ac6696500bcf77da5b9cd945202317d73e40138074626e0","safeTxHash":"0x92cb02ac6a9959d42259413c19df9dae769438e0b23b32cd92a9b35446d19744","proposer":null,"proposedByDelegate":null,"executor":"0x2cDD560058D5ac32dc416AAa09Eaf93230c0B7B3","isExecuted":true,"isSuccessful":true,"ethGasPrice":"63000000000","maxFeePerGas":null,"maxPriorityFeePerGas":null,"gasUsed":69137,"fee":"4355631000000000","origin":"{}","dataDecoded":null,"confirmationsRequired":3,"confirmations":[{"owner":"0xe3dF2cCEAc61B1aFA311372ecC5B40A3A6585a9E","submissionDate":"2021-10-23T16:47:29Z","transactionHash":null,"signature":"0x8bddf7c9eccc12fb7318d7c8efc1c9308687a7da8c6c76be457ebb50055ed99d09aec861ee924c3144a9a13b01687142db52c07b29edd6c29c1e2084bfc9b5ac1f","signatureType":"ETH_SIGN"},{"owner":"0x2cDD560058D5ac32dc416AAa09Eaf93230c0B7B3","submissionDate":"2021-10-23T16:47:29Z","transactionHash":null,"signature":"0x0000000000000000000000002cdd560058d5ac32dc416aaa09eaf93230c0b7b3000000000000000000000000000000000000000000000000000000000000000001","signatureType":"APPROVED_HASH"},{"owner":"0xBE72691acA605050d1e693a2C2C6A9f3F41dC939","submissionDate":"2021-10-23T16:47:29Z","transactionHash":null,"signature":"0xf5edbd6377e2631bfcb57360a2592a45abf3617558bc896b2735640846d6edf51e1d9e0990af2c1866014e43f943cc9c9f4221dad51e2bf4e722502fda64e68120","signatureType":"ETH_SIGN"}],"trusted":true,"signatures":"0x0000000000000000000000002cdd560058d5ac32dc416aaa09eaf93230c0b7b3000000000000000000000000000000000000000000000000000000000000000001f5edbd6377e2631bfcb57360a2592a45abf3617558bc896b2735640846d6edf51e1d9e0990af2c1866014e43f943cc9c9f4221dad51e2bf4e722502fda64e681208bddf7c9eccc12fb7318d7c8efc1c9308687a7da8c6c76be457ebb50055ed99d09aec861ee924c3144a9a13b01687142db52c07b29edd6c29c1e2084bfc9b5ac1f"},{"safe":"0x1Db92e2EeBC8E0c075a02BeA49a2935BcD2dFCF4","to":"0x828424517F9F04015db02169f4026D57B2B07229","value":"20000000000000000000000","data":null,"operation":0,"gasToken":"0x0000000000000000000000000000000000000000","safeTxGas":45745,"baseGas":0,"gasPrice":"0","refundReceiver":"0x0000000000000000000000000000000000000000","nonce":32,"executionDate":"2021-10-03T08:45:18Z","submissionDate":"2021-10-03T08:45:18Z","modified":"2022-12-13T13:38:40.408698Z","blockNumber":13345193,"transactionHash":"0x0b67ae9f5a7569d0c4dd89e9789121a5f59e3686c4d5763d7eb32d70d4aba922","safeTxHash":"0x9ce04791683d88fc42b160352892a03127b1bcb16c04453a661f6f772f69d5eb","proposer":null,"proposedByDelegate":null,"executor":"0xBE72691acA605050d1e693a2C2C6A9f3F41dC939","isExecuted":true,"isSuccessful":true,"ethGasPrice":"52000000000","maxFeePerGas":null,"maxPriorityFeePerGas":null,"gasUsed":73047,"fee":"3798444000000000","origin":"{}","dataDecoded":null,"confirmationsRequired":3,"confirmations":[{"owner":"0xD367f8322b64F29faF71dDB5c1877dC9ED6EC644","submissionDate":"2021-10-03T08:45:18Z","transactionHash":null,"signature":"0xcb9f3bd67a60d25bf510c89a76f1cc943e20487786811878ee6c9b0ec42f2bd048adf65ab8520395e76a6ca5f3f43c34bcee9d4c8abec0df826702c59d3487eb20","signatureType":"ETH_SIGN"},{"owner":"0x2cDD560058D5ac32dc416AAa09Eaf93230c0B7B3","submissionDate":"2021-10-03T08:45:18Z","transactionHash":null,"signature":"0xce36920e1242aca5d6739b0a4307e016646a092e46b7345856a6135677e0745855f505e5dcd7d6be52912252accc0d540f9226add2c4c239151a13ee2f8bc3341f","signatureType":"ETH_SIGN"},{"owner":"0xBE72691acA605050d1e693a2C2C6A9f3F41dC939","submissionDate":"2021-10-03T08:45:18Z","transactionHash":null,"signature":"0x3c9109035beec0bccb54edc431882077f0a27482c10ca78834d4c42a5007bbc170c36ad73f7dba251a19e3b04028008bcd1f0ce35bbc277c7aba718020003e601f","signatureType":"ETH_SIGN"}],"trusted":true,"signatures":"0xce36920e1242aca5d6739b0a4307e016646a092e46b7345856a6135677e0745855f505e5dcd7d6be52912252accc0d540f9226add2c4c239151a13ee2f8bc3341f3c9109035beec0bccb54edc431882077f0a27482c10ca78834d4c42a5007bbc170c36ad73f7dba251a19e3b04028008bcd1f0ce35bbc277c7aba718020003e601fcb9f3bd67a60d25bf510c89a76f1cc943e20487786811878ee6c9b0ec42f2bd048adf65ab8520395e76a6ca5f3f43c34bcee9d4c8abec0df826702c59d3487eb20"},{"safe":"0x1Db92e2EeBC8E0c075a02BeA49a2935BcD2dFCF4","to":"0xee5B5B923fFcE93A870B3104b7CA09c3db80047A","value":"25000000000000000000000","data":null,"operation":0,"gasToken":"0x0000000000000000000000000000000000000000","safeTxGas":45745,"baseGas":0,"gasPrice":"0","refundReceiver":"0x0000000000000000000000000000000000000000","nonce":31,"executionDate":"2021-10-03T01:42:47Z","submissionDate":"2021-10-03T01:42:47Z","modified":"2022-12-13T13:38:40.407727Z","blockNumber":13343403,"transactionHash":"0x2ac55d804e1073c7fdf307a39480cbc48f8c2ffb63e17c3625d6cd25ec81a312","safeTxHash":"0x01f2bb98d48b7064258e6c8b7fc74de60182e0953b94644532eed908a8bee66e","proposer":null,"proposedByDelegate":null,"executor":"0x2cDD560058D5ac32dc416AAa09Eaf93230c0B7B3","isExecuted":true,"isSuccessful":true,"ethGasPrice":"56000000000","maxFeePerGas":null,"maxPriorityFeePerGas":null,"gasUsed":69137,"fee":"3871672000000000","origin":"{}","dataDecoded":null,"confirmationsRequired":3,"confirmations":[{"owner":"0xBE72691acA605050d1e693a2C2C6A9f3F41dC939","submissionDate":"2021-10-03T01:42:47Z","transactionHash":null,"signature":"0xd4a1d671115f22acb323f60acdc2ff956b4256f6539944a9647434294d4fc5a92941f898404e66907bba09c29eb251d08672f27213adb7b92af0de60a0888a6520","signatureType":"ETH_SIGN"},{"owner":"0xD367f8322b64F29faF71dDB5c1877dC9ED6EC644","submissionDate":"2021-10-03T01:42:47Z","transactionHash":null,"signature":"0xe55a1d6959aa48c92d20a124c92cb597f93a6a0f6e86c9674282b31728051e1f01528fcea9abc48876d98d20b1eeccd4597bde7da55520222b10222a4098e5bf20","signatureType":"ETH_SIGN"},{"owner":"0x2cDD560058D5ac32dc416AAa09Eaf93230c0B7B3","submissionDate":"2021-10-03T01:42:47Z","transactionHash":null,"signature":"0x0000000000000000000000002cdd560058d5ac32dc416aaa09eaf93230c0b7b3000000000000000000000000000000000000000000000000000000000000000001","signatureType":"APPROVED_HASH"}],"trusted":true,"signatures":"0x0000000000000000000000002cdd560058d5ac32dc416aaa09eaf93230c0b7b3000000000000000000000000000000000000000000000000000000000000000001d4a1d671115f22acb323f60acdc2ff956b4256f6539944a9647434294d4fc5a92941f898404e66907bba09c29eb251d08672f27213adb7b92af0de60a0888a6520e55a1d6959aa48c92d20a124c92cb597f93a6a0f6e86c9674282b31728051e1f01528fcea9abc48876d98d20b1eeccd4597bde7da55520222b10222a4098e5bf20"},{"safe":"0x1Db92e2EeBC8E0c075a02BeA49a2935BcD2dFCF4","to":"0xee5B5B923fFcE93A870B3104b7CA09c3db80047A","value":"25000000000000000000000","data":null,"operation":0,"gasToken":"0x0000000000000000000000000000000000000000","safeTxGas":45745,"baseGas":0,"gasPrice":"0","refundReceiver":"0x0000000000000000000000000000000000000000","nonce":30,"executionDate":"2021-09-24T23:56:59Z","submissionDate":"2021-09-24T23:56:59Z","modified":"2022-12-13T13:38:40.240501Z","blockNumber":13291539,"transactionHash":"0x6078f7472c748925c9ea09cfe128cf2d114db1afffac767a775b2f04ab66435a","safeTxHash":"0x75fbad8db3d2d64b6be644bca73cfa7c8aa9fedb52cf5110d9899ae8896e92ea","proposer":null,"proposedByDelegate":null,"executor":"0xBE72691acA605050d1e693a2C2C6A9f3F41dC939","isExecuted":true,"isSuccessful":true,"ethGasPrice":"55000000000","maxFeePerGas":null,"maxPriorityFeePerGas":null,"gasUsed":73059,"fee":"4018245000000000","origin":"{}","dataDecoded":null,"confirmationsRequired":3,"confirmations":[{"owner":"0xBE72691acA605050d1e693a2C2C6A9f3F41dC939","submissionDate":"2021-09-24T23:56:59Z","transactionHash":null,"signature":"0x216b87b283de512c83f52134855ec93c9c8f2cfe9f2b0330e6599f237aee3dcc44289b25bddcca7d0db60057d88a83777254ba171eec51bb32a84751abec24e420","signatureType":"ETH_SIGN"},{"owner":"0xe3dF2cCEAc61B1aFA311372ecC5B40A3A6585a9E","submissionDate":"2021-09-24T23:56:59Z","transactionHash":null,"signature":"0xb8d4623069653cd59134146bb887ae738d9cb9970b30df16d4b8446b51cd1591114770ecccf206bfb8fee3ecdb16aa05c8131aeb8174c9cab4b56ae341a28a4720","signatureType":"ETH_SIGN"},{"owner":"0xD367f8322b64F29faF71dDB5c1877dC9ED6EC644","submissionDate":"2021-09-24T23:56:59Z","transactionHash":null,"signature":"0x3b73bcd23bb6044950605c0c1347c44969ce750f40fb787f52f5e554cb0732b7586f5036069186ce48e405b30af395f229187c28f87b164a517fb4a7444e0f601f","signatureType":"ETH_SIGN"}],"trusted":true,"signatures":"0x216b87b283de512c83f52134855ec93c9c8f2cfe9f2b0330e6599f237aee3dcc44289b25bddcca7d0db60057d88a83777254ba171eec51bb32a84751abec24e4203b73bcd23bb6044950605c0c1347c44969ce750f40fb787f52f5e554cb0732b7586f5036069186ce48e405b30af395f229187c28f87b164a517fb4a7444e0f601fb8d4623069653cd59134146bb887ae738d9cb9970b30df16d4b8446b51cd1591114770ecccf206bfb8fee3ecdb16aa05c8131aeb8174c9cab4b56ae341a28a4720"},{"safe":"0x1Db92e2EeBC8E0c075a02BeA49a2935BcD2dFCF4","to":"0x828424517F9F04015db02169f4026D57B2B07229","value":"10000000000000000000000","data":null,"operation":0,"gasToken":"0x0000000000000000000000000000000000000000","safeTxGas":45745,"baseGas":0,"gasPrice":"0","refundReceiver":"0x0000000000000000000000000000000000000000","nonce":29,"executionDate":"2021-09-18T14:45:04Z","submissionDate":"2021-09-18T14:45:04Z","modified":"2022-12-13T13:38:40.236750Z","blockNumber":13250267,"transactionHash":"0xd0e2a7855c7f266ed1f7ac4231289f37056643917fc4a892b487a8f60da08f6a","safeTxHash":"0x501c8b9de7c2ba42256e82e9df55b357a514c9ee7a66b30092719737e90e366a","proposer":null,"proposedByDelegate":null,"executor":"0xBE72691acA605050d1e693a2C2C6A9f3F41dC939","isExecuted":true,"isSuccessful":true,"ethGasPrice":"50000000000","maxFeePerGas":null,"maxPriorityFeePerGas":null,"gasUsed":73047,"fee":"3652350000000000","origin":"{}","dataDecoded":null,"confirmationsRequired":3,"confirmations":[{"owner":"0xD367f8322b64F29faF71dDB5c1877dC9ED6EC644","submissionDate":"2021-09-18T14:45:04Z","transactionHash":null,"signature":"0xe287a3a25b44726f0470afa8c07db60e39b2c987f62b6b7c59b1a9439e7de4444df9994a352d55173758ec03058e6b7ac81cf27da265166f27bc9ed918690e101f","signatureType":"ETH_SIGN"},{"owner":"0xe3dF2cCEAc61B1aFA311372ecC5B40A3A6585a9E","submissionDate":"2021-09-18T14:45:04Z","transactionHash":null,"signature":"0x2fb4cf29be9c2a5d1340247d27962198b69dabcde337221844d3dba910212f741879e4abcce94789bfef8a4a5242629fec13ee6c41aad343fee903f456f767ad20","signatureType":"ETH_SIGN"},{"owner":"0xBE72691acA605050d1e693a2C2C6A9f3F41dC939","submissionDate":"2021-09-18T14:45:04Z","transactionHash":null,"signature":"0xde20df2581baa2cc7596135cc70fa5bb4ae52a9a7251ec36f768f3a40b114b9302485b9e8a018c8c281eb82edccbf5c18919e8d60087f300aaeebb2f8976ec131f","signatureType":"ETH_SIGN"}],"trusted":true,"signatures":"0xde20df2581baa2cc7596135cc70fa5bb4ae52a9a7251ec36f768f3a40b114b9302485b9e8a018c8c281eb82edccbf5c18919e8d60087f300aaeebb2f8976ec131fe287a3a25b44726f0470afa8c07db60e39b2c987f62b6b7c59b1a9439e7de4444df9994a352d55173758ec03058e6b7ac81cf27da265166f27bc9ed918690e101f2fb4cf29be9c2a5d1340247d27962198b69dabcde337221844d3dba910212f741879e4abcce94789bfef8a4a5242629fec13ee6c41aad343fee903f456f767ad20"},{"safe":"0x1Db92e2EeBC8E0c075a02BeA49a2935BcD2dFCF4","to":"0xee5B5B923fFcE93A870B3104b7CA09c3db80047A","value":"25000000000000000000000","data":null,"operation":0,"gasToken":"0x0000000000000000000000000000000000000000","safeTxGas":45745,"baseGas":0,"gasPrice":"0","refundReceiver":"0x0000000000000000000000000000000000000000","nonce":28,"executionDate":"2021-09-11T07:55:22Z","submissionDate":"2021-09-11T07:55:22Z","modified":"2022-12-13T13:38:40.066305Z","blockNumber":13203238,"transactionHash":"0xbe965c45e9dab24f8d9dcfb19a236a41ce66da94caed35d949234b7b0b13143f","safeTxHash":"0x72679a323c56aa6b86c2a09c9ed4d989a9c82005762eb0871ea5ae456a7b491a","proposer":null,"proposedByDelegate":null,"executor":"0xBE72691acA605050d1e693a2C2C6A9f3F41dC939","isExecuted":true,"isSuccessful":true,"ethGasPrice":"60000000000","maxFeePerGas":null,"maxPriorityFeePerGas":null,"gasUsed":73071,"fee":"4384260000000000","origin":"{}","dataDecoded":null,"confirmationsRequired":3,"confirmations":[{"owner":"0xD367f8322b64F29faF71dDB5c1877dC9ED6EC644","submissionDate":"2021-09-11T07:55:22Z","transactionHash":null,"signature":"0x115df4cac033e42c3819ba577d4324f7721d21ce9d86794ad0a02326958546fe21911bf2de4d7fe5b76c62b915c3185b6b2b04b472bded1997ab41d17854d23e1f","signatureType":"ETH_SIGN"},{"owner":"0xe3dF2cCEAc61B1aFA311372ecC5B40A3A6585a9E","submissionDate":"2021-09-11T07:55:22Z","transactionHash":null,"signature":"0x0f4483eedfab1f74f0f4db56767290370a7bc3a964337e82a1b1be8eded00b99145f9b85241f6b3ef57d55103b9fe75f60731b5fa361405a2d72c949fa03a7de20","signatureType":"ETH_SIGN"},{"owner":"0xBE72691acA605050d1e693a2C2C6A9f3F41dC939","submissionDate":"2021-09-11T07:55:22Z","transactionHash":null,"signature":"0x247ef5aa9a4cd8e6475a27de363135569d9fcb87b79f1c2dfa43577ee434817a3204e13d25ee22e80766ec2c5e99646d2fb7c7cb719b5d0ad6b56871f722736a20","signatureType":"ETH_SIGN"}],"trusted":true,"signatures":"0x247ef5aa9a4cd8e6475a27de363135569d9fcb87b79f1c2dfa43577ee434817a3204e13d25ee22e80766ec2c5e99646d2fb7c7cb719b5d0ad6b56871f722736a20115df4cac033e42c3819ba577d4324f7721d21ce9d86794ad0a02326958546fe21911bf2de4d7fe5b76c62b915c3185b6b2b04b472bded1997ab41d17854d23e1f0f4483eedfab1f74f0f4db56767290370a7bc3a964337e82a1b1be8eded00b99145f9b85241f6b3ef57d55103b9fe75f60731b5fa361405a2d72c949fa03a7de20"},{"safe":"0x1Db92e2EeBC8E0c075a02BeA49a2935BcD2dFCF4","to":"0x828424517F9F04015db02169f4026D57B2B07229","value":"20000000000000000000000","data":null,"operation":0,"gasToken":"0x0000000000000000000000000000000000000000","safeTxGas":45745,"baseGas":0,"gasPrice":"0","refundReceiver":"0x0000000000000000000000000000000000000000","nonce":27,"executionDate":"2021-09-10T23:42:34Z","submissionDate":"2021-09-10T23:42:34Z","modified":"2022-12-13T13:38:40.070044Z","blockNumber":13201069,"transactionHash":"0x04b9916af082aac6db7421de5ccdeda2900e4f188247b3d5c95396e711f9d9f7","safeTxHash":"0x8171392b4c58f1a4f09bb6f1334cfc008b7d30e809f56e5deb8fb6bc9e2c43a6","proposer":null,"proposedByDelegate":null,"executor":"0xBE72691acA605050d1e693a2C2C6A9f3F41dC939","isExecuted":true,"isSuccessful":true,"ethGasPrice":"76000000000","maxFeePerGas":null,"maxPriorityFeePerGas":null,"gasUsed":73059,"fee":"5552484000000000","origin":"{}","dataDecoded":null,"confirmationsRequired":3,"confirmations":[{"owner":"0xBE72691acA605050d1e693a2C2C6A9f3F41dC939","submissionDate":"2021-09-10T23:42:34Z","transactionHash":null,"signature":"0x190f195fee4d8be6be1ccf5fe1ff84fee955388237cdf3a05f774307a4e8647a4488633cd94145b0765729aeec129a0b300f0f85e8e9a4cfe62cbae100a1ab6120","signatureType":"ETH_SIGN"},{"owner":"0xe3dF2cCEAc61B1aFA311372ecC5B40A3A6585a9E","submissionDate":"2021-09-10T23:42:34Z","transactionHash":null,"signature":"0x1223200a165dba1311341d19c8fce1f50f86673cf6b491b1a183546e5e84ac906a729c8f865f5731e86a3d9d2213131efd7a7a4445ef9ed9c56fdf3521ec31e820","signatureType":"ETH_SIGN"},{"owner":"0xD367f8322b64F29faF71dDB5c1877dC9ED6EC644","submissionDate":"2021-09-10T23:42:34Z","transactionHash":null,"signature":"0x025a80f89b5b6d01bcc71001e257073803326689c48ec342575aeb0a0dfa25034fbb4b7420361bc549744ed30499eea7b412b64ce34580de22862e1985c83cda20","signatureType":"ETH_SIGN"}],"trusted":true,"signatures":"0x190f195fee4d8be6be1ccf5fe1ff84fee955388237cdf3a05f774307a4e8647a4488633cd94145b0765729aeec129a0b300f0f85e8e9a4cfe62cbae100a1ab6120025a80f89b5b6d01bcc71001e257073803326689c48ec342575aeb0a0dfa25034fbb4b7420361bc549744ed30499eea7b412b64ce34580de22862e1985c83cda201223200a165dba1311341d19c8fce1f50f86673cf6b491b1a183546e5e84ac906a729c8f865f5731e86a3d9d2213131efd7a7a4445ef9ed9c56fdf3521ec31e820"},{"safe":"0x1Db92e2EeBC8E0c075a02BeA49a2935BcD2dFCF4","to":"0x828424517F9F04015db02169f4026D57B2B07229","value":"8000000000000000000000","data":null,"operation":0,"gasToken":"0x0000000000000000000000000000000000000000","safeTxGas":45745,"baseGas":0,"gasPrice":"0","refundReceiver":"0x0000000000000000000000000000000000000000","nonce":26,"executionDate":"2021-08-25T00:23:04Z","submissionDate":"2021-08-25T00:23:04Z","modified":"2022-12-13T13:38:40.069147Z","blockNumber":13091281,"transactionHash":"0xe88997f2b481a5637930c416a9301e14b5be974c591a4c441dddcb15050ae078","safeTxHash":"0xa819f66ef62dabcf211d020479b952fd4c17a579c99ebb5a275ab6ee8fa6e3d6","proposer":null,"proposedByDelegate":null,"executor":"0xBE72691acA605050d1e693a2C2C6A9f3F41dC939","isExecuted":true,"isSuccessful":true,"ethGasPrice":"74000000000","maxFeePerGas":null,"maxPriorityFeePerGas":null,"gasUsed":73023,"fee":"5403702000000000","origin":"{}","dataDecoded":null,"confirmationsRequired":3,"confirmations":[{"owner":"0xBE72691acA605050d1e693a2C2C6A9f3F41dC939","submissionDate":"2021-08-25T00:23:04Z","transactionHash":null,"signature":"0x12000071ec37f351ba2f36c8ff50806d173c89d0ad0eb1fed6bf21f1ac83fc716f486f2ca2ed511ada0992a28fea8d2d461c02d267c7be60701e6326394f62ea1f","signatureType":"ETH_SIGN"},{"owner":"0x2cDD560058D5ac32dc416AAa09Eaf93230c0B7B3","submissionDate":"2021-08-25T00:23:04Z","transactionHash":null,"signature":"0xcc750797f6a35157f08109ac55d76a4a6ce00ab59e166cf92dfacc5a38cf1e8e51cc7ad9affe0c987696b8d1da0b0f6d00d606e13a9be5b444a9ad71047b1b6020","signatureType":"ETH_SIGN"},{"owner":"0xe3dF2cCEAc61B1aFA311372ecC5B40A3A6585a9E","submissionDate":"2021-08-25T00:23:04Z","transactionHash":null,"signature":"0x52d724384bbdf3a6a90dd5a88030ece63330960f658ecc2698e29b5b946ad56f23e9c63f68fdef271149b4522c294d061429bd5e5c7645a6de7aa088d139a98d20","signatureType":"ETH_SIGN"}],"trusted":true,"signatures":"0xcc750797f6a35157f08109ac55d76a4a6ce00ab59e166cf92dfacc5a38cf1e8e51cc7ad9affe0c987696b8d1da0b0f6d00d606e13a9be5b444a9ad71047b1b602012000071ec37f351ba2f36c8ff50806d173c89d0ad0eb1fed6bf21f1ac83fc716f486f2ca2ed511ada0992a28fea8d2d461c02d267c7be60701e6326394f62ea1f52d724384bbdf3a6a90dd5a88030ece63330960f658ecc2698e29b5b946ad56f23e9c63f68fdef271149b4522c294d061429bd5e5c7645a6de7aa088d139a98d20"},{"safe":"0x1Db92e2EeBC8E0c075a02BeA49a2935BcD2dFCF4","to":"0xee5B5B923fFcE93A870B3104b7CA09c3db80047A","value":"20000000000000000000000","data":null,"operation":0,"gasToken":"0x0000000000000000000000000000000000000000","safeTxGas":45745,"baseGas":0,"gasPrice":"0","refundReceiver":"0x0000000000000000000000000000000000000000","nonce":25,"executionDate":"2021-08-25T00:20:36Z","submissionDate":"2021-08-25T00:20:36Z","modified":"2022-12-13T13:38:39.815794Z","blockNumber":13091270,"transactionHash":"0x2649a5c8f7d4891a35eca0d27104dd68cab7ab7fb64c3663c852500605675ec8","safeTxHash":"0x3d444e9eb727f59ca7b43b8218fd499baf8b83ff29e12888a53859021adaa7f5","proposer":null,"proposedByDelegate":null,"executor":"0xBE72691acA605050d1e693a2C2C6A9f3F41dC939","isExecuted":true,"isSuccessful":true,"ethGasPrice":"73000000000","maxFeePerGas":null,"maxPriorityFeePerGas":null,"gasUsed":73071,"fee":"5334183000000000","origin":"{}","dataDecoded":null,"confirmationsRequired":3,"confirmations":[{"owner":"0x2cDD560058D5ac32dc416AAa09Eaf93230c0B7B3","submissionDate":"2021-08-25T00:20:36Z","transactionHash":null,"signature":"0xb6e2498f1f059eb2606a497246aaa948382a3db6737a57f448f594b5d1f1621278696ccce56b3cc79039f60393c04dd130493655c907304c0458d703653d33891f","signatureType":"ETH_SIGN"},{"owner":"0xe3dF2cCEAc61B1aFA311372ecC5B40A3A6585a9E","submissionDate":"2021-08-25T00:20:36Z","transactionHash":null,"signature":"0x9c337a89afebea424e8db2fe433979c0d07eb4189e6d0ad75ffb38c6262a307b0fd0ee5fbe4bc9e07740c05caff1e6a32c5f9abda71b9c4cf657c6be5b335c6c20","signatureType":"ETH_SIGN"},{"owner":"0xBE72691acA605050d1e693a2C2C6A9f3F41dC939","submissionDate":"2021-08-25T00:20:36Z","transactionHash":null,"signature":"0x60dc61d10635cf9f11352146d4a78465ad3cf1bfd845cd3221c38acf4a92c3600811b2bd5020e6a0b7bb6c8b06ec07909579b9e0de3b7e847de80a85aa48e6ca20","signatureType":"ETH_SIGN"}],"trusted":true,"signatures":"0xb6e2498f1f059eb2606a497246aaa948382a3db6737a57f448f594b5d1f1621278696ccce56b3cc79039f60393c04dd130493655c907304c0458d703653d33891f60dc61d10635cf9f11352146d4a78465ad3cf1bfd845cd3221c38acf4a92c3600811b2bd5020e6a0b7bb6c8b06ec07909579b9e0de3b7e847de80a85aa48e6ca209c337a89afebea424e8db2fe433979c0d07eb4189e6d0ad75ffb38c6262a307b0fd0ee5fbe4bc9e07740c05caff1e6a32c5f9abda71b9c4cf657c6be5b335c6c20"},{"safe":"0x1Db92e2EeBC8E0c075a02BeA49a2935BcD2dFCF4","to":"0xee5B5B923fFcE93A870B3104b7CA09c3db80047A","value":"25000000000000000000000","data":null,"operation":0,"gasToken":"0x0000000000000000000000000000000000000000","safeTxGas":16797,"baseGas":0,"gasPrice":"0","refundReceiver":"0x0000000000000000000000000000000000000000","nonce":24,"executionDate":"2021-08-14T02:34:23Z","submissionDate":"2021-08-14T02:34:23Z","modified":"2022-12-13T13:38:39.812957Z","blockNumber":13020658,"transactionHash":"0x0764d00d49b1ead2f5a9221d709ed6038aa204062644cfc1bee4fe59cd9884a7","safeTxHash":"0xb19c32decda550ebf95ec9d98e54b6c2cb08ae1269257d8e9635aef5efdcae00","proposer":null,"proposedByDelegate":null,"executor":"0xBE72691acA605050d1e693a2C2C6A9f3F41dC939","isExecuted":true,"isSuccessful":true,"ethGasPrice":"40000000000","maxFeePerGas":null,"maxPriorityFeePerGas":null,"gasUsed":73071,"fee":"2922840000000000","origin":"{}","dataDecoded":null,"confirmationsRequired":3,"confirmations":[{"owner":"0xBE72691acA605050d1e693a2C2C6A9f3F41dC939","submissionDate":"2021-08-14T02:34:23Z","transactionHash":null,"signature":"0x2020e193862b5d537a6b63d887695ab4e4cdea59aeb291fa494e84229270b575053e0437d95b66ec4b622fbdcda0381fdd4a83b19190788d9a3422e544e831201f","signatureType":"ETH_SIGN"},{"owner":"0xe3dF2cCEAc61B1aFA311372ecC5B40A3A6585a9E","submissionDate":"2021-08-14T02:34:23Z","transactionHash":null,"signature":"0xff01f00ed7718798f31303560ff4efbdbdff856c1786b8f1c5b7d66283c468d83fdb06b6e6e3dcd95a49f948518c7595150118c79ac31dd619bf87d68d39e95e1f","signatureType":"ETH_SIGN"},{"owner":"0xD367f8322b64F29faF71dDB5c1877dC9ED6EC644","submissionDate":"2021-08-14T02:34:23Z","transactionHash":null,"signature":"0x7857c84ac118d0108d2741753723945c6949a854d933469805b17d50df399b0406525434d64caadccacb0429827617ed89bd33b1600f6abafdb4254948e9087a20","signatureType":"ETH_SIGN"}],"trusted":true,"signatures":"0x2020e193862b5d537a6b63d887695ab4e4cdea59aeb291fa494e84229270b575053e0437d95b66ec4b622fbdcda0381fdd4a83b19190788d9a3422e544e831201f7857c84ac118d0108d2741753723945c6949a854d933469805b17d50df399b0406525434d64caadccacb0429827617ed89bd33b1600f6abafdb4254948e9087a20ff01f00ed7718798f31303560ff4efbdbdff856c1786b8f1c5b7d66283c468d83fdb06b6e6e3dcd95a49f948518c7595150118c79ac31dd619bf87d68d39e95e1f"},{"safe":"0x1Db92e2EeBC8E0c075a02BeA49a2935BcD2dFCF4","to":"0x828424517F9F04015db02169f4026D57B2B07229","value":"10000000000000000000000","data":null,"operation":0,"gasToken":"0x0000000000000000000000000000000000000000","safeTxGas":16797,"baseGas":0,"gasPrice":"0","refundReceiver":"0x0000000000000000000000000000000000000000","nonce":23,"executionDate":"2021-08-14T02:34:09Z","submissionDate":"2021-08-14T02:34:09Z","modified":"2022-12-13T13:38:39.814839Z","blockNumber":13020656,"transactionHash":"0x8a52ffc044de165590308b6481f276f603456524a10a2eccd8c6fe3d62fd0b5c","safeTxHash":"0xd3b442cbc40ffcde56568a0fbb98f32e1977d24b08cf138298bee6cdcc1d92de","proposer":null,"proposedByDelegate":null,"executor":"0xBE72691acA605050d1e693a2C2C6A9f3F41dC939","isExecuted":true,"isSuccessful":true,"ethGasPrice":"40000000000","maxFeePerGas":null,"maxPriorityFeePerGas":null,"gasUsed":73023,"fee":"2920920000000000","origin":"{}","dataDecoded":null,"confirmationsRequired":3,"confirmations":[{"owner":"0xBE72691acA605050d1e693a2C2C6A9f3F41dC939","submissionDate":"2021-08-14T02:34:09Z","transactionHash":null,"signature":"0xcaef256b57c8fb1c4207c586f1fa7509abaeaa6ebd3a009f7fb851ee20b9c35e216f3b0a9e2b36f441f9e7c41c35bbd7ced5b7cbbd07b71ea3377ccc2394e6be20","signatureType":"ETH_SIGN"},{"owner":"0xD367f8322b64F29faF71dDB5c1877dC9ED6EC644","submissionDate":"2021-08-14T02:34:09Z","transactionHash":null,"signature":"0xff1b0ac5be5f3930b9846515a99c210f96a8fa136b636b28951d563a9551aedc0e3b6daeb3047b00f0632200c4e67fd2f269b486daba61e133c90c9843df08611f","signatureType":"ETH_SIGN"},{"owner":"0xe3dF2cCEAc61B1aFA311372ecC5B40A3A6585a9E","submissionDate":"2021-08-14T02:34:09Z","transactionHash":null,"signature":"0x8d410268c12b0dbc00b986d63281c484b89ef2ed9f49e5bbf27fabd24236f0a86b6cdcf3f2813019ce7ffad98d36a01da0b645c847d3f02f33a75e7572dd960f20","signatureType":"ETH_SIGN"}],"trusted":true,"signatures":"0xcaef256b57c8fb1c4207c586f1fa7509abaeaa6ebd3a009f7fb851ee20b9c35e216f3b0a9e2b36f441f9e7c41c35bbd7ced5b7cbbd07b71ea3377ccc2394e6be20ff1b0ac5be5f3930b9846515a99c210f96a8fa136b636b28951d563a9551aedc0e3b6daeb3047b00f0632200c4e67fd2f269b486daba61e133c90c9843df08611f8d410268c12b0dbc00b986d63281c484b89ef2ed9f49e5bbf27fabd24236f0a86b6cdcf3f2813019ce7ffad98d36a01da0b645c847d3f02f33a75e7572dd960f20"},{"safe":"0x1Db92e2EeBC8E0c075a02BeA49a2935BcD2dFCF4","to":"0xA2af528689E9df84ea482fbB1Ab7685A9CF1e9f9","value":"15000000000000000000000","data":null,"operation":0,"gasToken":"0x0000000000000000000000000000000000000000","safeTxGas":16797,"baseGas":0,"gasPrice":"0","refundReceiver":"0x0000000000000000000000000000000000000000","nonce":22,"executionDate":"2021-07-30T17:21:32Z","submissionDate":"2021-07-30T17:21:32Z","modified":"2022-12-13T13:38:39.568301Z","blockNumber":12928289,"transactionHash":"0xa480d849da0596b84d1933ec56f68fd6c8567f6e7fdf3fb76d5936ab4188efd2","safeTxHash":"0x7b543c5403b2cdf7ef24b32ceffe8b176fd2b2fe40ff5635ec7cdd73111068eb","proposer":null,"proposedByDelegate":null,"executor":"0xBE72691acA605050d1e693a2C2C6A9f3F41dC939","isExecuted":true,"isSuccessful":true,"ethGasPrice":"33000000000","maxFeePerGas":null,"maxPriorityFeePerGas":null,"gasUsed":73071,"fee":"2411343000000000","origin":"{}","dataDecoded":null,"confirmationsRequired":3,"confirmations":[{"owner":"0xBE72691acA605050d1e693a2C2C6A9f3F41dC939","submissionDate":"2021-07-30T17:21:32Z","transactionHash":null,"signature":"0x4a6ea4b1f39d63d2805d7dfddcbf20f52f4d09d9732d7718bca4b67bb64ae1687ce3dc3c9d6950930a37e05e6468ad4210faea717dca4d83ccd2c5ed2be68bd820","signatureType":"ETH_SIGN"},{"owner":"0xe3dF2cCEAc61B1aFA311372ecC5B40A3A6585a9E","submissionDate":"2021-07-30T17:21:32Z","transactionHash":null,"signature":"0x058b6ff86f3c8d79a5a3025665d0864b414fe5eea0d3b16ffc64c775f4e0fad56ed4381690a2282d9ed203d6497a48ca948db6b357bee517844d24b326a7ecd020","signatureType":"ETH_SIGN"},{"owner":"0x2cDD560058D5ac32dc416AAa09Eaf93230c0B7B3","submissionDate":"2021-07-30T17:21:32Z","transactionHash":null,"signature":"0xe67fa47cb9342a38b53a4c595578380ad57f906ae336540a4487dd81ad08bd3f751921507f81d2c170e6310c9b357f22e0d1fbbb93526619699770d0a7d6379b1f","signatureType":"ETH_SIGN"}],"trusted":true,"signatures":"0xe67fa47cb9342a38b53a4c595578380ad57f906ae336540a4487dd81ad08bd3f751921507f81d2c170e6310c9b357f22e0d1fbbb93526619699770d0a7d6379b1f4a6ea4b1f39d63d2805d7dfddcbf20f52f4d09d9732d7718bca4b67bb64ae1687ce3dc3c9d6950930a37e05e6468ad4210faea717dca4d83ccd2c5ed2be68bd820058b6ff86f3c8d79a5a3025665d0864b414fe5eea0d3b16ffc64c775f4e0fad56ed4381690a2282d9ed203d6497a48ca948db6b357bee517844d24b326a7ecd020"},{"safe":"0x1Db92e2EeBC8E0c075a02BeA49a2935BcD2dFCF4","to":"0xee5B5B923fFcE93A870B3104b7CA09c3db80047A","value":"25000000000000000000000","data":null,"operation":0,"gasToken":"0x0000000000000000000000000000000000000000","safeTxGas":16797,"baseGas":0,"gasPrice":"0","refundReceiver":"0x0000000000000000000000000000000000000000","nonce":21,"executionDate":"2021-07-24T03:23:40Z","submissionDate":"2021-07-24T03:23:40Z","modified":"2022-12-13T13:38:39.561498Z","blockNumber":12886583,"transactionHash":"0xecf2efc8308692091116fcaffb3ce7a851e59ed56174aca3815bda5b470cda4e","safeTxHash":"0xc9906acc22171eda4cc49aee080689b25fe8b247bce69718b4d25402d4d5a9b7","proposer":null,"proposedByDelegate":null,"executor":"0xBE72691acA605050d1e693a2C2C6A9f3F41dC939","isExecuted":true,"isSuccessful":true,"ethGasPrice":"11000000000","maxFeePerGas":null,"maxPriorityFeePerGas":null,"gasUsed":73071,"fee":"803781000000000","origin":"{}","dataDecoded":null,"confirmationsRequired":3,"confirmations":[{"owner":"0xBE72691acA605050d1e693a2C2C6A9f3F41dC939","submissionDate":"2021-07-24T03:23:40Z","transactionHash":null,"signature":"0x15b32c6a81f6149e0505f46af5ba15b33b9889131d81bea385b45f98cb3f7cff1dc0b21aed76744cfc57e1de5557acdba9bda23915a7163e637018d66a82b13e20","signatureType":"ETH_SIGN"},{"owner":"0xe3dF2cCEAc61B1aFA311372ecC5B40A3A6585a9E","submissionDate":"2021-07-24T03:23:40Z","transactionHash":null,"signature":"0x7c3d6e030a34ccc6ddb379d3a8c7c49ca589d93485e2dcbb3079aa32a63736f004976c838d713f0f859d9d2ee581d13adbeae462d68f0691f06771f46ad2c1d01f","signatureType":"ETH_SIGN"},{"owner":"0x2cDD560058D5ac32dc416AAa09Eaf93230c0B7B3","submissionDate":"2021-07-24T03:23:40Z","transactionHash":null,"signature":"0x2bb8bfff9e9ad0c31286ba627d13ae1b624b9a60aa79ad6a7634f9afe6acb062150e8dad8d90c7e5a4c751ccf5bc6b85f54d5cc3be7fb2d9ac1f6c25e15df2a620","signatureType":"ETH_SIGN"}],"trusted":true,"signatures":"0x2bb8bfff9e9ad0c31286ba627d13ae1b624b9a60aa79ad6a7634f9afe6acb062150e8dad8d90c7e5a4c751ccf5bc6b85f54d5cc3be7fb2d9ac1f6c25e15df2a62015b32c6a81f6149e0505f46af5ba15b33b9889131d81bea385b45f98cb3f7cff1dc0b21aed76744cfc57e1de5557acdba9bda23915a7163e637018d66a82b13e207c3d6e030a34ccc6ddb379d3a8c7c49ca589d93485e2dcbb3079aa32a63736f004976c838d713f0f859d9d2ee581d13adbeae462d68f0691f06771f46ad2c1d01f"},{"safe":"0x1Db92e2EeBC8E0c075a02BeA49a2935BcD2dFCF4","to":"0xee5B5B923fFcE93A870B3104b7CA09c3db80047A","value":"25000000000000000000000","data":null,"operation":0,"gasToken":"0x0000000000000000000000000000000000000000","safeTxGas":16797,"baseGas":0,"gasPrice":"0","refundReceiver":"0x0000000000000000000000000000000000000000","nonce":20,"executionDate":"2021-07-07T02:54:06Z","submissionDate":"2021-07-07T02:54:06Z","modified":"2022-12-13T13:38:39.567444Z","blockNumber":12777762,"transactionHash":"0x668b6cdddde28b3d152247351844cd792f309adb532bd87cbb439cf9cb81c4ea","safeTxHash":"0x893aed5609b14e40bf961ecd0267fe8db7aa655c3993c76adab8729e032e8806","proposer":null,"proposedByDelegate":null,"executor":"0xBE72691acA605050d1e693a2C2C6A9f3F41dC939","isExecuted":true,"isSuccessful":true,"ethGasPrice":"26000000000","maxFeePerGas":null,"maxPriorityFeePerGas":null,"gasUsed":73071,"fee":"1899846000000000","origin":"{}","dataDecoded":null,"confirmationsRequired":3,"confirmations":[{"owner":"0xe3dF2cCEAc61B1aFA311372ecC5B40A3A6585a9E","submissionDate":"2021-07-07T02:54:06Z","transactionHash":null,"signature":"0xbaca9e5e275d30ba854a0eb4265fca9a088d6411c12bdeb024fce092be42978d386380488394d4c0a50224f71bbe78953bd7e0e7a7fd867bf99c6968968d87741f","signatureType":"ETH_SIGN"},{"owner":"0xD367f8322b64F29faF71dDB5c1877dC9ED6EC644","submissionDate":"2021-07-07T02:54:06Z","transactionHash":null,"signature":"0xa323df850435bf9634a271785816ea170defdd55ea76e0fd8a9228e9a50e7ff8262c34cb70304cc7a0dfa895c67da8d88393b831a35f22cc8bc20cffc99322421f","signatureType":"ETH_SIGN"},{"owner":"0xBE72691acA605050d1e693a2C2C6A9f3F41dC939","submissionDate":"2021-07-07T02:54:06Z","transactionHash":null,"signature":"0x2f1d61a9969779346d3e53c540bf6aeccfc85a0cff4728fa55f3b7489e4c0e74104208f47bc03f0ec93339a1735cbe8895d78ed9d05c32745e8f3161fd3b55771f","signatureType":"ETH_SIGN"}],"trusted":true,"signatures":"0x2f1d61a9969779346d3e53c540bf6aeccfc85a0cff4728fa55f3b7489e4c0e74104208f47bc03f0ec93339a1735cbe8895d78ed9d05c32745e8f3161fd3b55771fa323df850435bf9634a271785816ea170defdd55ea76e0fd8a9228e9a50e7ff8262c34cb70304cc7a0dfa895c67da8d88393b831a35f22cc8bc20cffc99322421fbaca9e5e275d30ba854a0eb4265fca9a088d6411c12bdeb024fce092be42978d386380488394d4c0a50224f71bbe78953bd7e0e7a7fd867bf99c6968968d87741f"},{"safe":"0x1Db92e2EeBC8E0c075a02BeA49a2935BcD2dFCF4","to":"0x828424517F9F04015db02169f4026D57B2B07229","value":"10000000000000000000000","data":null,"operation":0,"gasToken":"0x0000000000000000000000000000000000000000","safeTxGas":16797,"baseGas":0,"gasPrice":"0","refundReceiver":"0x0000000000000000000000000000000000000000","nonce":19,"executionDate":"2021-06-23T14:20:17Z","submissionDate":"2021-06-23T14:20:17Z","modified":"2022-12-13T13:38:39.241977Z","blockNumber":12690867,"transactionHash":"0x45ea562dee0b6c17e97d590710317a7c9e370002768a95b5858874334028d0e1","safeTxHash":"0x5414ec63f2fd67f9c49f5c73315584ae854dde16bbc66f66838147e0486e58ca","proposer":null,"proposedByDelegate":null,"executor":"0xBE72691acA605050d1e693a2C2C6A9f3F41dC939","isExecuted":true,"isSuccessful":true,"ethGasPrice":"19900000000","maxFeePerGas":null,"maxPriorityFeePerGas":null,"gasUsed":73059,"fee":"1453874100000000","origin":"{}","dataDecoded":null,"confirmationsRequired":3,"confirmations":[{"owner":"0xe3dF2cCEAc61B1aFA311372ecC5B40A3A6585a9E","submissionDate":"2021-06-23T14:20:17Z","transactionHash":null,"signature":"0x80d57db098a5bef8bf9a083950a1f05e8c5802e0d81fdefddcca46c14e95211e29a53d12ce94a8fbd594e721ae1d24cc4e23f1d3fd5c478516c28b48741bb71720","signatureType":"ETH_SIGN"},{"owner":"0x2cDD560058D5ac32dc416AAa09Eaf93230c0B7B3","submissionDate":"2021-06-23T14:20:17Z","transactionHash":null,"signature":"0x974b5ef3d33ad8ed9f259c6aaedadc253b8a777c950b1382975448d3f0d1f7b92d4a1b789476d06167be153a086c00b746ef836f9279bb71cae9b5f39c51d21e1f","signatureType":"ETH_SIGN"},{"owner":"0xBE72691acA605050d1e693a2C2C6A9f3F41dC939","submissionDate":"2021-06-23T14:20:17Z","transactionHash":null,"signature":"0x94309dc8ae90b58f331398a2dcce570a9ff27c3d03c8105c6b18695305f13619754dbb31ff4639eea6a3631e2fef3e473dd4b3f1bdf9d97d0ae23f1a74ee919d20","signatureType":"ETH_SIGN"}],"trusted":true,"signatures":"0x974b5ef3d33ad8ed9f259c6aaedadc253b8a777c950b1382975448d3f0d1f7b92d4a1b789476d06167be153a086c00b746ef836f9279bb71cae9b5f39c51d21e1f94309dc8ae90b58f331398a2dcce570a9ff27c3d03c8105c6b18695305f13619754dbb31ff4639eea6a3631e2fef3e473dd4b3f1bdf9d97d0ae23f1a74ee919d2080d57db098a5bef8bf9a083950a1f05e8c5802e0d81fdefddcca46c14e95211e29a53d12ce94a8fbd594e721ae1d24cc4e23f1d3fd5c478516c28b48741bb71720"},{"safe":"0x1Db92e2EeBC8E0c075a02BeA49a2935BcD2dFCF4","to":"0xee5B5B923fFcE93A870B3104b7CA09c3db80047A","value":"20000000000000000000000","data":null,"operation":0,"gasToken":"0x0000000000000000000000000000000000000000","safeTxGas":16797,"baseGas":0,"gasPrice":"0","refundReceiver":"0x0000000000000000000000000000000000000000","nonce":18,"executionDate":"2021-06-23T14:17:15Z","submissionDate":"2021-06-23T14:17:15Z","modified":"2022-12-13T13:38:39.238286Z","blockNumber":12690846,"transactionHash":"0x6a38928c57dba846aa4e04e99bd5f73a8dde3f17a56517a225c673ebcd4bc1a2","safeTxHash":"0x688a0ebda5b82bdb21bca646bae1d7e7b7520b77e757685a0900e75ec79e8772","proposer":null,"proposedByDelegate":null,"executor":"0x2cDD560058D5ac32dc416AAa09Eaf93230c0B7B3","isExecuted":true,"isSuccessful":true,"ethGasPrice":"19400000000","maxFeePerGas":null,"maxPriorityFeePerGas":null,"gasUsed":69125,"fee":"1341025000000000","origin":"{}","dataDecoded":null,"confirmationsRequired":3,"confirmations":[{"owner":"0xe3dF2cCEAc61B1aFA311372ecC5B40A3A6585a9E","submissionDate":"2021-06-23T14:17:15Z","transactionHash":null,"signature":"0xeace478cb8b9a28016e804d5a1622f77cd5a313ea0d4000f22d2fec9ceca30dc07b03868fa5c352ec4bbca55af1d1c5327d9fe07d350b6f3abc8df45f812544220","signatureType":"ETH_SIGN"},{"owner":"0x2cDD560058D5ac32dc416AAa09Eaf93230c0B7B3","submissionDate":"2021-06-23T14:17:15Z","transactionHash":null,"signature":"0x0000000000000000000000002cdd560058d5ac32dc416aaa09eaf93230c0b7b3000000000000000000000000000000000000000000000000000000000000000001","signatureType":"APPROVED_HASH"},{"owner":"0xBE72691acA605050d1e693a2C2C6A9f3F41dC939","submissionDate":"2021-06-23T14:17:15Z","transactionHash":null,"signature":"0xbc10a9fd2647f7168865cf7d423e4baee9a32428a93456016b20e7e9a4d12aa876a881cb3c6ec35e3086fdab6157d63c8a2bfc9a2a4a85343efe4026f6d54e081f","signatureType":"ETH_SIGN"}],"trusted":true,"signatures":"0x0000000000000000000000002cdd560058d5ac32dc416aaa09eaf93230c0b7b3000000000000000000000000000000000000000000000000000000000000000001bc10a9fd2647f7168865cf7d423e4baee9a32428a93456016b20e7e9a4d12aa876a881cb3c6ec35e3086fdab6157d63c8a2bfc9a2a4a85343efe4026f6d54e081feace478cb8b9a28016e804d5a1622f77cd5a313ea0d4000f22d2fec9ceca30dc07b03868fa5c352ec4bbca55af1d1c5327d9fe07d350b6f3abc8df45f812544220"},{"safe":"0x1Db92e2EeBC8E0c075a02BeA49a2935BcD2dFCF4","to":"0x828424517F9F04015db02169f4026D57B2B07229","value":"30000000000000000000000","data":null,"operation":0,"gasToken":"0x0000000000000000000000000000000000000000","safeTxGas":16797,"baseGas":0,"gasPrice":"0","refundReceiver":"0x0000000000000000000000000000000000000000","nonce":17,"executionDate":"2021-06-08T15:12:41Z","submissionDate":"2021-06-08T15:12:41Z","modified":"2022-12-13T13:38:39.235202Z","blockNumber":12594618,"transactionHash":"0x0d9eefb0cfaf8c61fd7626d6892ac10fcbf1c84b7f1a11da0a7246a78163f271","safeTxHash":"0x6dd0d811d4335afb93ffd1169221dc8da081101648e0c8e815f7487870d86b3c","proposer":null,"proposedByDelegate":null,"executor":"0xBE72691acA605050d1e693a2C2C6A9f3F41dC939","isExecuted":true,"isSuccessful":true,"ethGasPrice":"42000000000","maxFeePerGas":null,"maxPriorityFeePerGas":null,"gasUsed":73059,"fee":"3068478000000000","origin":"{}","dataDecoded":null,"confirmationsRequired":3,"confirmations":[{"owner":"0xBE72691acA605050d1e693a2C2C6A9f3F41dC939","submissionDate":"2021-06-08T15:12:41Z","transactionHash":null,"signature":"0x9c08c0a56c9478c915a4c9f57af6cd1a52d8ce3b9260c84ead4507bd69096c2a3100017ea1cf202e9bdf8d24f643fd3cf1895c767e41c17c0b9f4dd7db12cc4a1f","signatureType":"ETH_SIGN"},{"owner":"0xD367f8322b64F29faF71dDB5c1877dC9ED6EC644","submissionDate":"2021-06-08T15:12:41Z","transactionHash":null,"signature":"0x9b6d4b5693922183456282b65928287c7ba3d8b65605db18135c99cdeadc65266d48063b945d5ec552f995ddc9ff22c7d9c650feb839113462bd53610e37ea1720","signatureType":"ETH_SIGN"},{"owner":"0xe3dF2cCEAc61B1aFA311372ecC5B40A3A6585a9E","submissionDate":"2021-06-08T15:12:41Z","transactionHash":null,"signature":"0x776989154c9c6e216813fc166f63e1eb77d70994b52605e022d9557a0128217172493daeb009d5d0ea21f843d24004619ea6818a0dd241cf1520bae4b21f92611f","signatureType":"ETH_SIGN"}],"trusted":true,"signatures":"0x9c08c0a56c9478c915a4c9f57af6cd1a52d8ce3b9260c84ead4507bd69096c2a3100017ea1cf202e9bdf8d24f643fd3cf1895c767e41c17c0b9f4dd7db12cc4a1f9b6d4b5693922183456282b65928287c7ba3d8b65605db18135c99cdeadc65266d48063b945d5ec552f995ddc9ff22c7d9c650feb839113462bd53610e37ea1720776989154c9c6e216813fc166f63e1eb77d70994b52605e022d9557a0128217172493daeb009d5d0ea21f843d24004619ea6818a0dd241cf1520bae4b21f92611f"},{"safe":"0x1Db92e2EeBC8E0c075a02BeA49a2935BcD2dFCF4","to":"0x828424517F9F04015db02169f4026D57B2B07229","value":"25000000000000000000000","data":null,"operation":0,"gasToken":"0x0000000000000000000000000000000000000000","safeTxGas":16797,"baseGas":0,"gasPrice":"0","refundReceiver":"0x0000000000000000000000000000000000000000","nonce":16,"executionDate":"2021-06-01T13:56:09Z","submissionDate":"2021-06-01T13:56:09Z","modified":"2022-12-13T13:38:39.240037Z","blockNumber":12548959,"transactionHash":"0xcd156827e3d620d30855bd0f48f775087b18fa1c4e629d18c026d57db01b6671","safeTxHash":"0xdd4e6f444c8b6a30ef21f91f50341f0841d6146adae41db594bfc502901dee56","proposer":null,"proposedByDelegate":null,"executor":"0xBE72691acA605050d1e693a2C2C6A9f3F41dC939","isExecuted":true,"isSuccessful":true,"ethGasPrice":"19800000000","maxFeePerGas":null,"maxPriorityFeePerGas":null,"gasUsed":73059,"fee":"1446568200000000","origin":"{}","dataDecoded":null,"confirmationsRequired":3,"confirmations":[{"owner":"0xD367f8322b64F29faF71dDB5c1877dC9ED6EC644","submissionDate":"2021-06-01T13:56:09Z","transactionHash":null,"signature":"0x735d1299cbdbe533fc2923813b640238cf814972c3fc0b940b8aa03197b96cf15a2f46a615063825f8d63193b08311c0e4060e36b3568da26906f9c5262126951f","signatureType":"ETH_SIGN"},{"owner":"0xBE72691acA605050d1e693a2C2C6A9f3F41dC939","submissionDate":"2021-06-01T13:56:09Z","transactionHash":null,"signature":"0xfd4f196bdbd6b210aaf4f13ef3d590dd8737d7127600149a34b6f4854040b826609f79e9eb7c123830a18e1b162287432bd32e92fd8bf7d8be6ed1939f6ab41420","signatureType":"ETH_SIGN"},{"owner":"0xe3dF2cCEAc61B1aFA311372ecC5B40A3A6585a9E","submissionDate":"2021-06-01T13:56:09Z","transactionHash":null,"signature":"0xab13863d6a58631b702b02136e13bcaffb0c8cc7ab6f82a1352eb6204b3f25da14999ff9babaa5301e8228533d497c9292a160687b59dd7df989c0b05a975c891f","signatureType":"ETH_SIGN"}],"trusted":true,"signatures":"0xfd4f196bdbd6b210aaf4f13ef3d590dd8737d7127600149a34b6f4854040b826609f79e9eb7c123830a18e1b162287432bd32e92fd8bf7d8be6ed1939f6ab41420735d1299cbdbe533fc2923813b640238cf814972c3fc0b940b8aa03197b96cf15a2f46a615063825f8d63193b08311c0e4060e36b3568da26906f9c5262126951fab13863d6a58631b702b02136e13bcaffb0c8cc7ab6f82a1352eb6204b3f25da14999ff9babaa5301e8228533d497c9292a160687b59dd7df989c0b05a975c891f"},{"safe":"0x1Db92e2EeBC8E0c075a02BeA49a2935BcD2dFCF4","to":"0x828424517F9F04015db02169f4026D57B2B07229","value":"20000000000000000000000","data":null,"operation":0,"gasToken":"0x0000000000000000000000000000000000000000","safeTxGas":16797,"baseGas":0,"gasPrice":"0","refundReceiver":"0x0000000000000000000000000000000000000000","nonce":15,"executionDate":"2021-05-29T04:01:31Z","submissionDate":"2021-05-29T04:01:31Z","modified":"2022-12-13T13:38:39.015046Z","blockNumber":12526982,"transactionHash":"0x9a12de0e3abfd134aacbe26c9d1362279d6f03bcae0189412b6e103e28fa9082","safeTxHash":"0x71a7791a745d21484bd0de99e5f70eb46747a84b332e8aebc0793d132f435653","proposer":null,"proposedByDelegate":null,"executor":"0xBE72691acA605050d1e693a2C2C6A9f3F41dC939","isExecuted":true,"isSuccessful":true,"ethGasPrice":"20900000000","maxFeePerGas":null,"maxPriorityFeePerGas":null,"gasUsed":73071,"fee":"1527183900000000","origin":"{}","dataDecoded":null,"confirmationsRequired":3,"confirmations":[{"owner":"0xBE72691acA605050d1e693a2C2C6A9f3F41dC939","submissionDate":"2021-05-29T04:01:31Z","transactionHash":null,"signature":"0x5a953cfed0374eec44b0e1f3c0e78eaa469227bffe7513738505ec4f0acc5895469d6d212de65ec12878972169db603b98851ffc58d21d66e67cd6101e119e6d20","signatureType":"ETH_SIGN"},{"owner":"0xD367f8322b64F29faF71dDB5c1877dC9ED6EC644","submissionDate":"2021-05-29T04:01:31Z","transactionHash":null,"signature":"0x5deb6e575405162396531eb1709b0fa1c2827704a44b8340f931e3f15f5da3d26f7597961e9da49f17d0ece38af4f0c747cbb58250a3465c4b1570ca7f160f7b20","signatureType":"ETH_SIGN"},{"owner":"0xe3dF2cCEAc61B1aFA311372ecC5B40A3A6585a9E","submissionDate":"2021-05-29T04:01:31Z","transactionHash":null,"signature":"0xcc60164fb1163e6227f710c307f96784fd8ee1b373dd14a2f635308843e3984a26ae3f86bdbf62352e174c8914aa78f10f0e276d65ef6c65b05206458258b31120","signatureType":"ETH_SIGN"}],"trusted":true,"signatures":"0x5a953cfed0374eec44b0e1f3c0e78eaa469227bffe7513738505ec4f0acc5895469d6d212de65ec12878972169db603b98851ffc58d21d66e67cd6101e119e6d205deb6e575405162396531eb1709b0fa1c2827704a44b8340f931e3f15f5da3d26f7597961e9da49f17d0ece38af4f0c747cbb58250a3465c4b1570ca7f160f7b20cc60164fb1163e6227f710c307f96784fd8ee1b373dd14a2f635308843e3984a26ae3f86bdbf62352e174c8914aa78f10f0e276d65ef6c65b05206458258b31120"},{"safe":"0x1Db92e2EeBC8E0c075a02BeA49a2935BcD2dFCF4","to":"0x828424517F9F04015db02169f4026D57B2B07229","value":"40000000000000000000000","data":null,"operation":0,"gasToken":"0x0000000000000000000000000000000000000000","safeTxGas":16785,"baseGas":0,"gasPrice":"0","refundReceiver":"0x0000000000000000000000000000000000000000","nonce":14,"executionDate":"2021-05-25T14:39:04Z","submissionDate":"2021-05-25T14:39:04Z","modified":"2022-12-13T13:38:39.012143Z","blockNumber":12504081,"transactionHash":"0x6dbc75c5e1ef75e8e75d1164446774f705f378524dd678590dfac3d4b814e694","safeTxHash":"0x144aad603d2475f3c12b950f2f55e68ba6829b63851be5f14c665c48229bdbbf","proposer":null,"proposedByDelegate":null,"executor":"0xBE72691acA605050d1e693a2C2C6A9f3F41dC939","isExecuted":true,"isSuccessful":true,"ethGasPrice":"48000000000","maxFeePerGas":null,"maxPriorityFeePerGas":null,"gasUsed":73047,"fee":"3506256000000000","origin":"{}","dataDecoded":null,"confirmationsRequired":3,"confirmations":[{"owner":"0x2cDD560058D5ac32dc416AAa09Eaf93230c0B7B3","submissionDate":"2021-05-25T14:39:04Z","transactionHash":null,"signature":"0xc24e8c36bd2bfa48c6ba2d90ac895a220a9a7d59a92add205b534eb13bad35332ff610eea16581116ea06e9c85281f01721a653c0c8867783b200bebc41ba0ea1f","signatureType":"ETH_SIGN"},{"owner":"0xe3dF2cCEAc61B1aFA311372ecC5B40A3A6585a9E","submissionDate":"2021-05-25T14:39:04Z","transactionHash":null,"signature":"0xa87115bd159f7d148770576e332835286d1b2cd619b2fbff03006bb6f005a6525df27ac30528b0379e6da41931eca39001a5eecab51e25b3028a44f384849e3d20","signatureType":"ETH_SIGN"},{"owner":"0xBE72691acA605050d1e693a2C2C6A9f3F41dC939","submissionDate":"2021-05-25T14:39:04Z","transactionHash":null,"signature":"0xc1d5e9e5c9f68624c1f7c365403d688521c1e56b4e982b6c6ad84bf3f0d3ea403fe134f49138a3641cddaab881643be6ed8cf3cb19909c82d810270b131724b41f","signatureType":"ETH_SIGN"}],"trusted":true,"signatures":"0xc24e8c36bd2bfa48c6ba2d90ac895a220a9a7d59a92add205b534eb13bad35332ff610eea16581116ea06e9c85281f01721a653c0c8867783b200bebc41ba0ea1fc1d5e9e5c9f68624c1f7c365403d688521c1e56b4e982b6c6ad84bf3f0d3ea403fe134f49138a3641cddaab881643be6ed8cf3cb19909c82d810270b131724b41fa87115bd159f7d148770576e332835286d1b2cd619b2fbff03006bb6f005a6525df27ac30528b0379e6da41931eca39001a5eecab51e25b3028a44f384849e3d20"},{"safe":"0x1Db92e2EeBC8E0c075a02BeA49a2935BcD2dFCF4","to":"0x828424517F9F04015db02169f4026D57B2B07229","value":"30000000000000000000000","data":null,"operation":0,"gasToken":"0x0000000000000000000000000000000000000000","safeTxGas":16797,"baseGas":0,"gasPrice":"0","refundReceiver":"0x0000000000000000000000000000000000000000","nonce":13,"executionDate":"2021-05-20T15:07:58Z","submissionDate":"2021-05-20T15:07:58Z","modified":"2022-12-13T13:38:39.008404Z","blockNumber":12471996,"transactionHash":"0xe2757b3e9c45abdb9bdbb6a0561f1c9b9de9aade4cfc7e9d9a9cb75d7c4c3d4d","safeTxHash":"0x23af9f5abea220eb93d6c069ce7f68b66682f72fd3c39661adeeab7f2ccbc15e","proposer":null,"proposedByDelegate":null,"executor":"0xBE72691acA605050d1e693a2C2C6A9f3F41dC939","isExecuted":true,"isSuccessful":true,"ethGasPrice":"106000000000","maxFeePerGas":null,"maxPriorityFeePerGas":null,"gasUsed":73059,"fee":"7744254000000000","origin":"{}","dataDecoded":null,"confirmationsRequired":3,"confirmations":[{"owner":"0xBE72691acA605050d1e693a2C2C6A9f3F41dC939","submissionDate":"2021-05-20T15:07:58Z","transactionHash":null,"signature":"0x451fda515a89f2635e69b78cb35475ad1d2e19a02d4ae0d915502c4b23ac295b5804dedfd2ac09a974b64f3423accebbdbccbe17356194c949fa01038a7ec89420","signatureType":"ETH_SIGN"},{"owner":"0xD367f8322b64F29faF71dDB5c1877dC9ED6EC644","submissionDate":"2021-05-20T15:07:58Z","transactionHash":null,"signature":"0xa9afa402e09865feb0ab889d40059a0cd78d27fbf2f5a0f57ceeb448c9a65a8a2e27d72423665e671f4e7d143d9f491b4b793cbf9717edc7787ec98a0f78e7821f","signatureType":"ETH_SIGN"},{"owner":"0xe3dF2cCEAc61B1aFA311372ecC5B40A3A6585a9E","submissionDate":"2021-05-20T15:07:58Z","transactionHash":null,"signature":"0x04c24cbe8de61264c820614ab71182245afdd8ca5372462a3c19c21a0684ae6b683aa8acb4d1dfa951adbb45bf848b001282190750de7f55c038d4ef056e1ca120","signatureType":"ETH_SIGN"}],"trusted":true,"signatures":"0x451fda515a89f2635e69b78cb35475ad1d2e19a02d4ae0d915502c4b23ac295b5804dedfd2ac09a974b64f3423accebbdbccbe17356194c949fa01038a7ec89420a9afa402e09865feb0ab889d40059a0cd78d27fbf2f5a0f57ceeb448c9a65a8a2e27d72423665e671f4e7d143d9f491b4b793cbf9717edc7787ec98a0f78e7821f04c24cbe8de61264c820614ab71182245afdd8ca5372462a3c19c21a0684ae6b683aa8acb4d1dfa951adbb45bf848b001282190750de7f55c038d4ef056e1ca120"},{"safe":"0x1Db92e2EeBC8E0c075a02BeA49a2935BcD2dFCF4","to":"0x828424517F9F04015db02169f4026D57B2B07229","value":"30000000000000000000000","data":null,"operation":0,"gasToken":"0x0000000000000000000000000000000000000000","safeTxGas":16797,"baseGas":0,"gasPrice":"0","refundReceiver":"0x0000000000000000000000000000000000000000","nonce":12,"executionDate":"2021-05-19T18:26:18Z","submissionDate":"2021-05-19T18:26:18Z","modified":"2022-12-13T13:38:38.725846Z","blockNumber":12466427,"transactionHash":"0x8ffb170dc59430b6ebdda88f9495655b0c5cef81df216bb6482624ed9591c4f3","safeTxHash":"0xe443adf0fafeb3a08599ce9b16b9605a9a9b0223196393a5fc6f1702c9425e34","proposer":null,"proposedByDelegate":null,"executor":"0xBE72691acA605050d1e693a2C2C6A9f3F41dC939","isExecuted":true,"isSuccessful":true,"ethGasPrice":"183000000000","maxFeePerGas":null,"maxPriorityFeePerGas":null,"gasUsed":73059,"fee":"13369797000000000","origin":"{}","dataDecoded":null,"confirmationsRequired":3,"confirmations":[{"owner":"0x2cDD560058D5ac32dc416AAa09Eaf93230c0B7B3","submissionDate":"2021-05-19T18:26:18Z","transactionHash":null,"signature":"0x9330725b2e98407912a4d73992494e6a8bbb6e95348e6ec0c9f4b21115cdc4825bf7bbdd39c7c3bbc48c87c72dcd67d2ce18fe28ebd609cb7448917192ab526d20","signatureType":"ETH_SIGN"},{"owner":"0xBE72691acA605050d1e693a2C2C6A9f3F41dC939","submissionDate":"2021-05-19T18:26:18Z","transactionHash":null,"signature":"0xbee1d7b654d9b52e197e93edf11c3ee52f43c2767a5b8df047e3462244c5625c158dd17ebc3667fddf8aab0b1d7f8f93e496878eaa4aa4befee63c43460742ff1f","signatureType":"ETH_SIGN"},{"owner":"0xD367f8322b64F29faF71dDB5c1877dC9ED6EC644","submissionDate":"2021-05-19T18:26:18Z","transactionHash":null,"signature":"0xf8851465750b118fcd0503a25c7081846ab0655387c83c4dbe767f077c699186149b3c28672b964760bd48e9a896a10019cd51953d74572b0fb8b294bfdeb28120","signatureType":"ETH_SIGN"}],"trusted":true,"signatures":"0x9330725b2e98407912a4d73992494e6a8bbb6e95348e6ec0c9f4b21115cdc4825bf7bbdd39c7c3bbc48c87c72dcd67d2ce18fe28ebd609cb7448917192ab526d20bee1d7b654d9b52e197e93edf11c3ee52f43c2767a5b8df047e3462244c5625c158dd17ebc3667fddf8aab0b1d7f8f93e496878eaa4aa4befee63c43460742ff1ff8851465750b118fcd0503a25c7081846ab0655387c83c4dbe767f077c699186149b3c28672b964760bd48e9a896a10019cd51953d74572b0fb8b294bfdeb28120"},{"safe":"0x1Db92e2EeBC8E0c075a02BeA49a2935BcD2dFCF4","to":"0x828424517F9F04015db02169f4026D57B2B07229","value":"30000000000000000000000","data":null,"operation":0,"gasToken":"0x0000000000000000000000000000000000000000","safeTxGas":16797,"baseGas":0,"gasPrice":"0","refundReceiver":"0x0000000000000000000000000000000000000000","nonce":11,"executionDate":"2021-05-17T04:28:14Z","submissionDate":"2021-05-17T04:28:14Z","modified":"2022-12-13T13:38:38.722872Z","blockNumber":12449771,"transactionHash":"0xb6376d2e060bad4b0375951629adb41415623db2408b99d45da649e04d1818ce","safeTxHash":"0x92836198f1879f11146f8d6c52128fced967d65d40046f3babcd5440d306ccbb","proposer":null,"proposedByDelegate":null,"executor":"0xBE72691acA605050d1e693a2C2C6A9f3F41dC939","isExecuted":true,"isSuccessful":true,"ethGasPrice":"156000000000","maxFeePerGas":null,"maxPriorityFeePerGas":null,"gasUsed":73047,"fee":"11395332000000000","origin":"{}","dataDecoded":null,"confirmationsRequired":3,"confirmations":[{"owner":"0xe3dF2cCEAc61B1aFA311372ecC5B40A3A6585a9E","submissionDate":"2021-05-17T04:28:14Z","transactionHash":null,"signature":"0x332cf6c6783fafa891e963cd8d7db02e73a75611b6494e556a21c0fb427e80517cee4c80a9f9607c74cd6456e9435fa8620291c27e6844bf243f2fbc78ecd1bc20","signatureType":"ETH_SIGN"},{"owner":"0x2cDD560058D5ac32dc416AAa09Eaf93230c0B7B3","submissionDate":"2021-05-17T04:28:14Z","transactionHash":null,"signature":"0x36af673e1ba3206b5478f72962bd96435f57b9c66dd08d76a18ecf11b397ff6d47229ec7c50f1d87d7c6bb3173b8f211b6f50c6d3abf41d7dbacb8490199160220","signatureType":"ETH_SIGN"},{"owner":"0xBE72691acA605050d1e693a2C2C6A9f3F41dC939","submissionDate":"2021-05-17T04:28:14Z","transactionHash":null,"signature":"0x665f025b72073c8ec1e0774f09629f34dab710fa0278dfc199f30e67f8525ad0019c53daf0003c34230d2adf002ab9bb4245bae6d049a22852260b92a6178aa820","signatureType":"ETH_SIGN"}],"trusted":true,"signatures":"0x36af673e1ba3206b5478f72962bd96435f57b9c66dd08d76a18ecf11b397ff6d47229ec7c50f1d87d7c6bb3173b8f211b6f50c6d3abf41d7dbacb8490199160220665f025b72073c8ec1e0774f09629f34dab710fa0278dfc199f30e67f8525ad0019c53daf0003c34230d2adf002ab9bb4245bae6d049a22852260b92a6178aa820332cf6c6783fafa891e963cd8d7db02e73a75611b6494e556a21c0fb427e80517cee4c80a9f9607c74cd6456e9435fa8620291c27e6844bf243f2fbc78ecd1bc20"},{"safe":"0x1Db92e2EeBC8E0c075a02BeA49a2935BcD2dFCF4","to":"0x828424517F9F04015db02169f4026D57B2B07229","value":"20000000000000000000000","data":null,"operation":0,"gasToken":"0x0000000000000000000000000000000000000000","safeTxGas":16797,"baseGas":0,"gasPrice":"0","refundReceiver":"0x0000000000000000000000000000000000000000","nonce":10,"executionDate":"2021-05-15T02:36:02Z","submissionDate":"2021-05-15T02:36:02Z","modified":"2022-12-13T13:38:38.724924Z","blockNumber":12436335,"transactionHash":"0x06313511f708641e1be4b76fb1eec5129f5cf581050b25012ae30f1910d42d0b","safeTxHash":"0xbaf9103754fdf07827f09157188cbec5ed28f21e04b68a2ed36a55a569c0a364","proposer":null,"proposedByDelegate":null,"executor":"0x2cDD560058D5ac32dc416AAa09Eaf93230c0B7B3","isExecuted":true,"isSuccessful":true,"ethGasPrice":"103000000000","maxFeePerGas":null,"maxPriorityFeePerGas":null,"gasUsed":69137,"fee":"7121111000000000","origin":"{}","dataDecoded":null,"confirmationsRequired":3,"confirmations":[{"owner":"0x2cDD560058D5ac32dc416AAa09Eaf93230c0B7B3","submissionDate":"2021-05-15T02:36:02Z","transactionHash":null,"signature":"0x0000000000000000000000002cdd560058d5ac32dc416aaa09eaf93230c0b7b3000000000000000000000000000000000000000000000000000000000000000001","signatureType":"APPROVED_HASH"},{"owner":"0xBE72691acA605050d1e693a2C2C6A9f3F41dC939","submissionDate":"2021-05-15T02:36:02Z","transactionHash":null,"signature":"0x16cafc02d17ab1cb2bb18a8707ebadbbdea279431e7801cea48fb8eb79217d8a6e8a0767916cd1675dc7789bd371d543496714d4e1fb64ed416bb5f33d3f3b2c20","signatureType":"ETH_SIGN"},{"owner":"0xD367f8322b64F29faF71dDB5c1877dC9ED6EC644","submissionDate":"2021-05-15T02:36:02Z","transactionHash":null,"signature":"0x5dd74489e474e0a14423b5f630a1708dfd2f04956ddc0c39fd36193d2d5a91220d0fae15ed844803aaf240a64e7e09323cafe137ec5f048a5a1f28327587d6201f","signatureType":"ETH_SIGN"}],"trusted":true,"signatures":"0x0000000000000000000000002cdd560058d5ac32dc416aaa09eaf93230c0b7b300000000000000000000000000000000000000000000000000000000000000000116cafc02d17ab1cb2bb18a8707ebadbbdea279431e7801cea48fb8eb79217d8a6e8a0767916cd1675dc7789bd371d543496714d4e1fb64ed416bb5f33d3f3b2c205dd74489e474e0a14423b5f630a1708dfd2f04956ddc0c39fd36193d2d5a91220d0fae15ed844803aaf240a64e7e09323cafe137ec5f048a5a1f28327587d6201f"},{"safe":"0x1Db92e2EeBC8E0c075a02BeA49a2935BcD2dFCF4","to":"0x828424517F9F04015db02169f4026D57B2B07229","value":"30000000000000000000000","data":null,"operation":0,"gasToken":"0x0000000000000000000000000000000000000000","safeTxGas":16797,"baseGas":0,"gasPrice":"0","refundReceiver":"0x0000000000000000000000000000000000000000","nonce":9,"executionDate":"2021-05-13T02:12:00Z","submissionDate":"2021-05-13T02:12:00Z","modified":"2022-12-13T13:38:38.457270Z","blockNumber":12423250,"transactionHash":"0x57167c27ce301b90ec655ade47f12aa1f2607eddd443bb524f3a8d45c9618b45","safeTxHash":"0x18622b261428780d18eb9bd36f8976ecb0a2ea90a289bf49e3b3687d1730eeb7","proposer":null,"proposedByDelegate":null,"executor":"0xBE72691acA605050d1e693a2C2C6A9f3F41dC939","isExecuted":true,"isSuccessful":true,"ethGasPrice":"158000000000","maxFeePerGas":null,"maxPriorityFeePerGas":null,"gasUsed":73059,"fee":"11543322000000000","origin":"{}","dataDecoded":null,"confirmationsRequired":3,"confirmations":[{"owner":"0xe3dF2cCEAc61B1aFA311372ecC5B40A3A6585a9E","submissionDate":"2021-05-13T02:12:00Z","transactionHash":null,"signature":"0x6680bcf3c89b7a99403f64d8cdbf7bbaea1f06d48ceaf04d1e97a9b54eb781d7260992ee71e4e05c7b97555792df8d523ffaf2ff37a716204d3eeb515189e6461f","signatureType":"ETH_SIGN"},{"owner":"0xD367f8322b64F29faF71dDB5c1877dC9ED6EC644","submissionDate":"2021-05-13T02:12:00Z","transactionHash":null,"signature":"0x4764ebaac21d5941441a7525853417006f5b8a61dc0ee4a34b2f622463d3a1d63de9a8d13f43318645879de4cd652bf114970be954c24e57e2748a69ebfdaf2320","signatureType":"ETH_SIGN"},{"owner":"0xBE72691acA605050d1e693a2C2C6A9f3F41dC939","submissionDate":"2021-05-13T02:12:00Z","transactionHash":null,"signature":"0xdf05576b89cacdbf1f851368b7da8ddd9b6c5f1db2087e1f42a3f127a4c4933909c04cf0dc4a935bb0c79202e344fc3a0b3c9657736db0b52908e1871366861620","signatureType":"ETH_SIGN"}],"trusted":true,"signatures":"0xdf05576b89cacdbf1f851368b7da8ddd9b6c5f1db2087e1f42a3f127a4c4933909c04cf0dc4a935bb0c79202e344fc3a0b3c9657736db0b52908e18713668616204764ebaac21d5941441a7525853417006f5b8a61dc0ee4a34b2f622463d3a1d63de9a8d13f43318645879de4cd652bf114970be954c24e57e2748a69ebfdaf23206680bcf3c89b7a99403f64d8cdbf7bbaea1f06d48ceaf04d1e97a9b54eb781d7260992ee71e4e05c7b97555792df8d523ffaf2ff37a716204d3eeb515189e6461f"},{"safe":"0x1Db92e2EeBC8E0c075a02BeA49a2935BcD2dFCF4","to":"0x828424517F9F04015db02169f4026D57B2B07229","value":"20000000000000000000000","data":null,"operation":0,"gasToken":"0x0000000000000000000000000000000000000000","safeTxGas":16797,"baseGas":0,"gasPrice":"0","refundReceiver":"0x0000000000000000000000000000000000000000","nonce":8,"executionDate":"2021-05-10T15:00:59Z","submissionDate":"2021-05-10T15:00:59Z","modified":"2022-12-13T13:38:38.291559Z","blockNumber":12407284,"transactionHash":"0x6c5a49725a22618a4044885fa1bb340e0e3097a131fc9062fb48c00bfb3fc715","safeTxHash":"0x64a80f531ea34b095209c07f6a04dff7d61ccd335c4437b4421cb83b3c7db03d","proposer":null,"proposedByDelegate":null,"executor":"0xBE72691acA605050d1e693a2C2C6A9f3F41dC939","isExecuted":true,"isSuccessful":true,"ethGasPrice":"305000000000","maxFeePerGas":null,"maxPriorityFeePerGas":null,"gasUsed":73071,"fee":"22286655000000000","origin":"{}","dataDecoded":null,"confirmationsRequired":3,"confirmations":[{"owner":"0xe3dF2cCEAc61B1aFA311372ecC5B40A3A6585a9E","submissionDate":"2021-05-10T15:00:59Z","transactionHash":null,"signature":"0xab57f493af7d6cc1e78b0af2a1fc0e27cdda75e8656fe6ba16ecb6eefe7096247f6b944976f212b5562018da397a3b15ef11f7617d767c65fec1c00b1bcd07a31f","signatureType":"ETH_SIGN"},{"owner":"0xD367f8322b64F29faF71dDB5c1877dC9ED6EC644","submissionDate":"2021-05-10T15:00:59Z","transactionHash":null,"signature":"0xb75b97035dfe390bb7c7d152b91e7f140b718ecbed7619b1446b455e3e3090c2134c91aa8c728cde63c7fc87e6b8380412c8613b170e82e10aa9c6ca8aa42d301f","signatureType":"ETH_SIGN"},{"owner":"0xBE72691acA605050d1e693a2C2C6A9f3F41dC939","submissionDate":"2021-05-10T15:00:59Z","transactionHash":null,"signature":"0x01fde9a5c837d70e39db5edf5bcd4c507e370e2d597c0609d3485ac306d71bfc425b82a4905e8828927f5d11b2ba4bff53b49481f61aa435e1aad1815e9c10b11f","signatureType":"ETH_SIGN"}],"trusted":true,"signatures":"0x01fde9a5c837d70e39db5edf5bcd4c507e370e2d597c0609d3485ac306d71bfc425b82a4905e8828927f5d11b2ba4bff53b49481f61aa435e1aad1815e9c10b11fb75b97035dfe390bb7c7d152b91e7f140b718ecbed7619b1446b455e3e3090c2134c91aa8c728cde63c7fc87e6b8380412c8613b170e82e10aa9c6ca8aa42d301fab57f493af7d6cc1e78b0af2a1fc0e27cdda75e8656fe6ba16ecb6eefe7096247f6b944976f212b5562018da397a3b15ef11f7617d767c65fec1c00b1bcd07a31f"},{"safe":"0x1Db92e2EeBC8E0c075a02BeA49a2935BcD2dFCF4","to":"0x828424517F9F04015db02169f4026D57B2B07229","value":"20000000000000000000000","data":null,"operation":0,"gasToken":"0x0000000000000000000000000000000000000000","safeTxGas":16797,"baseGas":0,"gasPrice":"0","refundReceiver":"0x0000000000000000000000000000000000000000","nonce":7,"executionDate":"2021-05-01T15:03:40Z","submissionDate":"2021-05-01T15:03:40Z","modified":"2022-12-13T13:38:38.455999Z","blockNumber":12348991,"transactionHash":"0xea1d6881f37a35b8e74a327e8251deab111102c03a6cf79e7b69ae9939577c99","safeTxHash":"0x0821fc068eac23fbeeb31b3f08fc413d6a9315f871d73be9afd75b16431b364e","proposer":null,"proposedByDelegate":null,"executor":"0xBE72691acA605050d1e693a2C2C6A9f3F41dC939","isExecuted":true,"isSuccessful":true,"ethGasPrice":"34000000000","maxFeePerGas":null,"maxPriorityFeePerGas":null,"gasUsed":73071,"fee":"2484414000000000","origin":"{}","dataDecoded":null,"confirmationsRequired":3,"confirmations":[{"owner":"0x2cDD560058D5ac32dc416AAa09Eaf93230c0B7B3","submissionDate":"2021-05-01T15:03:40Z","transactionHash":null,"signature":"0xe6671afe388f8f6ca528195ff578bec4d26a35234ae2255651bf97eb46e9b74645d6ae97673115885f4bf947985c062227b15c99017c353110bb30eca2e312411f","signatureType":"ETH_SIGN"},{"owner":"0xD367f8322b64F29faF71dDB5c1877dC9ED6EC644","submissionDate":"2021-05-01T15:03:40Z","transactionHash":null,"signature":"0x4f96d3eda161f17d3e64bc89a6c06f5bed2a8434b1d486dc15144822b615c8794da3e9ba89510454379bda8b178ecbceca12757af1545f06c68c8ee106fcad511f","signatureType":"ETH_SIGN"},{"owner":"0xBE72691acA605050d1e693a2C2C6A9f3F41dC939","submissionDate":"2021-05-01T15:03:40Z","transactionHash":null,"signature":"0xb7dc515aaa9beb3c03bf5ad669af4adb14d392acf3fb7ec6faeb9888045f4de9788b27e1c12d83da2f8feb747c4cf0714eae4d254cc43c3a4ced50200d29ac1820","signatureType":"ETH_SIGN"}],"trusted":true,"signatures":"0xe6671afe388f8f6ca528195ff578bec4d26a35234ae2255651bf97eb46e9b74645d6ae97673115885f4bf947985c062227b15c99017c353110bb30eca2e312411fb7dc515aaa9beb3c03bf5ad669af4adb14d392acf3fb7ec6faeb9888045f4de9788b27e1c12d83da2f8feb747c4cf0714eae4d254cc43c3a4ced50200d29ac18204f96d3eda161f17d3e64bc89a6c06f5bed2a8434b1d486dc15144822b615c8794da3e9ba89510454379bda8b178ecbceca12757af1545f06c68c8ee106fcad511f"},{"safe":"0x1Db92e2EeBC8E0c075a02BeA49a2935BcD2dFCF4","to":"0x828424517F9F04015db02169f4026D57B2B07229","value":"20000000000000000000000","data":null,"operation":0,"gasToken":"0x0000000000000000000000000000000000000000","safeTxGas":16797,"baseGas":0,"gasPrice":"0","refundReceiver":"0x0000000000000000000000000000000000000000","nonce":6,"executionDate":"2021-04-25T07:41:24Z","submissionDate":"2021-04-25T07:41:24Z","modified":"2022-12-13T13:38:38.108451Z","blockNumber":12308135,"transactionHash":"0xcb138f8500b06883e7dc475e9a773086aa918d52e39cfc4ffbd1858c0e5ac8c2","safeTxHash":"0x6e872ed208df6d9e08751e9037766f36f820981a26b99d7081687017a4e4adbd","proposer":null,"proposedByDelegate":null,"executor":"0x2cDD560058D5ac32dc416AAa09Eaf93230c0B7B3","isExecuted":true,"isSuccessful":true,"ethGasPrice":"36000000000","maxFeePerGas":null,"maxPriorityFeePerGas":null,"gasUsed":69101,"fee":"2487636000000000","origin":"{}","dataDecoded":null,"confirmationsRequired":3,"confirmations":[{"owner":"0x2cDD560058D5ac32dc416AAa09Eaf93230c0B7B3","submissionDate":"2021-04-25T07:41:24Z","transactionHash":null,"signature":"0x0000000000000000000000002cdd560058d5ac32dc416aaa09eaf93230c0b7b3000000000000000000000000000000000000000000000000000000000000000001","signatureType":"APPROVED_HASH"},{"owner":"0xD367f8322b64F29faF71dDB5c1877dC9ED6EC644","submissionDate":"2021-04-25T07:41:24Z","transactionHash":null,"signature":"0x00007cea3e046e30bc867ed70300b48144b74b5ad3566133c7969ef38b8b1cc40f1938ef0cd49bde130e70b3f62d9eebd3568b04b91ae552fac961b857db43201f","signatureType":"ETH_SIGN"},{"owner":"0xBE72691acA605050d1e693a2C2C6A9f3F41dC939","submissionDate":"2021-04-25T07:41:24Z","transactionHash":null,"signature":"0x1349cd72f1bec128f2047d87b5e16fd5df37e1d79e09c92c5723f1fbfca823e31907c6828fcfdf99c6d087d5c201fb8803780439638184adf827854de4efd0901f","signatureType":"ETH_SIGN"}],"trusted":true,"signatures":"0x0000000000000000000000002cdd560058d5ac32dc416aaa09eaf93230c0b7b30000000000000000000000000000000000000000000000000000000000000000011349cd72f1bec128f2047d87b5e16fd5df37e1d79e09c92c5723f1fbfca823e31907c6828fcfdf99c6d087d5c201fb8803780439638184adf827854de4efd0901f00007cea3e046e30bc867ed70300b48144b74b5ad3566133c7969ef38b8b1cc40f1938ef0cd49bde130e70b3f62d9eebd3568b04b91ae552fac961b857db43201f"},{"safe":"0x1Db92e2EeBC8E0c075a02BeA49a2935BcD2dFCF4","to":"0x828424517F9F04015db02169f4026D57B2B07229","value":"20000000000000000000000","data":null,"operation":0,"gasToken":"0x0000000000000000000000000000000000000000","safeTxGas":16797,"baseGas":0,"gasPrice":"0","refundReceiver":"0x0000000000000000000000000000000000000000","nonce":5,"executionDate":"2021-04-19T11:44:35Z","submissionDate":"2021-04-19T11:44:35Z","modified":"2022-12-13T13:38:38.111159Z","blockNumber":12270291,"transactionHash":"0x60fa88f512f4cbfc2a585a8ad94ae3c0cd5dbbe3138409330edd845c3fa9ddee","safeTxHash":"0xfb0e4adb0fb98c4d31e3da1b8ae213c9f4dea92bedb9183d00094aed7d298d70","proposer":null,"proposedByDelegate":null,"executor":"0x2cDD560058D5ac32dc416AAa09Eaf93230c0B7B3","isExecuted":true,"isSuccessful":true,"ethGasPrice":"116000000000","maxFeePerGas":null,"maxPriorityFeePerGas":null,"gasUsed":69125,"fee":"8018500000000000","origin":"{}","dataDecoded":null,"confirmationsRequired":3,"confirmations":[{"owner":"0xBE72691acA605050d1e693a2C2C6A9f3F41dC939","submissionDate":"2021-04-19T11:44:35Z","transactionHash":null,"signature":"0x7b77c21f072884e09abf998185a3bc29e5296341e9b20bc42f20cbaad2ecb4cc39fe0194e6033cf09700fda5dfdef9d02d30929ebb3a9e05a724721a4d56e63f20","signatureType":"ETH_SIGN"},{"owner":"0x2cDD560058D5ac32dc416AAa09Eaf93230c0B7B3","submissionDate":"2021-04-19T11:44:35Z","transactionHash":null,"signature":"0x0000000000000000000000002cdd560058d5ac32dc416aaa09eaf93230c0b7b3000000000000000000000000000000000000000000000000000000000000000001","signatureType":"APPROVED_HASH"},{"owner":"0xe3dF2cCEAc61B1aFA311372ecC5B40A3A6585a9E","submissionDate":"2021-04-19T11:44:35Z","transactionHash":null,"signature":"0xac0aad2d4d150fe5621f091772717640f629cca203ca7b5e4ddef6f8f8792759159f6748fa42de3f2c2da91c53f45e4412b6eae91745096fc365f38896dc48a11f","signatureType":"ETH_SIGN"}],"trusted":true,"signatures":"0x0000000000000000000000002cdd560058d5ac32dc416aaa09eaf93230c0b7b30000000000000000000000000000000000000000000000000000000000000000017b77c21f072884e09abf998185a3bc29e5296341e9b20bc42f20cbaad2ecb4cc39fe0194e6033cf09700fda5dfdef9d02d30929ebb3a9e05a724721a4d56e63f20ac0aad2d4d150fe5621f091772717640f629cca203ca7b5e4ddef6f8f8792759159f6748fa42de3f2c2da91c53f45e4412b6eae91745096fc365f38896dc48a11f"},{"safe":"0x1Db92e2EeBC8E0c075a02BeA49a2935BcD2dFCF4","to":"0xd66b48f1E4403fbdd078fec71373AE20580488Cf","value":"300000000000000000000","data":null,"operation":0,"gasToken":"0x0000000000000000000000000000000000000000","safeTxGas":16785,"baseGas":0,"gasPrice":"0","refundReceiver":"0x0000000000000000000000000000000000000000","nonce":4,"executionDate":"2021-04-18T08:26:35Z","submissionDate":"2021-04-18T08:26:35Z","modified":"2022-12-13T13:38:37.703648Z","blockNumber":12263012,"transactionHash":"0xd681645e9afdcf95f891a9911e76aefa7d718630c5ab863e61da6103eef419c2","safeTxHash":"0xc846e875e10ae5d4f031b6a82fd2c25729b0c108c64a98728f856c1c5d0f051c","proposer":null,"proposedByDelegate":null,"executor":"0xBE72691acA605050d1e693a2C2C6A9f3F41dC939","isExecuted":true,"isSuccessful":true,"ethGasPrice":"150000000000","maxFeePerGas":null,"maxPriorityFeePerGas":null,"gasUsed":73047,"fee":"10957050000000000","origin":"{}","dataDecoded":null,"confirmationsRequired":3,"confirmations":[{"owner":"0xBE72691acA605050d1e693a2C2C6A9f3F41dC939","submissionDate":"2021-04-18T08:26:35Z","transactionHash":null,"signature":"0x1fe8a125414b75b0e355205404caf57c5152fcd953fd9aba2236abdb9bc089312d94db3fa478d1d9e79b29e166f59780e0de890fbc155ab041cedcb457c982ef1f","signatureType":"ETH_SIGN"},{"owner":"0xD367f8322b64F29faF71dDB5c1877dC9ED6EC644","submissionDate":"2021-04-18T08:26:35Z","transactionHash":null,"signature":"0x0f1b3cdcfa814196cb09fea2286359cd7b794b413670ecdecf1b93417bec8f133761743faf4c62a6de20d97999af3ff2ac36462bf028ce1e6bed46876ed9aa9f1f","signatureType":"ETH_SIGN"},{"owner":"0xe3dF2cCEAc61B1aFA311372ecC5B40A3A6585a9E","submissionDate":"2021-04-18T08:26:35Z","transactionHash":null,"signature":"0xeb0b03b79be904065ca74c0b615b322b25ed1ca923cc3e3beeeeebc25e3900ac734285e330b75abe5e6f4483853456c2712a9f8f5b2b2df0bd2be0fae6b89e281f","signatureType":"ETH_SIGN"}],"trusted":true,"signatures":"0x1fe8a125414b75b0e355205404caf57c5152fcd953fd9aba2236abdb9bc089312d94db3fa478d1d9e79b29e166f59780e0de890fbc155ab041cedcb457c982ef1f0f1b3cdcfa814196cb09fea2286359cd7b794b413670ecdecf1b93417bec8f133761743faf4c62a6de20d97999af3ff2ac36462bf028ce1e6bed46876ed9aa9f1feb0b03b79be904065ca74c0b615b322b25ed1ca923cc3e3beeeeebc25e3900ac734285e330b75abe5e6f4483853456c2712a9f8f5b2b2df0bd2be0fae6b89e281f"},{"safe":"0x1Db92e2EeBC8E0c075a02BeA49a2935BcD2dFCF4","to":"0xd66b48f1E4403fbdd078fec71373AE20580488Cf","value":"4200000000000000000000","data":null,"operation":0,"gasToken":"0x0000000000000000000000000000000000000000","safeTxGas":16785,"baseGas":0,"gasPrice":"0","refundReceiver":"0x0000000000000000000000000000000000000000","nonce":3,"executionDate":"2021-04-18T08:23:40Z","submissionDate":"2021-04-18T08:23:40Z","modified":"2022-12-13T13:38:37.702737Z","blockNumber":12263002,"transactionHash":"0x0c927362854c77421370f5873946057afde923b2ae39fd954b185fd62e93f2dd","safeTxHash":"0xf124fc18d532c363c15d20ce2daebf4dc3689953924e9fb93950ed40c9662f4a","proposer":null,"proposedByDelegate":null,"executor":"0xBE72691acA605050d1e693a2C2C6A9f3F41dC939","isExecuted":true,"isSuccessful":true,"ethGasPrice":"150000000000","maxFeePerGas":null,"maxPriorityFeePerGas":null,"gasUsed":73047,"fee":"10957050000000000","origin":"{}","dataDecoded":null,"confirmationsRequired":3,"confirmations":[{"owner":"0xBE72691acA605050d1e693a2C2C6A9f3F41dC939","submissionDate":"2021-04-18T08:23:40Z","transactionHash":null,"signature":"0xfa01c2fd863f4ed1749df85f9e391f74a0f4c641a745f19890cd54207255921b054f1d900d6d59f9329e5196420194a97e83702cba2e5432f306e7626890f84f20","signatureType":"ETH_SIGN"},{"owner":"0xe3dF2cCEAc61B1aFA311372ecC5B40A3A6585a9E","submissionDate":"2021-04-18T08:23:40Z","transactionHash":null,"signature":"0x7ce9a8a875f180eb38a8028f68033b739f3da70064d726be44bc0a81d951c9705da583e33a7a35c1b9295f51672ca0bf940b2217f4d80bc8bba78a24a53541b11f","signatureType":"ETH_SIGN"},{"owner":"0xD367f8322b64F29faF71dDB5c1877dC9ED6EC644","submissionDate":"2021-04-18T08:23:40Z","transactionHash":null,"signature":"0xdced968d6bbcb7549f2686c231b09487a0f1b46c226c1683a0caa28dc2a558c552cb1508a383635d2382e3e305fb63955f24662d929cc5d77157d8ce4824261d1f","signatureType":"ETH_SIGN"}],"trusted":true,"signatures":"0xfa01c2fd863f4ed1749df85f9e391f74a0f4c641a745f19890cd54207255921b054f1d900d6d59f9329e5196420194a97e83702cba2e5432f306e7626890f84f20dced968d6bbcb7549f2686c231b09487a0f1b46c226c1683a0caa28dc2a558c552cb1508a383635d2382e3e305fb63955f24662d929cc5d77157d8ce4824261d1f7ce9a8a875f180eb38a8028f68033b739f3da70064d726be44bc0a81d951c9705da583e33a7a35c1b9295f51672ca0bf940b2217f4d80bc8bba78a24a53541b11f"},{"safe":"0x1Db92e2EeBC8E0c075a02BeA49a2935BcD2dFCF4","to":"0x828424517F9F04015db02169f4026D57B2B07229","value":"25000000000000000000000","data":null,"operation":0,"gasToken":"0x0000000000000000000000000000000000000000","safeTxGas":14897,"baseGas":0,"gasPrice":"0","refundReceiver":"0x0000000000000000000000000000000000000000","nonce":2,"executionDate":"2021-04-15T02:22:07Z","submissionDate":"2021-04-15T02:22:07Z","modified":"2022-12-13T13:38:37.701780Z","blockNumber":12241928,"transactionHash":"0xb58bf3fc4df64c6970c5ab0e094a2463310b0524636c9c5d7d69999f3befdfd3","safeTxHash":"0xb2aefad5724f3b2fca3a5e809db8aea567157878812b4c6e06b9afa7e8a5b3ef","proposer":null,"proposedByDelegate":null,"executor":"0xBE72691acA605050d1e693a2C2C6A9f3F41dC939","isExecuted":true,"isSuccessful":true,"ethGasPrice":"95000000000","maxFeePerGas":null,"maxPriorityFeePerGas":null,"gasUsed":64771,"fee":"6153245000000000","origin":"{}","dataDecoded":null,"confirmationsRequired":3,"confirmations":[{"owner":"0x2cDD560058D5ac32dc416AAa09Eaf93230c0B7B3","submissionDate":"2021-04-15T02:22:07Z","transactionHash":null,"signature":"0x56a680473b39df56eacf61c7aed364ebdeb2c859155f372b794fbbb7484a977f19233d4d4fb55c6c33511271545e6c93c0bf69f5af2bca120d8761368f31b33720","signatureType":"ETH_SIGN"},{"owner":"0xBE72691acA605050d1e693a2C2C6A9f3F41dC939","submissionDate":"2021-04-15T02:22:07Z","transactionHash":null,"signature":"0x6fe4b63a7641abc029f7f746119dfd6ae671261e760dcc4b4278934dc0fc22d056d2189f93d87025f675246d94051898731cdec1d0fb0d5a2ce20d02f8678f251f","signatureType":"ETH_SIGN"},{"owner":"0xD367f8322b64F29faF71dDB5c1877dC9ED6EC644","submissionDate":"2021-04-15T02:22:07Z","transactionHash":null,"signature":"0x128cdca95579ffae74d8bdefdf42804431ebae727396ac6898eb2f514d7a5f8c06cd83b46cae539ff34b17521dcd926b18831adc05a196d3f41050747d47cbc420","signatureType":"ETH_SIGN"}],"trusted":true,"signatures":"0x56a680473b39df56eacf61c7aed364ebdeb2c859155f372b794fbbb7484a977f19233d4d4fb55c6c33511271545e6c93c0bf69f5af2bca120d8761368f31b337206fe4b63a7641abc029f7f746119dfd6ae671261e760dcc4b4278934dc0fc22d056d2189f93d87025f675246d94051898731cdec1d0fb0d5a2ce20d02f8678f251f128cdca95579ffae74d8bdefdf42804431ebae727396ac6898eb2f514d7a5f8c06cd83b46cae539ff34b17521dcd926b18831adc05a196d3f41050747d47cbc420"},{"safe":"0x1Db92e2EeBC8E0c075a02BeA49a2935BcD2dFCF4","to":"0x1Db92e2EeBC8E0c075a02BeA49a2935BcD2dFCF4","value":"0","data":null,"operation":0,"gasToken":"0x0000000000000000000000000000000000000000","safeTxGas":9837,"baseGas":0,"gasPrice":"0","refundReceiver":"0x0000000000000000000000000000000000000000","nonce":1,"executionDate":"2021-04-15T02:20:44Z","submissionDate":"2021-04-15T02:20:44Z","modified":"2022-12-13T13:38:37.699039Z","blockNumber":12241921,"transactionHash":"0xd2918f1f4f3206f71f1ecc2b26c622d5ea8837f684b7a731728ece352c39fd19","safeTxHash":"0x4848de6f45188f3a584b5fb9f3c5f41840735f7c288c9588972049d798de694c","proposer":null,"proposedByDelegate":null,"executor":"0x2cDD560058D5ac32dc416AAa09Eaf93230c0B7B3","isExecuted":true,"isSuccessful":true,"ethGasPrice":"76000000000","maxFeePerGas":null,"maxPriorityFeePerGas":null,"gasUsed":55177,"fee":"4193452000000000","origin":"{}","dataDecoded":null,"confirmationsRequired":3,"confirmations":[{"owner":"0x2cDD560058D5ac32dc416AAa09Eaf93230c0B7B3","submissionDate":"2021-04-15T02:20:44Z","transactionHash":null,"signature":"0x0000000000000000000000002cdd560058d5ac32dc416aaa09eaf93230c0b7b3000000000000000000000000000000000000000000000000000000000000000001","signatureType":"APPROVED_HASH"},{"owner":"0xBE72691acA605050d1e693a2C2C6A9f3F41dC939","submissionDate":"2021-04-15T02:20:44Z","transactionHash":null,"signature":"0x1020f937dff50e5d05499968923a614ce0a8eea2dffa7b10d48d1b3810e4a5c572fc0fadbeb294b5376a7990c8e1f72c5e10cb2ca7b1dbf489680c9e086a638420","signatureType":"ETH_SIGN"},{"owner":"0xD367f8322b64F29faF71dDB5c1877dC9ED6EC644","submissionDate":"2021-04-15T02:20:44Z","transactionHash":null,"signature":"0x263c65bd23af837bce9377135ef29b63b82294d3e079fc37c985dec595fe1d213b76da406aae9b7278879169791cc8f4b30f70ba380c85a9cb424826b83818b820","signatureType":"ETH_SIGN"}],"trusted":true,"signatures":"0x0000000000000000000000002cdd560058d5ac32dc416aaa09eaf93230c0b7b30000000000000000000000000000000000000000000000000000000000000000011020f937dff50e5d05499968923a614ce0a8eea2dffa7b10d48d1b3810e4a5c572fc0fadbeb294b5376a7990c8e1f72c5e10cb2ca7b1dbf489680c9e086a638420263c65bd23af837bce9377135ef29b63b82294d3e079fc37c985dec595fe1d213b76da406aae9b7278879169791cc8f4b30f70ba380c85a9cb424826b83818b820"},{"safe":"0x1Db92e2EeBC8E0c075a02BeA49a2935BcD2dFCF4","to":"0xD560cC4Beb7958571Ee252546B272667DdB22836","value":"1000000000000000000000","data":null,"operation":0,"gasToken":"0x0000000000000000000000000000000000000000","safeTxGas":14885,"baseGas":0,"gasPrice":"0","refundReceiver":"0x0000000000000000000000000000000000000000","nonce":1,"executionDate":null,"submissionDate":"2021-04-03T08:29:52.006537Z","modified":"2022-12-13T13:27:11.907740Z","blockNumber":null,"transactionHash":null,"safeTxHash":"0x17d451a07a3807c32b302b77282a34f9949a3208411050e68c89f7069e16b6f0","proposer":null,"proposedByDelegate":null,"executor":null,"isExecuted":false,"isSuccessful":null,"ethGasPrice":null,"maxFeePerGas":null,"maxPriorityFeePerGas":null,"gasUsed":null,"fee":null,"origin":"{}","dataDecoded":null,"confirmationsRequired":3,"confirmations":[{"owner":"0xBE72691acA605050d1e693a2C2C6A9f3F41dC939","submissionDate":"2021-04-03T08:29:52.016409Z","transactionHash":null,"signature":"0x570d9f8b9593d7d64447d06f1343f8f3ce60d94c3047aa107537ebbc9acdff8e0dd2ddb1179be4b29e5e6dfe80adcb4f659213cc2951282bfd768b920e0f93ab20","signatureType":"ETH_SIGN"},{"owner":"0x2cDD560058D5ac32dc416AAa09Eaf93230c0B7B3","submissionDate":"2021-04-14T15:15:20.350916Z","transactionHash":null,"signature":"0xcb48d6dc1f6381b1f15f1ea4b3a0e4292e4eae63631a956978002a7e834201c9679e862bb27254ba94f408fea31b7d7fcbfa522ba348757ecdcf99338e8d572d1f","signatureType":"ETH_SIGN"}],"trusted":true,"signatures":null},{"safe":"0x1Db92e2EeBC8E0c075a02BeA49a2935BcD2dFCF4","to":"0xBE72691acA605050d1e693a2C2C6A9f3F41dC939","value":"500000000000000000","data":null,"operation":0,"gasToken":"0x0000000000000000000000000000000000000000","safeTxGas":0,"baseGas":0,"gasPrice":"0","refundReceiver":"0x0000000000000000000000000000000000000000","nonce":0,"executionDate":"2021-03-15T16:44:56Z","submissionDate":"2021-03-15T16:44:56Z","modified":"2022-12-13T13:38:37.471358Z","blockNumber":12044302,"transactionHash":"0xce161e0675c7d694e2d5b4498ef3e67ea5f1ffa0a77224ccef7d4826549fbeaf","safeTxHash":"0x1de5535e36df6e3b4dea147a2d3f951f0ac237ef4f5317c3fe08f78af701ed94","proposer":null,"proposedByDelegate":null,"executor":"0x2cDD560058D5ac32dc416AAa09Eaf93230c0B7B3","isExecuted":true,"isSuccessful":true,"ethGasPrice":"227000001459","maxFeePerGas":null,"maxPriorityFeePerGas":null,"gasUsed":101261,"fee":"22986247147739799","origin":"{}","dataDecoded":null,"confirmationsRequired":3,"confirmations":[{"owner":"0xD367f8322b64F29faF71dDB5c1877dC9ED6EC644","submissionDate":"2021-03-15T16:44:56Z","transactionHash":null,"signature":"0x442f7b3fef93e47bfa4605ae128aedeb555c1cdc3f089057fc9891b8bfbc5fed43cefd36404baded25b18c85b2798dba712927f8223323dd04acff1396e9c1e420","signatureType":"ETH_SIGN"},{"owner":"0xBE72691acA605050d1e693a2C2C6A9f3F41dC939","submissionDate":"2021-03-15T16:44:56Z","transactionHash":null,"signature":"0x8924772321ea32670a5c47c734e8f3e5765ca13e5bbd517a8c4dd548e5daaa5569b7b774b25de201b23178383ea7b15f82518eb61661157109e971878658fe811f","signatureType":"ETH_SIGN"},{"owner":"0x2cDD560058D5ac32dc416AAa09Eaf93230c0B7B3","submissionDate":"2021-03-15T16:44:56Z","transactionHash":null,"signature":"0x0000000000000000000000002cdd560058d5ac32dc416aaa09eaf93230c0b7b3000000000000000000000000000000000000000000000000000000000000000001","signatureType":"APPROVED_HASH"},{"owner":"0xe3dF2cCEAc61B1aFA311372ecC5B40A3A6585a9E","submissionDate":"2021-03-15T16:44:56Z","transactionHash":null,"signature":"0xf5e1c4c6fe2bc5c2dd8ca476f06d323461ec351f5cead3f65f691ecd9e8d55ba5411807b0833df48be7ca11aa54747c4ef432073def10bcf22481f747439987120","signatureType":"ETH_SIGN"}],"trusted":true,"signatures":"0x0000000000000000000000002cdd560058d5ac32dc416aaa09eaf93230c0b7b30000000000000000000000000000000000000000000000000000000000000000018924772321ea32670a5c47c734e8f3e5765ca13e5bbd517a8c4dd548e5daaa5569b7b774b25de201b23178383ea7b15f82518eb61661157109e971878658fe811f442f7b3fef93e47bfa4605ae128aedeb555c1cdc3f089057fc9891b8bfbc5fed43cefd36404baded25b18c85b2798dba712927f8223323dd04acff1396e9c1e420f5e1c4c6fe2bc5c2dd8ca476f06d323461ec351f5cead3f65f691ecd9e8d55ba5411807b0833df48be7ca11aa54747c4ef432073def10bcf22481f747439987120"}],"countUniqueNonce":72}